{
  "address": "0x412468Ea1C027fb42166273a72f329616421e9eA",
  "abi": [
    {
      "inputs": [
        {
          "internalType": "address",
          "name": "baseToken",
          "type": "address"
        }
      ],
      "stateMutability": "nonpayable",
      "type": "constructor"
    },
    {
      "inputs": [
        {
          "internalType": "address",
          "name": "account",
          "type": "address"
        }
      ],
      "name": "baseRewardRateOf",
      "outputs": [
        {
          "internalType": "uint256",
          "name": "",
          "type": "uint256"
        }
      ],
      "stateMutability": "view",
      "type": "function"
    },
    {
      "inputs": [
        {
          "internalType": "address",
          "name": "account",
          "type": "address"
        }
      ],
      "name": "discountRateOf",
      "outputs": [
        {
          "internalType": "uint256",
          "name": "",
          "type": "uint256"
        }
      ],
      "stateMutability": "view",
      "type": "function"
    },
    {
      "inputs": [
        {
          "internalType": "address",
          "name": "account",
          "type": "address"
        }
      ],
      "name": "interestRateOf",
      "outputs": [
        {
          "internalType": "uint256",
          "name": "",
          "type": "uint256"
        }
      ],
      "stateMutability": "view",
      "type": "function"
    },
    {
      "inputs": [
        {
          "internalType": "address",
          "name": "account",
          "type": "address"
        }
      ],
      "name": "loyaltyTierOf",
      "outputs": [
        {
          "internalType": "enum ILoyaltyProgram.LoyaltyTier",
          "name": "",
          "type": "uint8"
        }
      ],
      "stateMutability": "view",
      "type": "function"
    }
  ],
  "transactionHash": "0x6d0ce9e8368bdc2926ecd63a39869b99eb39c87ad9e6b2e57f88bd4ab6948b2b",
  "args": [
    "0xa1890D349D63b69b4CF96F8e462284D4D9d64a0C"
  ],
  "solcInputHash": "c5af26ebfb96810c4e853869dcb10cdc",
  "bytecode": "0x608060405234801561001057600080fd5b506040516104dd3803806104dd83398101604081905261002f91610054565b600080546001600160a01b0319166001600160a01b0392909216919091179055610082565b600060208284031215610065578081fd5b81516001600160a01b038116811461007b578182fd5b9392505050565b61044c806100916000396000f3fe608060405234801561001057600080fd5b506004361061004c5760003560e01c8063255f9983146100515780634fa95d8e1461007a57806376e195e51461008d578063e13052b1146100ad575b600080fd5b61006461005f366004610371565b6100c0565b604051610071919061040d565b60405180910390f35b610064610088366004610371565b6101a5565b6100a061009b366004610371565b6101ab565b60405161007191906103e5565b6100646100bb366004610371565b6101bc565b6000806100cc83610294565b905060048160048111156100f057634e487b7160e01b600052602160045260246000fd5b1415610101576107d09150506101a0565b600381600481111561012357634e487b7160e01b600052602160045260246000fd5b1415610134576105dc9150506101a0565b600281600481111561015657634e487b7160e01b600052602160045260246000fd5b1415610167576104e29150506101a0565b600181600481111561018957634e487b7160e01b600052602160045260246000fd5b141561019a576102ee9150506101a0565b60009150505b919050565b50600f90565b60006101b682610294565b92915050565b6000806101c883610294565b905060048160048111156101ec57634e487b7160e01b600052602160045260246000fd5b14156101fd576101c29150506101a0565b600381600481111561021f57634e487b7160e01b600052602160045260246000fd5b14156102305761015e9150506101a0565b600281600481111561025257634e487b7160e01b600052602160045260246000fd5b14156102625760fa9150506101a0565b600181600481111561028457634e487b7160e01b600052602160045260246000fd5b141561019a5760969150506101a0565b600080546040516370a0823160e01b8152829173ffffffffffffffffffffffffffffffffffffffff16906370a08231906102d29086906004016103c4565b60206040518083038186803b1580156102ea57600080fd5b505afa1580156102fe573d6000803e3d6000fd5b505050506040513d601f19601f8201168201806040525081019061032291906103ac565b9050620186a081106103385760049150506101a0565b6188b8811061034b5760039150506101a0565b613a98811061035e5760029150506101a0565b611388811061019a5760019150506101a0565b600060208284031215610382578081fd5b813573ffffffffffffffffffffffffffffffffffffffff811681146103a5578182fd5b9392505050565b6000602082840312156103bd578081fd5b5051919050565b73ffffffffffffffffffffffffffffffffffffffff91909116815260200190565b602081016005831061040757634e487b7160e01b600052602160045260246000fd5b91905290565b9081526020019056fea26469706673582212208f84d0b9783886061db720f5dab76be15390f151eef6ed497fd4ac8489efa02d64736f6c63430008000033",
  "devdoc": {
    "kind": "dev",
    "methods": {},
    "version": 1
  },
  "userdoc": {
    "kind": "user",
    "methods": {},
    "version": 1
  },
  "storageLayout": {
    "storage": [
      {
        "astId": 1864,
        "contract": "contracts/LoyaltyProgram.sol:LoyaltyProgram",
        "label": "_baseToken",
        "offset": 0,
        "slot": "0",
        "type": "t_contract(IERC20)826"
      }
    ],
    "types": {
      "t_contract(IERC20)826": {
        "encoding": "inplace",
        "label": "contract IERC20",
        "numberOfBytes": "20"
      }
    }
  }
}