{
  "address": "0x70e0bA845a1A0F2DA3359C97E0285013525FFC49",
  "abi": [
    {
      "inputs": [
        {
          "internalType": "uint256",
          "name": "_totalSupply",
          "type": "uint256"
        }
      ],
      "stateMutability": "nonpayable",
      "type": "constructor"
    },
    {
      "anonymous": false,
      "inputs": [
        {
          "indexed": true,
          "internalType": "address",
          "name": "owner",
          "type": "address"
        },
        {
          "indexed": true,
          "internalType": "address",
          "name": "spender",
          "type": "address"
        },
        {
          "indexed": false,
          "internalType": "uint256",
          "name": "value",
          "type": "uint256"
        }
      ],
      "name": "Approval",
      "type": "event"
    },
    {
      "anonymous": false,
      "inputs": [
        {
          "indexed": true,
          "internalType": "address",
          "name": "previousOwner",
          "type": "address"
        },
        {
          "indexed": true,
          "internalType": "address",
          "name": "newOwner",
          "type": "address"
        }
      ],
      "name": "OwnershipTransferred",
      "type": "event"
    },
    {
      "anonymous": false,
      "inputs": [
        {
          "indexed": true,
          "internalType": "address",
          "name": "from",
          "type": "address"
        },
        {
          "indexed": true,
          "internalType": "address",
          "name": "to",
          "type": "address"
        },
        {
          "indexed": false,
          "internalType": "uint256",
          "name": "value",
          "type": "uint256"
        }
      ],
      "name": "Transfer",
      "type": "event"
    },
    {
      "inputs": [
        {
          "internalType": "address",
          "name": "owner",
          "type": "address"
        },
        {
          "internalType": "address",
          "name": "spender",
          "type": "address"
        }
      ],
      "name": "allowance",
      "outputs": [
        {
          "internalType": "uint256",
          "name": "",
          "type": "uint256"
        }
      ],
      "stateMutability": "view",
      "type": "function"
    },
    {
      "inputs": [
        {
          "internalType": "address",
          "name": "spender",
          "type": "address"
        },
        {
          "internalType": "uint256",
          "name": "amount",
          "type": "uint256"
        }
      ],
      "name": "approve",
      "outputs": [
        {
          "internalType": "bool",
          "name": "",
          "type": "bool"
        }
      ],
      "stateMutability": "nonpayable",
      "type": "function"
    },
    {
      "inputs": [
        {
          "internalType": "address",
          "name": "account",
          "type": "address"
        }
      ],
      "name": "balanceOf",
      "outputs": [
        {
          "internalType": "uint256",
          "name": "",
          "type": "uint256"
        }
      ],
      "stateMutability": "view",
      "type": "function"
    },
    {
      "inputs": [],
      "name": "cap",
      "outputs": [
        {
          "internalType": "uint256",
          "name": "",
          "type": "uint256"
        }
      ],
      "stateMutability": "view",
      "type": "function"
    },
    {
      "inputs": [],
      "name": "decimals",
      "outputs": [
        {
          "internalType": "uint8",
          "name": "",
          "type": "uint8"
        }
      ],
      "stateMutability": "view",
      "type": "function"
    },
    {
      "inputs": [
        {
          "internalType": "address",
          "name": "spender",
          "type": "address"
        },
        {
          "internalType": "uint256",
          "name": "subtractedValue",
          "type": "uint256"
        }
      ],
      "name": "decreaseAllowance",
      "outputs": [
        {
          "internalType": "bool",
          "name": "",
          "type": "bool"
        }
      ],
      "stateMutability": "nonpayable",
      "type": "function"
    },
    {
      "inputs": [],
      "name": "getChainId",
      "outputs": [
        {
          "internalType": "uint256",
          "name": "",
          "type": "uint256"
        }
      ],
      "stateMutability": "view",
      "type": "function"
    },
    {
      "inputs": [
        {
          "internalType": "address",
          "name": "spender",
          "type": "address"
        },
        {
          "internalType": "uint256",
          "name": "addedValue",
          "type": "uint256"
        }
      ],
      "name": "increaseAllowance",
      "outputs": [
        {
          "internalType": "bool",
          "name": "",
          "type": "bool"
        }
      ],
      "stateMutability": "nonpayable",
      "type": "function"
    },
    {
      "inputs": [
        {
          "internalType": "address",
          "name": "_to",
          "type": "address"
        },
        {
          "internalType": "uint256",
          "name": "_amount",
          "type": "uint256"
        }
      ],
      "name": "mint",
      "outputs": [],
      "stateMutability": "nonpayable",
      "type": "function"
    },
    {
      "inputs": [],
      "name": "name",
      "outputs": [
        {
          "internalType": "string",
          "name": "",
          "type": "string"
        }
      ],
      "stateMutability": "view",
      "type": "function"
    },
    {
      "inputs": [],
      "name": "owner",
      "outputs": [
        {
          "internalType": "address",
          "name": "",
          "type": "address"
        }
      ],
      "stateMutability": "view",
      "type": "function"
    },
    {
      "inputs": [],
      "name": "renounceOwnership",
      "outputs": [],
      "stateMutability": "nonpayable",
      "type": "function"
    },
    {
      "inputs": [],
      "name": "symbol",
      "outputs": [
        {
          "internalType": "string",
          "name": "",
          "type": "string"
        }
      ],
      "stateMutability": "view",
      "type": "function"
    },
    {
      "inputs": [],
      "name": "totalSupply",
      "outputs": [
        {
          "internalType": "uint256",
          "name": "",
          "type": "uint256"
        }
      ],
      "stateMutability": "view",
      "type": "function"
    },
    {
      "inputs": [
        {
          "internalType": "address",
          "name": "recipient",
          "type": "address"
        },
        {
          "internalType": "uint256",
          "name": "amount",
          "type": "uint256"
        }
      ],
      "name": "transfer",
      "outputs": [
        {
          "internalType": "bool",
          "name": "",
          "type": "bool"
        }
      ],
      "stateMutability": "nonpayable",
      "type": "function"
    },
    {
      "inputs": [
        {
          "internalType": "address",
          "name": "sender",
          "type": "address"
        },
        {
          "internalType": "address",
          "name": "recipient",
          "type": "address"
        },
        {
          "internalType": "uint256",
          "name": "amount",
          "type": "uint256"
        }
      ],
      "name": "transferFrom",
      "outputs": [
        {
          "internalType": "bool",
          "name": "",
          "type": "bool"
        }
      ],
      "stateMutability": "nonpayable",
      "type": "function"
    },
    {
      "inputs": [
        {
          "internalType": "address",
          "name": "newOwner",
          "type": "address"
        }
      ],
      "name": "transferOwnership",
      "outputs": [],
      "stateMutability": "nonpayable",
      "type": "function"
    }
  ],
  "transactionHash": "0xcbc667e6aaeb60701ef57011856394212c6f8d7cfa551be600d7a0a4b587b132",
  "args": [
    750000000
  ],
  "solcInputHash": "1c385266f9cf9e5fd248d848a8c92a2e",
  "bytecode": "0x60a06040523480156200001157600080fd5b5060405162001182380380620011828339810160408190526200003491620001d7565b604080518082018252600b81526a2830bcb1b2b92a37b5b2b760a91b602080830191825283518085019094526003808552622821a960e91b91850191909152825185949262000084929162000131565b5080516200009a90600490602084019062000131565b50505060008111620000c95760405162461bcd60e51b8152600401620000c090620001f0565b60405180910390fd5b6080526000620000d86200012d565b600580546001600160a01b0319166001600160a01b038316908117909155604051919250906000907f8be0079c531659141344cd1fd0a4f28419497f9722a3daafe3b4186f6b6457e0908290a3505062000264565b3390565b8280546200013f9062000227565b90600052602060002090601f016020900481019282620001635760008555620001ae565b82601f106200017e57805160ff1916838001178555620001ae565b82800160010185558215620001ae579182015b82811115620001ae57825182559160200191906001019062000191565b50620001bc929150620001c0565b5090565b5b80821115620001bc5760008155600101620001c1565b600060208284031215620001e9578081fd5b5051919050565b60208082526015908201527f45524332304361707065643a2063617020697320300000000000000000000000604082015260600190565b6002810460018216806200023c57607f821691505b602082108114156200025e57634e487b7160e01b600052602260045260246000fd5b50919050565b608051610f026200028060003960006103b70152610f026000f3fe608060405234801561001057600080fd5b506004361061011b5760003560e01c806340c10f19116100b257806395d89b4111610081578063a9059cbb11610066578063a9059cbb1461021e578063dd62ed3e14610231578063f2fde38b146102445761011b565b806395d89b4114610203578063a457c2d71461020b5761011b565b806340c10f19146101be57806370a08231146101d3578063715018a6146101e65780638da5cb5b146101ee5761011b565b8063313ce567116100ee578063313ce567146101865780633408e4701461019b578063355274ea146101a357806339509351146101ab5761011b565b806306fdde0314610120578063095ea7b31461013e57806318160ddd1461015e57806323b872dd14610173575b600080fd5b610128610257565b6040516101359190610aa5565b60405180910390f35b61015161014c366004610a5d565b6102e9565b6040516101359190610a9a565b610166610306565b6040516101359190610e35565b610151610181366004610a22565b61030c565b61018e6103ac565b6040516101359190610e3e565b6101666103b1565b6101666103b5565b6101516101b9366004610a5d565b6103d9565b6101d16101cc366004610a5d565b610428565b005b6101666101e13660046109cf565b610475565b6101d1610494565b6101f661052a565b6040516101359190610a86565b610128610539565b610151610219366004610a5d565b610548565b61015161022c366004610a5d565b6105c3565b61016661023f3660046109f0565b6105d7565b6101d16102523660046109cf565b610602565b60606003805461026690610e7b565b80601f016020809104026020016040519081016040528092919081815260200182805461029290610e7b565b80156102df5780601f106102b4576101008083540402835291602001916102df565b820191906000526020600020905b8154815290600101906020018083116102c257829003601f168201915b5050505050905090565b60006102fd6102f66106d0565b84846106d4565b50600192915050565b60025490565b6000610319848484610788565b6001600160a01b03841660009081526001602052604081208161033a6106d0565b6001600160a01b03166001600160a01b03168152602001908152602001600020549050828110156103865760405162461bcd60e51b815260040161037d90610c37565b60405180910390fd5b6103a1856103926106d0565b61039c8685610e64565b6106d4565b506001949350505050565b601290565b4690565b7f000000000000000000000000000000000000000000000000000000000000000090565b60006102fd6103e66106d0565b8484600160006103f46106d0565b6001600160a01b03908116825260208083019390935260409182016000908120918b168152925290205461039c9190610e4c565b6104306106d0565b6001600160a01b031661044161052a565b6001600160a01b0316146104675760405162461bcd60e51b815260040161037d90610c94565b61047182826108b0565b5050565b6001600160a01b0381166000908152602081905260409020545b919050565b61049c6106d0565b6001600160a01b03166104ad61052a565b6001600160a01b0316146104d35760405162461bcd60e51b815260040161037d90610c94565b6005546040516000916001600160a01b0316907f8be0079c531659141344cd1fd0a4f28419497f9722a3daafe3b4186f6b6457e0908390a36005805473ffffffffffffffffffffffffffffffffffffffff19169055565b6005546001600160a01b031690565b60606004805461026690610e7b565b600080600160006105576106d0565b6001600160a01b03908116825260208083019390935260409182016000908120918816815292529020549050828110156105a35760405162461bcd60e51b815260040161037d90610da1565b6105b96105ae6106d0565b8561039c8685610e64565b5060019392505050565b60006102fd6105d06106d0565b8484610788565b6001600160a01b03918216600090815260016020908152604080832093909416825291909152205490565b61060a6106d0565b6001600160a01b031661061b61052a565b6001600160a01b0316146106415760405162461bcd60e51b815260040161037d90610c94565b6001600160a01b0381166106675760405162461bcd60e51b815260040161037d90610b3b565b6005546040516001600160a01b038084169216907f8be0079c531659141344cd1fd0a4f28419497f9722a3daafe3b4186f6b6457e090600090a36005805473ffffffffffffffffffffffffffffffffffffffff19166001600160a01b0392909216919091179055565b3390565b6001600160a01b0383166106fa5760405162461bcd60e51b815260040161037d90610d5d565b6001600160a01b0382166107205760405162461bcd60e51b815260040161037d90610b98565b6001600160a01b0380841660008181526001602090815260408083209487168084529490915290819020849055517f8c5be1e5ebec7d5bd14f71427d1e84f3dd0314c0f7b2291e5b200ac8c7c3b9259061077b908590610e35565b60405180910390a3505050565b6001600160a01b0383166107ae5760405162461bcd60e51b815260040161037d90610cc9565b6001600160a01b0382166107d45760405162461bcd60e51b815260040161037d90610af8565b6107df8383836108f3565b6001600160a01b038316600090815260208190526040902054818110156108185760405162461bcd60e51b815260040161037d90610bda565b6108228282610e64565b6001600160a01b038086166000908152602081905260408082209390935590851681529081208054849290610858908490610e4c565b92505081905550826001600160a01b0316846001600160a01b03167fddf252ad1be2c89b69c2b068fc378daa952ba7f163c4a11628f55a4df523b3ef846040516108a29190610e35565b60405180910390a350505050565b6108b86103b5565b816108c1610306565b6108cb9190610e4c565b11156108e95760405162461bcd60e51b815260040161037d90610d26565b61047182826108f8565b505050565b6001600160a01b03821661091e5760405162461bcd60e51b815260040161037d90610dfe565b61092a600083836108f3565b806002600082825461093c9190610e4c565b90915550506001600160a01b03821660009081526020819052604081208054839290610969908490610e4c565b90915550506040516001600160a01b038316906000907fddf252ad1be2c89b69c2b068fc378daa952ba7f163c4a11628f55a4df523b3ef906109ac908590610e35565b60405180910390a35050565b80356001600160a01b038116811461048f57600080fd5b6000602082840312156109e0578081fd5b6109e9826109b8565b9392505050565b60008060408385031215610a02578081fd5b610a0b836109b8565b9150610a19602084016109b8565b90509250929050565b600080600060608486031215610a36578081fd5b610a3f846109b8565b9250610a4d602085016109b8565b9150604084013590509250925092565b60008060408385031215610a6f578182fd5b610a78836109b8565b946020939093013593505050565b6001600160a01b0391909116815260200190565b901515815260200190565b6000602080835283518082850152825b81811015610ad157858101830151858201604001528201610ab5565b81811115610ae25783604083870101525b50601f01601f1916929092016040019392505050565b60208082526023908201527f45524332303a207472616e7366657220746f20746865207a65726f206164647260408201526265737360e81b606082015260800190565b60208082526026908201527f4f776e61626c653a206e6577206f776e657220697320746865207a65726f206160408201527f6464726573730000000000000000000000000000000000000000000000000000606082015260800190565b60208082526022908201527f45524332303a20617070726f766520746f20746865207a65726f206164647265604082015261737360f01b606082015260800190565b60208082526026908201527f45524332303a207472616e7366657220616d6f756e742065786365656473206260408201527f616c616e63650000000000000000000000000000000000000000000000000000606082015260800190565b60208082526028908201527f45524332303a207472616e7366657220616d6f756e742065786365656473206160408201527f6c6c6f77616e6365000000000000000000000000000000000000000000000000606082015260800190565b6020808252818101527f4f776e61626c653a2063616c6c6572206973206e6f7420746865206f776e6572604082015260600190565b60208082526025908201527f45524332303a207472616e736665722066726f6d20746865207a65726f20616460408201527f6472657373000000000000000000000000000000000000000000000000000000606082015260800190565b60208082526019908201527f45524332304361707065643a2063617020657863656564656400000000000000604082015260600190565b60208082526024908201527f45524332303a20617070726f76652066726f6d20746865207a65726f206164646040820152637265737360e01b606082015260800190565b60208082526025908201527f45524332303a2064656372656173656420616c6c6f77616e63652062656c6f7760408201527f207a65726f000000000000000000000000000000000000000000000000000000606082015260800190565b6020808252601f908201527f45524332303a206d696e7420746f20746865207a65726f206164647265737300604082015260600190565b90815260200190565b60ff91909116815260200190565b60008219821115610e5f57610e5f610eb6565b500190565b600082821015610e7657610e76610eb6565b500390565b600281046001821680610e8f57607f821691505b60208210811415610eb057634e487b7160e01b600052602260045260246000fd5b50919050565b634e487b7160e01b600052601160045260246000fdfea2646970667358221220ffdf652336adbb02d6445001fa5bb4cd9daeb43d65daaa5cd46b93a36ee613f364736f6c63430008000033",
  "devdoc": {
    "kind": "dev",
    "methods": {
      "allowance(address,address)": {
        "details": "See {IERC20-allowance}."
      },
      "approve(address,uint256)": {
        "details": "See {IERC20-approve}. Requirements: - `spender` cannot be the zero address."
      },
      "balanceOf(address)": {
        "details": "See {IERC20-balanceOf}."
      },
      "cap()": {
        "details": "Returns the cap on the token's total supply."
      },
      "decimals()": {
        "details": "Returns the number of decimals used to get its user representation. For example, if `decimals` equals `2`, a balance of `505` tokens should be displayed to a user as `5,05` (`505 / 10 ** 2`). Tokens usually opt for a value of 18, imitating the relationship between Ether and Wei. This is the value {ERC20} uses, unless this function is overridden; NOTE: This information is only used for _display_ purposes: it in no way affects any of the arithmetic of the contract, including {IERC20-balanceOf} and {IERC20-transfer}."
      },
      "decreaseAllowance(address,uint256)": {
        "details": "Atomically decreases the allowance granted to `spender` by the caller. This is an alternative to {approve} that can be used as a mitigation for problems described in {IERC20-approve}. Emits an {Approval} event indicating the updated allowance. Requirements: - `spender` cannot be the zero address. - `spender` must have allowance for the caller of at least `subtractedValue`."
      },
      "increaseAllowance(address,uint256)": {
        "details": "Atomically increases the allowance granted to `spender` by the caller. This is an alternative to {approve} that can be used as a mitigation for problems described in {IERC20-approve}. Emits an {Approval} event indicating the updated allowance. Requirements: - `spender` cannot be the zero address."
      },
      "name()": {
        "details": "Returns the name of the token."
      },
      "owner()": {
        "details": "Returns the address of the current owner."
      },
      "renounceOwnership()": {
        "details": "Leaves the contract without owner. It will not be possible to call `onlyOwner` functions anymore. Can only be called by the current owner. NOTE: Renouncing ownership will leave the contract without an owner, thereby removing any functionality that is only available to the owner."
      },
      "symbol()": {
        "details": "Returns the symbol of the token, usually a shorter version of the name."
      },
      "totalSupply()": {
        "details": "See {IERC20-totalSupply}."
      },
      "transfer(address,uint256)": {
        "details": "See {IERC20-transfer}. Requirements: - `recipient` cannot be the zero address. - the caller must have a balance of at least `amount`."
      },
      "transferFrom(address,address,uint256)": {
        "details": "See {IERC20-transferFrom}. Emits an {Approval} event indicating the updated allowance. This is not required by the EIP. See the note at the beginning of {ERC20}. Requirements: - `sender` and `recipient` cannot be the zero address. - `sender` must have a balance of at least `amount`. - the caller must have allowance for ``sender``'s tokens of at least `amount`."
      },
      "transferOwnership(address)": {
        "details": "Transfers ownership of the contract to a new account (`newOwner`). Can only be called by the current owner."
      }
    },
    "version": 1
  },
  "userdoc": {
    "kind": "user",
    "methods": {},
    "version": 1
  },
  "storageLayout": {
    "storage": [
      {
        "astId": 257,
        "contract": "contracts/PaycerToken.sol:PaycerToken",
        "label": "_balances",
        "offset": 0,
        "slot": "0",
        "type": "t_mapping(t_address,t_uint256)"
      },
      {
        "astId": 263,
        "contract": "contracts/PaycerToken.sol:PaycerToken",
        "label": "_allowances",
        "offset": 0,
        "slot": "1",
        "type": "t_mapping(t_address,t_mapping(t_address,t_uint256))"
      },
      {
        "astId": 265,
        "contract": "contracts/PaycerToken.sol:PaycerToken",
        "label": "_totalSupply",
        "offset": 0,
        "slot": "2",
        "type": "t_uint256"
      },
      {
        "astId": 267,
        "contract": "contracts/PaycerToken.sol:PaycerToken",
        "label": "_name",
        "offset": 0,
        "slot": "3",
        "type": "t_string_storage"
      },
      {
        "astId": 269,
        "contract": "contracts/PaycerToken.sol:PaycerToken",
        "label": "_symbol",
        "offset": 0,
        "slot": "4",
        "type": "t_string_storage"
      },
      {
        "astId": 7,
        "contract": "contracts/PaycerToken.sol:PaycerToken",
        "label": "_owner",
        "offset": 0,
        "slot": "5",
        "type": "t_address"
      }
    ],
    "types": {
      "t_address": {
        "encoding": "inplace",
        "label": "address",
        "numberOfBytes": "20"
      },
      "t_mapping(t_address,t_mapping(t_address,t_uint256))": {
        "encoding": "mapping",
        "key": "t_address",
        "label": "mapping(address => mapping(address => uint256))",
        "numberOfBytes": "32",
        "value": "t_mapping(t_address,t_uint256)"
      },
      "t_mapping(t_address,t_uint256)": {
        "encoding": "mapping",
        "key": "t_address",
        "label": "mapping(address => uint256)",
        "numberOfBytes": "32",
        "value": "t_uint256"
      },
      "t_string_storage": {
        "encoding": "bytes",
        "label": "string",
        "numberOfBytes": "32"
      },
      "t_uint256": {
        "encoding": "inplace",
        "label": "uint256",
        "numberOfBytes": "32"
      }
    }
  }
}