{
  "address": "0x752a4e8a8c381921d56bEBcddD50F74E6e0A9099",
  "abi": [
    {
      "inputs": [
        {
          "internalType": "address",
          "name": "baseToken",
          "type": "address"
        },
        {
          "internalType": "address",
          "name": "rewardTreasury",
          "type": "address"
        },
        {
          "internalType": "address",
          "name": "loyaltyProgram",
          "type": "address"
        }
      ],
      "stateMutability": "nonpayable",
      "type": "constructor"
    },
    {
      "anonymous": false,
      "inputs": [
        {
          "indexed": true,
          "internalType": "address",
          "name": "account",
          "type": "address"
        },
        {
          "indexed": false,
          "internalType": "uint256",
          "name": "amount",
          "type": "uint256"
        }
      ],
      "name": "Claimed",
      "type": "event"
    },
    {
      "anonymous": false,
      "inputs": [
        {
          "indexed": true,
          "internalType": "address",
          "name": "previousOwner",
          "type": "address"
        },
        {
          "indexed": true,
          "internalType": "address",
          "name": "newOwner",
          "type": "address"
        }
      ],
      "name": "OwnershipTransferred",
      "type": "event"
    },
    {
      "anonymous": false,
      "inputs": [
        {
          "indexed": false,
          "internalType": "address",
          "name": "account",
          "type": "address"
        }
      ],
      "name": "Paused",
      "type": "event"
    },
    {
      "anonymous": false,
      "inputs": [
        {
          "indexed": true,
          "internalType": "address",
          "name": "account",
          "type": "address"
        },
        {
          "indexed": false,
          "internalType": "uint256",
          "name": "amount",
          "type": "uint256"
        }
      ],
      "name": "Staked",
      "type": "event"
    },
    {
      "anonymous": false,
      "inputs": [
        {
          "indexed": false,
          "internalType": "address",
          "name": "account",
          "type": "address"
        }
      ],
      "name": "Unpaused",
      "type": "event"
    },
    {
      "anonymous": false,
      "inputs": [
        {
          "indexed": true,
          "internalType": "address",
          "name": "account",
          "type": "address"
        },
        {
          "indexed": false,
          "internalType": "uint256",
          "name": "amount",
          "type": "uint256"
        }
      ],
      "name": "Withdrawn",
      "type": "event"
    },
    {
      "inputs": [],
      "name": "claim",
      "outputs": [],
      "stateMutability": "nonpayable",
      "type": "function"
    },
    {
      "inputs": [
        {
          "internalType": "address",
          "name": "account",
          "type": "address"
        }
      ],
      "name": "lastClaimedOf",
      "outputs": [
        {
          "internalType": "uint256",
          "name": "",
          "type": "uint256"
        }
      ],
      "stateMutability": "view",
      "type": "function"
    },
    {
      "inputs": [
        {
          "internalType": "address",
          "name": "account",
          "type": "address"
        }
      ],
      "name": "lastStakeTimeOf",
      "outputs": [
        {
          "internalType": "uint256",
          "name": "",
          "type": "uint256"
        }
      ],
      "stateMutability": "view",
      "type": "function"
    },
    {
      "inputs": [
        {
          "internalType": "address",
          "name": "account",
          "type": "address"
        }
      ],
      "name": "lastWithdrawTimeOf",
      "outputs": [
        {
          "internalType": "uint256",
          "name": "",
          "type": "uint256"
        }
      ],
      "stateMutability": "view",
      "type": "function"
    },
    {
      "inputs": [],
      "name": "owner",
      "outputs": [
        {
          "internalType": "address",
          "name": "",
          "type": "address"
        }
      ],
      "stateMutability": "view",
      "type": "function"
    },
    {
      "inputs": [],
      "name": "paused",
      "outputs": [
        {
          "internalType": "bool",
          "name": "",
          "type": "bool"
        }
      ],
      "stateMutability": "view",
      "type": "function"
    },
    {
      "inputs": [],
      "name": "renounceOwnership",
      "outputs": [],
      "stateMutability": "nonpayable",
      "type": "function"
    },
    {
      "inputs": [
        {
          "internalType": "address",
          "name": "account",
          "type": "address"
        }
      ],
      "name": "rewardBalanceOf",
      "outputs": [
        {
          "internalType": "uint256",
          "name": "",
          "type": "uint256"
        }
      ],
      "stateMutability": "view",
      "type": "function"
    },
    {
      "inputs": [
        {
          "internalType": "address",
          "name": "account",
          "type": "address"
        }
      ],
      "name": "rewardRateOf",
      "outputs": [
        {
          "internalType": "uint256",
          "name": "",
          "type": "uint256"
        }
      ],
      "stateMutability": "view",
      "type": "function"
    },
    {
      "inputs": [
        {
          "internalType": "uint256",
          "name": "amount",
          "type": "uint256"
        }
      ],
      "name": "stake",
      "outputs": [],
      "stateMutability": "nonpayable",
      "type": "function"
    },
    {
      "inputs": [
        {
          "internalType": "address",
          "name": "account",
          "type": "address"
        }
      ],
      "name": "stakedBalanceOf",
      "outputs": [
        {
          "internalType": "uint256",
          "name": "",
          "type": "uint256"
        }
      ],
      "stateMutability": "view",
      "type": "function"
    },
    {
      "inputs": [
        {
          "internalType": "address",
          "name": "account",
          "type": "address"
        }
      ],
      "name": "totalClaimedOf",
      "outputs": [
        {
          "internalType": "uint256",
          "name": "",
          "type": "uint256"
        }
      ],
      "stateMutability": "view",
      "type": "function"
    },
    {
      "inputs": [],
      "name": "totalStakedBalances",
      "outputs": [
        {
          "internalType": "uint256",
          "name": "",
          "type": "uint256"
        }
      ],
      "stateMutability": "view",
      "type": "function"
    },
    {
      "inputs": [
        {
          "internalType": "address",
          "name": "newOwner",
          "type": "address"
        }
      ],
      "name": "transferOwnership",
      "outputs": [],
      "stateMutability": "nonpayable",
      "type": "function"
    },
    {
      "inputs": [],
      "name": "treasurySupply",
      "outputs": [
        {
          "internalType": "uint256",
          "name": "",
          "type": "uint256"
        }
      ],
      "stateMutability": "view",
      "type": "function"
    },
    {
      "inputs": [
        {
          "internalType": "uint256",
          "name": "amount",
          "type": "uint256"
        }
      ],
      "name": "withdraw",
      "outputs": [],
      "stateMutability": "nonpayable",
      "type": "function"
    }
  ],
  "transactionHash": "0xd2d295d6c0e998e5a3341dbe9290dd3394d99fb51dc621a24a6bc3689dc64c16",
  "args": [
    "0xcd3861FbB5F5256d368f6B6E943DEA964F1f8846",
    "0x2E769B622f6D2b6D392086f276478BE80D073eee",
    "0x6E585Bb1Cc100E01B80d5Ed40F655508C6Ae081d"
  ],
  "solcInputHash": "bddc25f0a7c4057a6b50703e9f20fef4",
  "bytecode": "0x608060405260026006553480156200001657600080fd5b50604051620013e4380380620013e483398101604081905262000039916200011a565b60016000819055805460ff191690556200005c620000566200009f565b620000a3565b600280546001600160a01b039485166001600160a01b03199182161790915560038054938516938216939093179092556004805491909316911617905562000163565b3390565b600180546001600160a01b03838116610100818102610100600160a81b031985161790945560405193909204169182907f8be0079c531659141344cd1fd0a4f28419497f9722a3daafe3b4186f6b6457e090600090a35050565b80516001600160a01b03811681146200011557600080fd5b919050565b6000806000606084860312156200012f578283fd5b6200013a84620000fd565b92506200014a60208501620000fd565b91506200015a60408501620000fd565b90509250925092565b61127180620001736000396000f3fe608060405234801561001057600080fd5b50600436106101005760003560e01c80635fc1a4b811610097578063a694fc3a11610066578063a694fc3a146101d9578063d6d789b7146101ec578063e964b644146101ff578063f2fde38b1461021257610100565b80635fc1a4b8146101a157806366f7ae70146101a9578063715018a6146101bc5780638da5cb5b146101c457610100565b80634e71d92d116100d35780634e71d92d1461015e5780635175a7c9146101665780635b09c876146101795780635c975abb1461018c57610100565b806316765391146101055780632e1a7d4d1461012e57806339e47c831461014357806340d73f4714610156575b600080fd5b610118610113366004610d63565b610225565b6040516101259190611182565b60405180910390f35b61014161013c366004610daa565b610244565b005b610118610151366004610d63565b610431565b61011861044c565b610141610452565b610118610174366004610d63565b6105da565b610118610187366004610d63565b6105f5565b6101946105fb565b6040516101259190610e47565b610118610604565b6101186101b7366004610d63565b610691565b610141610697565b6101cc6106e2565b6040516101259190610df6565b6101416101e7366004610daa565b6106f6565b6101186101fa366004610d63565b61089a565b61011861020d366004610d63565b6108a1565b610141610220366004610d63565b610a11565b6001600160a01b0381166000908152600760205260409020545b919050565b600260005414156102705760405162461bcd60e51b8152600401610267906110ee565b60405180910390fd5b600260005561027d6105fb565b1561029a5760405162461bcd60e51b815260040161026790610f76565b600081116102ba5760405162461bcd60e51b815260040161026790610ee2565b6000600654116102dc5760405162461bcd60e51b815260040161026790610ee2565b806102e633610225565b10156103045760405162461bcd60e51b815260040161026790611125565b6005546103119082610a82565b6005553360009081526007602052604090205461032e9082610a82565b336000908152600760205260409081902091909155600254905163095ea7b360e01b81526001600160a01b039091169063095ea7b3906103749030908590600401610e2e565b602060405180830381600087803b15801561038e57600080fd5b505af11580156103a2573d6000803e3d6000fd5b505050506040513d601f19601f820116820180604052508101906103c69190610d8a565b506002546103df906001600160a01b0316303384610a95565b336000818152600a602052604090819020429055517f7084f5476618d8e60b11ef0d7d3f06914655adb8793e28ff7f018d4c76d505d590610421908490611182565b60405180910390a2506001600055565b6001600160a01b03166000908152600a602052604090205490565b60055490565b600260005414156104755760405162461bcd60e51b8152600401610267906110ee565b60026000556104826105fb565b1561049f5760405162461bcd60e51b815260040161026790610f76565b336104a9816108a1565b6001600160a01b038216600090815260086020526040808220929092553381522054806104e85760405162461bcd60e51b815260040161026790610ee2565b806104f1610604565b101561050f5760405162461bcd60e51b815260040161026790610fe2565b33600081815260086020526040808220919091556003549051635569f64b60e11b81526001600160a01b039091169163aad3ec969161055391908590600401610e2e565b600060405180830381600087803b15801561056d57600080fd5b505af1158015610581573d6000803e3d6000fd5b5050336000818152600b602052604090819020429055519092507fd8138f8a3f377c5259ca548e70e4c2de94f129f5a11036a15b69513cba2b426a91506105c9908490611182565b60405180910390a250506001600055565b6001600160a01b031660009081526009602052604090205490565b50600f90565b60015460ff1690565b6002546003546040516370a0823160e01b81526000926001600160a01b03908116926370a082319261063c9290911690600401610df6565b60206040518083038186803b15801561065457600080fd5b505afa158015610668573d6000803e3d6000fd5b505050506040513d601f19601f8201168201806040525081019061068c9190610dc2565b905090565b50600a90565b61069f610b20565b6001600160a01b03166106b06106e2565b6001600160a01b0316146106d65760405162461bcd60e51b815260040161026790610fad565b6106e06000610b24565b565b60015461010090046001600160a01b031690565b600260005414156107195760405162461bcd60e51b8152600401610267906110ee565b60026000556107266105fb565b156107435760405162461bcd60e51b815260040161026790610f76565b600081116107635760405162461bcd60e51b815260040161026790610ee2565b6002546040516370a0823160e01b815282916001600160a01b0316906370a0823190610793903390600401610df6565b60206040518083038186803b1580156107ab57600080fd5b505afa1580156107bf573d6000803e3d6000fd5b505050506040513d601f19601f820116820180604052508101906107e39190610dc2565b10156108015760405162461bcd60e51b815260040161026790611023565b60055461080e9082610b95565b6005553360009081526007602052604090205461082b9082610b95565b33600081815260076020526040902091909155600254610858916001600160a01b03909116903084610a95565b3360008181526009602052604090819020429055517f9e71bc8eea02a63969f509818f2dafb9254532904319f9dbda79b67bd34a5f3d90610421908490611182565b506103e890565b600480546040516327d4aec760e11b815260009283926001600160a01b031691634fa95d8e916108d391879101610df6565b60206040518083038186803b1580156108eb57600080fd5b505afa1580156108ff573d6000803e3d6000fd5b505050506040513d601f19601f820116820180604052508101906109239190610dc2565b9050600061093084610225565b6001600160a01b0385166000908152600b60205260408120549192509061096f576001600160a01b038516600090815260096020526040902054610989565b6001600160a01b0385166000908152600b60205260409020545b90508061099c576000935050505061023f565b60006109b66301e133806109b04285610a82565b90610ba1565b9050806109ca57600094505050505061023f565b60006109e16301e133806109b087620186a0610bad565b9050600060646109f183876111c3565b6109fb91906111a3565b610a0590846111c3565b98975050505050505050565b610a19610b20565b6001600160a01b0316610a2a6106e2565b6001600160a01b031614610a505760405162461bcd60e51b815260040161026790610fad565b6001600160a01b038116610a765760405162461bcd60e51b815260040161026790610e85565b610a7f81610b24565b50565b6000610a8e82846111e2565b9392505050565b610b1a846323b872dd60e01b858585604051602401610ab693929190610e0a565b60408051601f198184030181529190526020810180517bffffffffffffffffffffffffffffffffffffffffffffffffffffffff167fffffffff0000000000000000000000000000000000000000000000000000000090931692909217909152610bb9565b50505050565b3390565b600180546001600160a01b038381166101008181027fffffffffffffffffffffff0000000000000000000000000000000000000000ff85161790945560405193909204169182907f8be0079c531659141344cd1fd0a4f28419497f9722a3daafe3b4186f6b6457e090600090a35050565b6000610a8e828461118b565b6000610a8e82846111a3565b6000610a8e82846111c3565b6000610c0e826040518060400160405280602081526020017f5361666545524332303a206c6f772d6c6576656c2063616c6c206661696c6564815250856001600160a01b0316610c4d9092919063ffffffff16565b805190915015610c485780806020019051810190610c2c9190610d8a565b610c485760405162461bcd60e51b815260040161026790611091565b505050565b6060610c5c8484600085610c64565b949350505050565b606082471015610c865760405162461bcd60e51b815260040161026790610f19565b610c8f85610d24565b610cab5760405162461bcd60e51b81526004016102679061105a565b600080866001600160a01b03168587604051610cc79190610dda565b60006040518083038185875af1925050503d8060008114610d04576040519150601f19603f3d011682016040523d82523d6000602084013e610d09565b606091505b5091509150610d19828286610d2a565b979650505050505050565b3b151590565b60608315610d39575081610a8e565b825115610d495782518084602001fd5b8160405162461bcd60e51b81526004016102679190610e52565b600060208284031215610d74578081fd5b81356001600160a01b0381168114610a8e578182fd5b600060208284031215610d9b578081fd5b81518015158114610a8e578182fd5b600060208284031215610dbb578081fd5b5035919050565b600060208284031215610dd3578081fd5b5051919050565b60008251610dec8184602087016111f9565b9190910192915050565b6001600160a01b0391909116815260200190565b6001600160a01b039384168152919092166020820152604081019190915260600190565b6001600160a01b03929092168252602082015260400190565b901515815260200190565b6000602082528251806020840152610e718160408501602087016111f9565b601f01601f19169190910160400192915050565b60208082526026908201527f4f776e61626c653a206e6577206f776e657220697320746865207a65726f206160408201527f6464726573730000000000000000000000000000000000000000000000000000606082015260800190565b6020808252601d908201527f416d6f756e74206d7573742062652067726561746572207468616e2030000000604082015260600190565b60208082526026908201527f416464726573733a20696e73756666696369656e742062616c616e636520666f60408201527f722063616c6c0000000000000000000000000000000000000000000000000000606082015260800190565b60208082526010908201527f5061757361626c653a2070617573656400000000000000000000000000000000604082015260600190565b6020808252818101527f4f776e61626c653a2063616c6c6572206973206e6f7420746865206f776e6572604082015260600190565b60208082526021908201527f4e6f7420656e6f75676820746f6b656e7320696e2074686520747265617375726040820152607960f81b606082015260800190565b6020808252601f908201527f4e6f7420656e6f75676820746f6b656e7320696e207468652077616c6c657400604082015260600190565b6020808252601d908201527f416464726573733a2063616c6c20746f206e6f6e2d636f6e7472616374000000604082015260600190565b6020808252602a908201527f5361666545524332303a204552433230206f7065726174696f6e20646964206e60408201527f6f74207375636365656400000000000000000000000000000000000000000000606082015260800190565b6020808252601f908201527f5265656e7472616e637947756172643a207265656e7472616e742063616c6c00604082015260600190565b60208082526030908201527f416d6f756e74206d7573742062652067726561746572206f7220657175616c2060408201527f746f207374616b656420616d6f756e7400000000000000000000000000000000606082015260800190565b90815260200190565b6000821982111561119e5761119e611225565b500190565b6000826111be57634e487b7160e01b81526012600452602481fd5b500490565b60008160001904831182151516156111dd576111dd611225565b500290565b6000828210156111f4576111f4611225565b500390565b60005b838110156112145781810151838201526020016111fc565b83811115610b1a5750506000910152565b634e487b7160e01b600052601160045260246000fdfea2646970667358221220a237b8b1da4557cb46ec6c2cf42c9180aa7e29f82a4874b0ec8111507cd3074d64736f6c63430008000033",
  "devdoc": {
    "kind": "dev",
    "methods": {
      "owner()": {
        "details": "Returns the address of the current owner."
      },
      "paused()": {
        "details": "Returns true if the contract is paused, and false otherwise."
      },
      "renounceOwnership()": {
        "details": "Leaves the contract without owner. It will not be possible to call `onlyOwner` functions anymore. Can only be called by the current owner. NOTE: Renouncing ownership will leave the contract without an owner, thereby removing any functionality that is only available to the owner."
      },
      "transferOwnership(address)": {
        "details": "Transfers ownership of the contract to a new account (`newOwner`). Can only be called by the current owner."
      }
    },
    "version": 1
  },
  "userdoc": {
    "kind": "user",
    "methods": {},
    "version": 1
  },
  "storageLayout": {
    "storage": [
      {
        "astId": 206,
        "contract": "contracts/staking/StakingReward.sol:StakingRewards",
        "label": "_status",
        "offset": 0,
        "slot": "0",
        "type": "t_uint256"
      },
      {
        "astId": 121,
        "contract": "contracts/staking/StakingReward.sol:StakingRewards",
        "label": "_paused",
        "offset": 0,
        "slot": "1",
        "type": "t_bool"
      },
      {
        "astId": 7,
        "contract": "contracts/staking/StakingReward.sol:StakingRewards",
        "label": "_owner",
        "offset": 1,
        "slot": "1",
        "type": "t_address"
      },
      {
        "astId": 2641,
        "contract": "contracts/staking/StakingReward.sol:StakingRewards",
        "label": "_baseToken",
        "offset": 0,
        "slot": "2",
        "type": "t_contract(IERC20)859"
      },
      {
        "astId": 2644,
        "contract": "contracts/staking/StakingReward.sol:StakingRewards",
        "label": "_rewardTreasury",
        "offset": 0,
        "slot": "3",
        "type": "t_contract(IRewardTreasury)2209"
      },
      {
        "astId": 2647,
        "contract": "contracts/staking/StakingReward.sol:StakingRewards",
        "label": "_loyaltyProgram",
        "offset": 0,
        "slot": "4",
        "type": "t_contract(ILoyaltyProgram)2189"
      },
      {
        "astId": 2649,
        "contract": "contracts/staking/StakingReward.sol:StakingRewards",
        "label": "_totalStaked",
        "offset": 0,
        "slot": "5",
        "type": "t_uint256"
      },
      {
        "astId": 2652,
        "contract": "contracts/staking/StakingReward.sol:StakingRewards",
        "label": "_minLockDays",
        "offset": 0,
        "slot": "6",
        "type": "t_uint256"
      },
      {
        "astId": 2656,
        "contract": "contracts/staking/StakingReward.sol:StakingRewards",
        "label": "_stakedBalances",
        "offset": 0,
        "slot": "7",
        "type": "t_mapping(t_address,t_uint256)"
      },
      {
        "astId": 2660,
        "contract": "contracts/staking/StakingReward.sol:StakingRewards",
        "label": "_rewardBalances",
        "offset": 0,
        "slot": "8",
        "type": "t_mapping(t_address,t_uint256)"
      },
      {
        "astId": 2664,
        "contract": "contracts/staking/StakingReward.sol:StakingRewards",
        "label": "_lastStakeTimes",
        "offset": 0,
        "slot": "9",
        "type": "t_mapping(t_address,t_uint256)"
      },
      {
        "astId": 2668,
        "contract": "contracts/staking/StakingReward.sol:StakingRewards",
        "label": "_lastWithdrawTimes",
        "offset": 0,
        "slot": "10",
        "type": "t_mapping(t_address,t_uint256)"
      },
      {
        "astId": 2672,
        "contract": "contracts/staking/StakingReward.sol:StakingRewards",
        "label": "_lastClaimTimes",
        "offset": 0,
        "slot": "11",
        "type": "t_mapping(t_address,t_uint256)"
      }
    ],
    "types": {
      "t_address": {
        "encoding": "inplace",
        "label": "address",
        "numberOfBytes": "20"
      },
      "t_bool": {
        "encoding": "inplace",
        "label": "bool",
        "numberOfBytes": "1"
      },
      "t_contract(IERC20)859": {
        "encoding": "inplace",
        "label": "contract IERC20",
        "numberOfBytes": "20"
      },
      "t_contract(ILoyaltyProgram)2189": {
        "encoding": "inplace",
        "label": "contract ILoyaltyProgram",
        "numberOfBytes": "20"
      },
      "t_contract(IRewardTreasury)2209": {
        "encoding": "inplace",
        "label": "contract IRewardTreasury",
        "numberOfBytes": "20"
      },
      "t_mapping(t_address,t_uint256)": {
        "encoding": "mapping",
        "key": "t_address",
        "label": "mapping(address => uint256)",
        "numberOfBytes": "32",
        "value": "t_uint256"
      },
      "t_uint256": {
        "encoding": "inplace",
        "label": "uint256",
        "numberOfBytes": "32"
      }
    }
  }
}