{
  "address": "0x9d4454B023096f34B160D6B654540c56A1F81688",
  "abi": [
    {
      "inputs": [
        {
          "internalType": "address",
          "name": "baseToken",
          "type": "address"
        },
        {
          "internalType": "address",
          "name": "rewardTreasury",
          "type": "address"
        },
        {
          "internalType": "address",
          "name": "loyaltyProgram",
          "type": "address"
        }
      ],
      "stateMutability": "nonpayable",
      "type": "constructor"
    },
    {
      "anonymous": false,
      "inputs": [
        {
          "indexed": true,
          "internalType": "address",
          "name": "account",
          "type": "address"
        },
        {
          "indexed": false,
          "internalType": "uint256",
          "name": "amount",
          "type": "uint256"
        }
      ],
      "name": "Claimed",
      "type": "event"
    },
    {
      "anonymous": false,
      "inputs": [
        {
          "indexed": true,
          "internalType": "address",
          "name": "previousOwner",
          "type": "address"
        },
        {
          "indexed": true,
          "internalType": "address",
          "name": "newOwner",
          "type": "address"
        }
      ],
      "name": "OwnershipTransferred",
      "type": "event"
    },
    {
      "anonymous": false,
      "inputs": [
        {
          "indexed": false,
          "internalType": "address",
          "name": "account",
          "type": "address"
        }
      ],
      "name": "Paused",
      "type": "event"
    },
    {
      "anonymous": false,
      "inputs": [
        {
          "indexed": true,
          "internalType": "address",
          "name": "account",
          "type": "address"
        },
        {
          "indexed": false,
          "internalType": "uint256",
          "name": "amount",
          "type": "uint256"
        },
        {
          "indexed": false,
          "internalType": "uint256",
          "name": "lockPeriod",
          "type": "uint256"
        }
      ],
      "name": "Staked",
      "type": "event"
    },
    {
      "anonymous": false,
      "inputs": [
        {
          "indexed": false,
          "internalType": "address",
          "name": "account",
          "type": "address"
        }
      ],
      "name": "Unpaused",
      "type": "event"
    },
    {
      "anonymous": false,
      "inputs": [
        {
          "indexed": true,
          "internalType": "address",
          "name": "account",
          "type": "address"
        },
        {
          "indexed": false,
          "internalType": "uint256",
          "name": "amount",
          "type": "uint256"
        }
      ],
      "name": "Withdrawn",
      "type": "event"
    },
    {
      "inputs": [],
      "name": "claim",
      "outputs": [],
      "stateMutability": "nonpayable",
      "type": "function"
    },
    {
      "inputs": [
        {
          "internalType": "address",
          "name": "account",
          "type": "address"
        }
      ],
      "name": "lastClaimedOf",
      "outputs": [
        {
          "internalType": "uint256",
          "name": "",
          "type": "uint256"
        }
      ],
      "stateMutability": "view",
      "type": "function"
    },
    {
      "inputs": [
        {
          "internalType": "address",
          "name": "account",
          "type": "address"
        }
      ],
      "name": "lastStakeTimeOf",
      "outputs": [
        {
          "internalType": "uint256",
          "name": "",
          "type": "uint256"
        }
      ],
      "stateMutability": "view",
      "type": "function"
    },
    {
      "inputs": [
        {
          "internalType": "address",
          "name": "account",
          "type": "address"
        }
      ],
      "name": "lastWithdrawTimeOf",
      "outputs": [
        {
          "internalType": "uint256",
          "name": "",
          "type": "uint256"
        }
      ],
      "stateMutability": "view",
      "type": "function"
    },
    {
      "inputs": [],
      "name": "owner",
      "outputs": [
        {
          "internalType": "address",
          "name": "",
          "type": "address"
        }
      ],
      "stateMutability": "view",
      "type": "function"
    },
    {
      "inputs": [],
      "name": "paused",
      "outputs": [
        {
          "internalType": "bool",
          "name": "",
          "type": "bool"
        }
      ],
      "stateMutability": "view",
      "type": "function"
    },
    {
      "inputs": [],
      "name": "renounceOwnership",
      "outputs": [],
      "stateMutability": "nonpayable",
      "type": "function"
    },
    {
      "inputs": [
        {
          "internalType": "address",
          "name": "account",
          "type": "address"
        }
      ],
      "name": "rewardBalanceOf",
      "outputs": [
        {
          "internalType": "uint256",
          "name": "",
          "type": "uint256"
        }
      ],
      "stateMutability": "view",
      "type": "function"
    },
    {
      "inputs": [
        {
          "internalType": "address",
          "name": "account",
          "type": "address"
        }
      ],
      "name": "rewardRateOf",
      "outputs": [
        {
          "internalType": "uint256",
          "name": "",
          "type": "uint256"
        }
      ],
      "stateMutability": "view",
      "type": "function"
    },
    {
      "inputs": [
        {
          "internalType": "uint256",
          "name": "amount",
          "type": "uint256"
        },
        {
          "internalType": "uint256",
          "name": "lockPeriod",
          "type": "uint256"
        }
      ],
      "name": "stake",
      "outputs": [],
      "stateMutability": "nonpayable",
      "type": "function"
    },
    {
      "inputs": [
        {
          "internalType": "address",
          "name": "account",
          "type": "address"
        }
      ],
      "name": "stakedBalanceOf",
      "outputs": [
        {
          "internalType": "uint256",
          "name": "",
          "type": "uint256"
        }
      ],
      "stateMutability": "view",
      "type": "function"
    },
    {
      "inputs": [
        {
          "internalType": "address",
          "name": "account",
          "type": "address"
        }
      ],
      "name": "totalClaimedOf",
      "outputs": [
        {
          "internalType": "uint256",
          "name": "",
          "type": "uint256"
        }
      ],
      "stateMutability": "view",
      "type": "function"
    },
    {
      "inputs": [],
      "name": "totalStakedBalances",
      "outputs": [
        {
          "internalType": "uint256",
          "name": "",
          "type": "uint256"
        }
      ],
      "stateMutability": "view",
      "type": "function"
    },
    {
      "inputs": [
        {
          "internalType": "address",
          "name": "newOwner",
          "type": "address"
        }
      ],
      "name": "transferOwnership",
      "outputs": [],
      "stateMutability": "nonpayable",
      "type": "function"
    },
    {
      "inputs": [],
      "name": "treasurySupply",
      "outputs": [
        {
          "internalType": "uint256",
          "name": "",
          "type": "uint256"
        }
      ],
      "stateMutability": "view",
      "type": "function"
    },
    {
      "inputs": [
        {
          "internalType": "uint256",
          "name": "amount",
          "type": "uint256"
        }
      ],
      "name": "withdraw",
      "outputs": [],
      "stateMutability": "nonpayable",
      "type": "function"
    }
  ],
  "transactionHash": "0xd9a8602daa72e47d48abc05ca1d92a389638e729fc258415660dea2a66620995",
  "args": [
    "0x4826533B4897376654Bb4d4AD88B7faFD0C98528",
    "0x0E801D84Fa97b50751Dbf25036d067dCf18858bF",
    "0x8f86403A4DE0BB5791fa46B8e795C547942fE4Cf"
  ],
  "solcInputHash": "2c0fa20bb470d6b3194cb3d0af6ff78b",
  "bytecode": "0x6080604052600260065561016d6007553480156200001c57600080fd5b50604051620017af380380620017af8339810160408190526200003f9162000113565b60016000818155815460ff191690915562000059620000f2565b60018054610100600160a81b0319166101006001600160a01b03841690810291909117909155604051919250906000907f8be0079c531659141344cd1fd0a4f28419497f9722a3daafe3b4186f6b6457e0908290a350600280546001600160a01b039485166001600160a01b0319918216179091556003805493851693821693909317909255600480549190931691161790556200015c565b3390565b80516001600160a01b03811681146200010e57600080fd5b919050565b60008060006060848603121562000128578283fd5b6200013384620000f6565b92506200014360208501620000f6565b91506200015360408501620000f6565b90509250925092565b611643806200016c6000396000f3fe608060405234801561001057600080fd5b50600436106101005760003560e01c80635fc1a4b8116100975780638da5cb5b116100665780638da5cb5b146101d7578063d6d789b7146101ec578063e964b644146101ff578063f2fde38b1461021257610100565b80635fc1a4b8146101a157806366f7ae70146101a9578063715018a6146101bc5780637b0472f0146101c457610100565b80634e71d92d116100d35780634e71d92d1461015e5780635175a7c9146101665780635b09c876146101795780635c975abb1461018c57610100565b806316765391146101055780632e1a7d4d1461012e57806339e47c831461014357806340d73f4714610156575b600080fd5b610118610113366004610f91565b610225565b604051610125919061146d565b60405180910390f35b61014161013c366004610fd8565b610240565b005b610118610151366004610f91565b6104a8565b6101186104c3565b6101416104c9565b610118610174366004610f91565b610640565b610118610187366004610f91565b61065b565b610194610661565b60405161012591906110c2565b61011861066a565b6101186101b7366004610f91565b6106f7565b6101416106fd565b6101416101d2366004611008565b610799565b6101df6109c7565b6040516101259190611071565b6101186101fa366004610f91565b6109db565b61011861020d366004610f91565b6109e2565b610141610220366004610f91565b610bc9565b6001600160a01b031660009081526008602052604090205490565b6002600054141561026c5760405162461bcd60e51b8152600401610263906113d9565b60405180910390fd5b6002600055610279610661565b156102965760405162461bcd60e51b81526004016102639061122a565b336102a0816109e2565b6001600160a01b038216600090815260096020526040902055816102d65760405162461bcd60e51b81526004016102639061115f565b816102e033610225565b10156102fe5760405162461bcd60e51b815260040161026390611410565b336000908152600a60205260409020541561036d57336000908152600b6020908152604080832054600a90925282205490919061033e90620151806114bc565b6103489083611484565b90508042101561036a5760405162461bcd60e51b815260040161026390611345565b50505b60055461037a9083610ca2565b600555336000908152600a6020908152604080832083905560089091529020546103a49083610ca2565b336000908152600860205260409081902091909155600254905163095ea7b360e01b81526001600160a01b039091169063095ea7b3906103ea90309086906004016110a9565b602060405180830381600087803b15801561040457600080fd5b505af1158015610418573d6000803e3d6000fd5b505050506040513d601f19601f8201168201806040525081019061043c9190610fb8565b50600254610455906001600160a01b0316303385610cb5565b336000818152600c602052604090819020429055517f7084f5476618d8e60b11ef0d7d3f06914655adb8793e28ff7f018d4c76d505d59061049790859061146d565b60405180910390a250506001600055565b6001600160a01b03166000908152600c602052604090205490565b60055490565b600260005414156104ec5760405162461bcd60e51b8152600401610263906113d9565b60026000556104f9610661565b156105165760405162461bcd60e51b81526004016102639061122a565b33610520816109e2565b6001600160a01b0382166000908152600960205260408082209290925533815220548061055f5760405162461bcd60e51b81526004016102639061115f565b8061056861066a565b10156105865760405162461bcd60e51b815260040161026390611296565b33600081815260096020526040808220919091556003549051635569f64b60e11b81526001600160a01b039091169163aad3ec96916105ca919085906004016110a9565b600060405180830381600087803b1580156105e457600080fd5b505af11580156105f8573d6000803e3d6000fd5b5050336000818152600d602052604090819020429055519092507fd8138f8a3f377c5259ca548e70e4c2de94f129f5a11036a15b69513cba2b426a915061049790849061146d565b6001600160a01b03166000908152600b602052604090205490565b50600f90565b60015460ff1690565b6002546003546040516370a0823160e01b81526000926001600160a01b03908116926370a08231926106a29290911690600401611071565b60206040518083038186803b1580156106ba57600080fd5b505afa1580156106ce573d6000803e3d6000fd5b505050506040513d601f19601f820116820180604052508101906106f29190610ff0565b905090565b50600a90565b610705610d40565b6001600160a01b03166107166109c7565b6001600160a01b03161461073c5760405162461bcd60e51b815260040161026390611261565b60015460405160009161010090046001600160a01b0316907f8be0079c531659141344cd1fd0a4f28419497f9722a3daafe3b4186f6b6457e0908390a36001805474ffffffffffffffffffffffffffffffffffffffff0019169055565b600260005414156107bc5760405162461bcd60e51b8152600401610263906113d9565b60026000556107c9610661565b156107e65760405162461bcd60e51b81526004016102639061122a565b336107f0816109e2565b6001600160a01b038216600090815260096020526040902055826108265760405162461bcd60e51b81526004016102639061115f565b6002546040516370a0823160e01b815284916001600160a01b0316906370a0823190610856903390600401611071565b60206040518083038186803b15801561086e57600080fd5b505afa158015610882573d6000803e3d6000fd5b505050506040513d601f19601f820116820180604052508101906108a69190610ff0565b10156108c45760405162461bcd60e51b8152600401610263906112d7565b60065482101580156108d857506007548211155b6108f45760405162461bcd60e51b815260040161026390611196565b6005546109019084610d44565b6005553360009081526008602052604090205461091e9084610d44565b33600090815260086020908152604080832093909355600a905220546109449083610d44565b336000818152600a6020526040902091909155600254610971916001600160a01b03909116903086610cb5565b336000818152600b602052604090819020429055517f1449c6dd7851abc30abf37f57715f492010519147cc2652fbc38202c18a6ee90906109b59086908690611476565b60405180910390a25050600160005550565b60015461010090046001600160a01b031690565b506103e890565b600480546040516327d4aec760e11b815260009283926001600160a01b031691634fa95d8e91610a1491879101611071565b60206040518083038186803b158015610a2c57600080fd5b505afa158015610a40573d6000803e3d6000fd5b505050506040513d601f19601f82011682018060405250810190610a649190610ff0565b90506000610a7184610225565b6001600160a01b0385166000908152600d602052604081205491925090610ab0576001600160a01b0385166000908152600b6020526040902054610aca565b6001600160a01b0385166000908152600d60205260409020545b90506000610ad84283610ca2565b90506000610af16064610aeb8688610d50565b90610d5c565b9050610b156040518060600160405280602381526020016115596023913942610d68565b610b376040518060600160405280602281526020016115ec6022913984610d68565b610b5960405180606001604052806022815260200161157c6022913983610d68565b610b7b60405180606001604052806027815260200161159e6027913982610d68565b610b9d6040518060600160405280602781526020016115c56027913985610d68565b610bbf6040518060600160405280602481526020016115356024913986610d68565b9695505050505050565b610bd1610d40565b6001600160a01b0316610be26109c7565b6001600160a01b031614610c085760405162461bcd60e51b815260040161026390611261565b6001600160a01b038116610c2e5760405162461bcd60e51b815260040161026390611102565b6001546040516001600160a01b0380841692610100900416907f8be0079c531659141344cd1fd0a4f28419497f9722a3daafe3b4186f6b6457e090600090a3600180546001600160a01b039092166101000274ffffffffffffffffffffffffffffffffffffffff0019909216919091179055565b6000610cae82846114db565b9392505050565b610d3a846323b872dd60e01b858585604051602401610cd693929190611085565b60408051601f198184030181529190526020810180517bffffffffffffffffffffffffffffffffffffffffffffffffffffffff167fffffffff0000000000000000000000000000000000000000000000000000000090931692909217909152610dc6565b50505050565b3390565b6000610cae8284611484565b6000610cae82846114bc565b6000610cae828461149c565b610dc28282604051602401610d7e9291906110e0565b60408051601f198184030181529190526020810180517bffffffffffffffffffffffffffffffffffffffffffffffffffffffff166309710a9d60e41b179052610e5a565b5050565b6000610e1b826040518060400160405280602081526020017f5361666545524332303a206c6f772d6c6576656c2063616c6c206661696c6564815250856001600160a01b0316610e7b9092919063ffffffff16565b805190915015610e555780806020019051810190610e399190610fb8565b610e555760405162461bcd60e51b81526004016102639061137c565b505050565b80516a636f6e736f6c652e6c6f67602083016000808483855afa5050505050565b6060610e8a8484600085610e92565b949350505050565b606082471015610eb45760405162461bcd60e51b8152600401610263906111cd565b610ebd85610f52565b610ed95760405162461bcd60e51b81526004016102639061130e565b600080866001600160a01b03168587604051610ef59190611055565b60006040518083038185875af1925050503d8060008114610f32576040519150601f19603f3d011682016040523d82523d6000602084013e610f37565b606091505b5091509150610f47828286610f58565b979650505050505050565b3b151590565b60608315610f67575081610cae565b825115610f775782518084602001fd5b8160405162461bcd60e51b815260040161026391906110cd565b600060208284031215610fa2578081fd5b81356001600160a01b0381168114610cae578182fd5b600060208284031215610fc9578081fd5b81518015158114610cae578182fd5b600060208284031215610fe9578081fd5b5035919050565b600060208284031215611001578081fd5b5051919050565b6000806040838503121561101a578081fd5b50508035926020909101359150565b600081518084526110418160208601602086016114f2565b601f01601f19169290920160200192915050565b600082516110678184602087016114f2565b9190910192915050565b6001600160a01b0391909116815260200190565b6001600160a01b039384168152919092166020820152604081019190915260600190565b6001600160a01b03929092168252602082015260400190565b901515815260200190565b600060208252610cae6020830184611029565b6000604082526110f36040830185611029565b90508260208301529392505050565b60208082526026908201527f4f776e61626c653a206e6577206f776e657220697320746865207a65726f206160408201527f6464726573730000000000000000000000000000000000000000000000000000606082015260800190565b6020808252601d908201527f416d6f756e74206d7573742062652067726561746572207468616e2030000000604082015260600190565b60208082526013908201527f496e76616c6964206c6f636b20706572696f6400000000000000000000000000604082015260600190565b60208082526026908201527f416464726573733a20696e73756666696369656e742062616c616e636520666f60408201527f722063616c6c0000000000000000000000000000000000000000000000000000606082015260800190565b60208082526010908201527f5061757361626c653a2070617573656400000000000000000000000000000000604082015260600190565b6020808252818101527f4f776e61626c653a2063616c6c6572206973206e6f7420746865206f776e6572604082015260600190565b60208082526021908201527f4e6f7420656e6f75676820746f6b656e7320696e2074686520747265617375726040820152607960f81b606082015260800190565b6020808252601f908201527f4e6f7420656e6f75676820746f6b656e7320696e207468652077616c6c657400604082015260600190565b6020808252601d908201527f416464726573733a2063616c6c20746f206e6f6e2d636f6e7472616374000000604082015260600190565b60208082526018908201527f4c6f636b20706572696f64206e6f742065786365656465640000000000000000604082015260600190565b6020808252602a908201527f5361666545524332303a204552433230206f7065726174696f6e20646964206e60408201527f6f74207375636365656400000000000000000000000000000000000000000000606082015260800190565b6020808252601f908201527f5265656e7472616e637947756172643a207265656e7472616e742063616c6c00604082015260600190565b60208082526030908201527f416d6f756e74206d7573742062652067726561746572206f7220657175616c2060408201527f746f207374616b656420616d6f756e7400000000000000000000000000000000606082015260800190565b90815260200190565b918252602082015260400190565b600082198211156114975761149761151e565b500190565b6000826114b757634e487b7160e01b81526012600452602481fd5b500490565b60008160001904831182151516156114d6576114d661151e565b500290565b6000828210156114ed576114ed61151e565b500390565b60005b8381101561150d5781810151838201526020016114f5565b83811115610d3a5750506000910152565b634e487b7160e01b600052601160045260246000fdfe232323232323232323232323232072657761726452617465202323232323232323232323232323232323232323232323232074696d657374616d70202323232323232323232323232323232323232323232323232074696d6544696666202323232323232323232323232323232323232323232323232072657761726442616c616e636520232323232323232323232323232323232323232323232323207374616b656442616c616e636520232323232323232323232323232323232323232323232323206c61737454696d65202323232323232323232323a2646970667358221220e9a15bf57a6e967e0ccc49e335d5a2791de66b7a1226834f86e1ef025f63556764736f6c63430008000033",
  "devdoc": {
    "kind": "dev",
    "methods": {
      "owner()": {
        "details": "Returns the address of the current owner."
      },
      "paused()": {
        "details": "Returns true if the contract is paused, and false otherwise."
      },
      "renounceOwnership()": {
        "details": "Leaves the contract without owner. It will not be possible to call `onlyOwner` functions anymore. Can only be called by the current owner. NOTE: Renouncing ownership will leave the contract without an owner, thereby removing any functionality that is only available to the owner."
      },
      "transferOwnership(address)": {
        "details": "Transfers ownership of the contract to a new account (`newOwner`). Can only be called by the current owner."
      }
    },
    "version": 1
  },
  "userdoc": {
    "kind": "user",
    "methods": {},
    "version": 1
  },
  "storageLayout": {
    "storage": [
      {
        "astId": 212,
        "contract": "contracts/staking/StakingReward.sol:StakingRewards",
        "label": "_status",
        "offset": 0,
        "slot": "0",
        "type": "t_uint256"
      },
      {
        "astId": 127,
        "contract": "contracts/staking/StakingReward.sol:StakingRewards",
        "label": "_paused",
        "offset": 0,
        "slot": "1",
        "type": "t_bool"
      },
      {
        "astId": 7,
        "contract": "contracts/staking/StakingReward.sol:StakingRewards",
        "label": "_owner",
        "offset": 1,
        "slot": "1",
        "type": "t_address"
      },
      {
        "astId": 2333,
        "contract": "contracts/staking/StakingReward.sol:StakingRewards",
        "label": "_baseToken",
        "offset": 0,
        "slot": "2",
        "type": "t_contract(IERC20)826"
      },
      {
        "astId": 2336,
        "contract": "contracts/staking/StakingReward.sol:StakingRewards",
        "label": "_rewardTreasury",
        "offset": 0,
        "slot": "3",
        "type": "t_contract(IRewardTreasury)2162"
      },
      {
        "astId": 2339,
        "contract": "contracts/staking/StakingReward.sol:StakingRewards",
        "label": "_loyaltyProgram",
        "offset": 0,
        "slot": "4",
        "type": "t_contract(ILoyaltyProgram)2142"
      },
      {
        "astId": 2341,
        "contract": "contracts/staking/StakingReward.sol:StakingRewards",
        "label": "_totalStaked",
        "offset": 0,
        "slot": "5",
        "type": "t_uint256"
      },
      {
        "astId": 2344,
        "contract": "contracts/staking/StakingReward.sol:StakingRewards",
        "label": "_minLockDays",
        "offset": 0,
        "slot": "6",
        "type": "t_uint256"
      },
      {
        "astId": 2347,
        "contract": "contracts/staking/StakingReward.sol:StakingRewards",
        "label": "_maxLockDays",
        "offset": 0,
        "slot": "7",
        "type": "t_uint256"
      },
      {
        "astId": 2351,
        "contract": "contracts/staking/StakingReward.sol:StakingRewards",
        "label": "_stakedBalances",
        "offset": 0,
        "slot": "8",
        "type": "t_mapping(t_address,t_uint256)"
      },
      {
        "astId": 2355,
        "contract": "contracts/staking/StakingReward.sol:StakingRewards",
        "label": "_rewardBalances",
        "offset": 0,
        "slot": "9",
        "type": "t_mapping(t_address,t_uint256)"
      },
      {
        "astId": 2359,
        "contract": "contracts/staking/StakingReward.sol:StakingRewards",
        "label": "_lockPeriods",
        "offset": 0,
        "slot": "10",
        "type": "t_mapping(t_address,t_uint256)"
      },
      {
        "astId": 2363,
        "contract": "contracts/staking/StakingReward.sol:StakingRewards",
        "label": "_lastStakeTimes",
        "offset": 0,
        "slot": "11",
        "type": "t_mapping(t_address,t_uint256)"
      },
      {
        "astId": 2367,
        "contract": "contracts/staking/StakingReward.sol:StakingRewards",
        "label": "_lastWithdrawTimes",
        "offset": 0,
        "slot": "12",
        "type": "t_mapping(t_address,t_uint256)"
      },
      {
        "astId": 2371,
        "contract": "contracts/staking/StakingReward.sol:StakingRewards",
        "label": "_lastClaimTimes",
        "offset": 0,
        "slot": "13",
        "type": "t_mapping(t_address,t_uint256)"
      }
    ],
    "types": {
      "t_address": {
        "encoding": "inplace",
        "label": "address",
        "numberOfBytes": "20"
      },
      "t_bool": {
        "encoding": "inplace",
        "label": "bool",
        "numberOfBytes": "1"
      },
      "t_contract(IERC20)826": {
        "encoding": "inplace",
        "label": "contract IERC20",
        "numberOfBytes": "20"
      },
      "t_contract(ILoyaltyProgram)2142": {
        "encoding": "inplace",
        "label": "contract ILoyaltyProgram",
        "numberOfBytes": "20"
      },
      "t_contract(IRewardTreasury)2162": {
        "encoding": "inplace",
        "label": "contract IRewardTreasury",
        "numberOfBytes": "20"
      },
      "t_mapping(t_address,t_uint256)": {
        "encoding": "mapping",
        "key": "t_address",
        "label": "mapping(address => uint256)",
        "numberOfBytes": "32",
        "value": "t_uint256"
      },
      "t_uint256": {
        "encoding": "inplace",
        "label": "uint256",
        "numberOfBytes": "32"
      }
    }
  }
}