{
  "address": "0x24FdBF97A95d425E2e53D1d35C4920c82Ba784f1",
  "abi": [
    {
      "inputs": [
        {
          "internalType": "contract IERC20",
          "name": "_rewardToken",
          "type": "address"
        },
        {
          "internalType": "contract IERC20",
          "name": "_lpToken",
          "type": "address"
        },
        {
          "internalType": "address",
          "name": "_rewardTreasury",
          "type": "address"
        },
        {
          "internalType": "uint256",
          "name": "_baseAPY",
          "type": "uint256"
        }
      ],
      "stateMutability": "nonpayable",
      "type": "constructor"
    },
    {
      "anonymous": false,
      "inputs": [
        {
          "indexed": true,
          "internalType": "address",
          "name": "user",
          "type": "address"
        },
        {
          "indexed": false,
          "internalType": "uint256",
          "name": "amount",
          "type": "uint256"
        }
      ],
      "name": "Claim",
      "type": "event"
    },
    {
      "anonymous": false,
      "inputs": [
        {
          "indexed": true,
          "internalType": "address",
          "name": "user",
          "type": "address"
        },
        {
          "indexed": false,
          "internalType": "uint256",
          "name": "amount",
          "type": "uint256"
        },
        {
          "indexed": true,
          "internalType": "address",
          "name": "to",
          "type": "address"
        }
      ],
      "name": "Deposit",
      "type": "event"
    },
    {
      "anonymous": false,
      "inputs": [
        {
          "indexed": true,
          "internalType": "address",
          "name": "user",
          "type": "address"
        },
        {
          "indexed": false,
          "internalType": "uint256",
          "name": "amount",
          "type": "uint256"
        },
        {
          "indexed": true,
          "internalType": "address",
          "name": "to",
          "type": "address"
        }
      ],
      "name": "EmergencyWithdraw",
      "type": "event"
    },
    {
      "anonymous": false,
      "inputs": [
        {
          "indexed": true,
          "internalType": "address",
          "name": "wallet",
          "type": "address"
        }
      ],
      "name": "LogRewardTreasury",
      "type": "event"
    },
    {
      "anonymous": false,
      "inputs": [
        {
          "indexed": true,
          "internalType": "address",
          "name": "user",
          "type": "address"
        },
        {
          "indexed": false,
          "internalType": "uint256",
          "name": "lastRewardTime",
          "type": "uint256"
        },
        {
          "indexed": false,
          "internalType": "uint256",
          "name": "amount",
          "type": "uint256"
        },
        {
          "indexed": false,
          "internalType": "uint256",
          "name": "accRewardPerShare",
          "type": "uint256"
        }
      ],
      "name": "LogUpdate",
      "type": "event"
    },
    {
      "anonymous": false,
      "inputs": [
        {
          "indexed": true,
          "internalType": "address",
          "name": "previousOwner",
          "type": "address"
        },
        {
          "indexed": true,
          "internalType": "address",
          "name": "newOwner",
          "type": "address"
        }
      ],
      "name": "OwnershipTransferred",
      "type": "event"
    },
    {
      "anonymous": false,
      "inputs": [
        {
          "indexed": false,
          "internalType": "address",
          "name": "account",
          "type": "address"
        }
      ],
      "name": "Paused",
      "type": "event"
    },
    {
      "anonymous": false,
      "inputs": [
        {
          "indexed": false,
          "internalType": "address",
          "name": "account",
          "type": "address"
        }
      ],
      "name": "Unpaused",
      "type": "event"
    },
    {
      "anonymous": false,
      "inputs": [
        {
          "indexed": true,
          "internalType": "address",
          "name": "user",
          "type": "address"
        },
        {
          "indexed": false,
          "internalType": "uint256",
          "name": "amount",
          "type": "uint256"
        },
        {
          "indexed": true,
          "internalType": "address",
          "name": "to",
          "type": "address"
        }
      ],
      "name": "Withdraw",
      "type": "event"
    },
    {
      "inputs": [],
      "name": "APY_ACCURACY",
      "outputs": [
        {
          "internalType": "uint256",
          "name": "",
          "type": "uint256"
        }
      ],
      "stateMutability": "view",
      "type": "function"
    },
    {
      "inputs": [],
      "name": "availableReward",
      "outputs": [
        {
          "internalType": "uint256",
          "name": "rewardInTreasury",
          "type": "uint256"
        },
        {
          "internalType": "uint256",
          "name": "rewardAllowedForThisPool",
          "type": "uint256"
        }
      ],
      "stateMutability": "view",
      "type": "function"
    },
    {
      "inputs": [],
      "name": "baseAPY",
      "outputs": [
        {
          "internalType": "uint256",
          "name": "",
          "type": "uint256"
        }
      ],
      "stateMutability": "view",
      "type": "function"
    },
    {
      "inputs": [
        {
          "internalType": "address",
          "name": "to",
          "type": "address"
        }
      ],
      "name": "claim",
      "outputs": [],
      "stateMutability": "nonpayable",
      "type": "function"
    },
    {
      "inputs": [
        {
          "internalType": "uint256",
          "name": "amount",
          "type": "uint256"
        },
        {
          "internalType": "address",
          "name": "to",
          "type": "address"
        }
      ],
      "name": "deposit",
      "outputs": [],
      "stateMutability": "nonpayable",
      "type": "function"
    },
    {
      "inputs": [
        {
          "internalType": "address",
          "name": "to",
          "type": "address"
        }
      ],
      "name": "emergencyWithdraw",
      "outputs": [],
      "stateMutability": "nonpayable",
      "type": "function"
    },
    {
      "inputs": [],
      "name": "lpToken",
      "outputs": [
        {
          "internalType": "contract IERC20",
          "name": "",
          "type": "address"
        }
      ],
      "stateMutability": "view",
      "type": "function"
    },
    {
      "inputs": [],
      "name": "owner",
      "outputs": [
        {
          "internalType": "address",
          "name": "",
          "type": "address"
        }
      ],
      "stateMutability": "view",
      "type": "function"
    },
    {
      "inputs": [],
      "name": "paused",
      "outputs": [
        {
          "internalType": "bool",
          "name": "",
          "type": "bool"
        }
      ],
      "stateMutability": "view",
      "type": "function"
    },
    {
      "inputs": [
        {
          "internalType": "address",
          "name": "_user",
          "type": "address"
        }
      ],
      "name": "pendingReward",
      "outputs": [
        {
          "internalType": "uint256",
          "name": "pending",
          "type": "uint256"
        }
      ],
      "stateMutability": "view",
      "type": "function"
    },
    {
      "inputs": [],
      "name": "renounceOwnership",
      "outputs": [],
      "stateMutability": "nonpayable",
      "type": "function"
    },
    {
      "inputs": [
        {
          "internalType": "address",
          "name": "_user",
          "type": "address"
        }
      ],
      "name": "rewardAPY",
      "outputs": [
        {
          "internalType": "uint256",
          "name": "",
          "type": "uint256"
        }
      ],
      "stateMutability": "view",
      "type": "function"
    },
    {
      "inputs": [],
      "name": "rewardToken",
      "outputs": [
        {
          "internalType": "contract IERC20",
          "name": "",
          "type": "address"
        }
      ],
      "stateMutability": "view",
      "type": "function"
    },
    {
      "inputs": [],
      "name": "rewardTreasury",
      "outputs": [
        {
          "internalType": "address",
          "name": "",
          "type": "address"
        }
      ],
      "stateMutability": "view",
      "type": "function"
    },
    {
      "inputs": [
        {
          "internalType": "uint256",
          "name": "_baseAPY",
          "type": "uint256"
        }
      ],
      "name": "setBaseAPY",
      "outputs": [],
      "stateMutability": "nonpayable",
      "type": "function"
    },
    {
      "inputs": [
        {
          "internalType": "address",
          "name": "_wallet",
          "type": "address"
        }
      ],
      "name": "setRewardTreasury",
      "outputs": [],
      "stateMutability": "nonpayable",
      "type": "function"
    },
    {
      "inputs": [
        {
          "internalType": "address",
          "name": "newOwner",
          "type": "address"
        }
      ],
      "name": "transferOwnership",
      "outputs": [],
      "stateMutability": "nonpayable",
      "type": "function"
    },
    {
      "inputs": [
        {
          "internalType": "address",
          "name": "_user",
          "type": "address"
        }
      ],
      "name": "update",
      "outputs": [],
      "stateMutability": "nonpayable",
      "type": "function"
    },
    {
      "inputs": [
        {
          "internalType": "address",
          "name": "",
          "type": "address"
        }
      ],
      "name": "userInfo",
      "outputs": [
        {
          "internalType": "uint256",
          "name": "amount",
          "type": "uint256"
        },
        {
          "internalType": "int256",
          "name": "rewardDebt",
          "type": "int256"
        },
        {
          "internalType": "uint256",
          "name": "lastDepositedAt",
          "type": "uint256"
        },
        {
          "internalType": "uint256",
          "name": "accRewardPerShare",
          "type": "uint256"
        },
        {
          "internalType": "uint256",
          "name": "lastRewardTime",
          "type": "uint256"
        }
      ],
      "stateMutability": "view",
      "type": "function"
    },
    {
      "inputs": [
        {
          "internalType": "uint256",
          "name": "amount",
          "type": "uint256"
        },
        {
          "internalType": "address",
          "name": "to",
          "type": "address"
        }
      ],
      "name": "withdraw",
      "outputs": [],
      "stateMutability": "nonpayable",
      "type": "function"
    }
  ],
  "transactionHash": "0xd7114eaeb4948867ce083bdac869845561e614b1f43ee245db49669427573e44",
  "args": [
    "0xa9f31589E0a8c0b12068329736ed6385A8F77b62",
    "0xa9f31589E0a8c0b12068329736ed6385A8F77b62",
    "0xD63A987AA4CdA0b71BbFeD8aE1E7EB4329E65016",
    1000
  ],
  "solcInputHash": "bd774f397bdea0f0e58c66ee83e9468b",
  "bytecode": "0x60806040523480156200001157600080fd5b5060405162001a4238038062001a428339810160408190526200003491620000ee565b60016000818155815460ff19169091556200004e620000ea565b60018054610100600160a81b0319166101006001600160a01b03841690810291909117909155604051919250906000907f8be0079c531659141344cd1fd0a4f28419497f9722a3daafe3b4186f6b6457e0908290a350600280546001600160a01b03199081166001600160a01b039687161790915560038054821694861694909417909355600480549093169190931617905560055562000160565b3390565b6000806000806080858703121562000104578384fd5b8451620001118162000147565b6020860151909450620001248162000147565b6040860151909350620001378162000147565b6060959095015193969295505050565b6001600160a01b03811681146200015d57600080fd5b50565b6118d280620001706000396000f3fe608060405234801561001057600080fd5b506004361061016b5760003560e01c80636e553f65116100cd578063a493415f11610081578063f2fde38b11610066578063f2fde38b146102ac578063f40f0f52146102bf578063f7c618c1146102d25761016b565b8063a493415f14610291578063c7c934a1146102a45761016b565b8063715018a6116100b2578063715018a61461026e578063763c494b146102765780638da5cb5b146102895761016b565b80636e553f65146102485780636ff1c9bc1461025b5761016b565b80634ad84b34116101245780635c975abb116101095780635c975abb1461020b5780635ee6efd0146102205780635fcbd285146102335761016b565b80634ad84b34146101ed57806354709764146102035761016b565b80631c1b8772116101555780631c1b8772146101b25780631e83409a146101c5578063214405a9146101d85761016b565b8062f714ce146101705780631959a00214610185575b600080fd5b61018361017e366004611341565b6102da565b005b6101986101933660046112d6565b6104a0565b6040516101a9959493929190611829565b60405180910390f35b6101836101c03660046112d6565b6104cf565b6101836101d33660046112d6565b6105e3565b6101e0610702565b6040516101a99190611820565b6101f5610708565b6040516101a992919061184c565b6101e061081f565b610213610825565b6040516101a991906113f4565b61018361022e366004611311565b61082e565b61023b610872565b6040516101a99190611389565b610183610256366004611341565b610881565b6101836102693660046112d6565b6109a4565b610183610a6a565b6101e06102843660046112d6565b610aa9565b61023b610ada565b61018361029f3660046112d6565b610aee565b61023b610b8f565b6101836102ba3660046112d6565b610b9e565b6101e06102cd3660046112d6565b610c81565b61023b610db8565b600260005414156103065760405162461bcd60e51b81526004016102fd906117e9565b60405180910390fd5b6002600055610313610825565b156103305760405162461bcd60e51b81526004016102fd906115d2565b610339816104cf565b3360009081526006602052604081206003810154815491929164e8d4a51000916103639190610dc7565b8161036a57fe5b049050600061038e610389846001015484610e0a90919063ffffffff16565b610e50565b90506103c064e8d4a510006103b0856003015488610dc790919063ffffffff16565b816103b757fe5b84919004610e0a565b600184015582546103d19086610e76565b83556004546002546103f1916001600160a01b0391821691168684610e9e565b600354610408906001600160a01b03168587610f29565b836001600160a01b0316336001600160a01b03167f56c54ba9bd38d8fd62012e42c7ee564519b09763c426d331b3661b537ead19b28760405161044b9190611820565b60405180910390a3336001600160a01b03167f47cee97cb7acd717b3c0aa1435d004cd5b3c8c57d70dbceb4e4458bbd60e39d48260405161048c9190611820565b60405180910390a250506001600055505050565b600660205260009081526040902080546001820154600283015460038401546004909401549293919290919085565b6001600160a01b0381166000908152600660205260408120906104f183610aa9565b905081600401544211156105de5781541561058857600061051f836004015442610e7690919063ffffffff16565b905060006105616301e1338061055b61271061055b8761055564e8d4a510006105558a8d60000154610dc790919063ffffffff16565b90610dc7565b90610f48565b845490915061058090610575908390610f48565b600386015490610f7a565b600385015550505b4260048301819055825460038401546040516001600160a01b038716937f029af3fb3c244c9fb9fd3c42dbd1e98392f2f98d6b6fb32304ad04382d4a5e80936105d593919290919061185a565b60405180910390a25b505050565b600260005414156106065760405162461bcd60e51b81526004016102fd906117e9565b6002600055610613610825565b156106305760405162461bcd60e51b81526004016102fd906115d2565b610639816104cf565b3360009081526006602052604081206003810154815491929164e8d4a51000916106639190610dc7565b8161066a57fe5b0490506000610689610389846001015484610e0a90919063ffffffff16565b60018401839055905080156106b6576004546002546106b6916001600160a01b0391821691168684610e9e565b336001600160a01b03167f47cee97cb7acd717b3c0aa1435d004cd5b3c8c57d70dbceb4e4458bbd60e39d4826040516106ef9190611820565b60405180910390a2505060016000555050565b60055481565b600254600480546040516370a0823160e01b815260009384936001600160a01b03918216936370a0823193610741939091169101611389565b60206040518083038186803b15801561075957600080fd5b505afa15801561076d573d6000803e3d6000fd5b505050506040513d601f19601f820116820180604052508101906107919190611329565b60025460048054604051636eb1769f60e11b81529395506001600160a01b039283169363dd62ed3e936107c99392169130910161139d565b60206040518083038186803b1580156107e157600080fd5b505afa1580156107f5573d6000803e3d6000fd5b505050506040513d601f19601f820116820180604052508101906108199190611329565b90509091565b61271081565b60015460ff1690565b610836610f9f565b6001600160a01b0316610847610ada565b6001600160a01b03161461086d5760405162461bcd60e51b81526004016102fd9061167f565b600555565b6003546001600160a01b031681565b600260005414156108a45760405162461bcd60e51b81526004016102fd906117e9565b60026000556108b1610825565b156108ce5760405162461bcd60e51b81526004016102fd906115d2565b6108d7816104cf565b6001600160a01b038116600090815260066020526040902042600282015580546109019084610f7a565b815560038101546109329064e8d4a510009061091e908690610dc7565b8161092557fe5b6001840154919004610fa3565b600182015560035461094f906001600160a01b0316333086610e9e565b816001600160a01b0316336001600160a01b03167fe31c7b8d08ee7db0afa68782e1028ef92305caeea8626633ad44d413e30f6b2f856040516109929190611820565b60405180910390a35050600160005550565b600260005414156109c75760405162461bcd60e51b81526004016102fd906117e9565b60026000556109d4610825565b156109f15760405162461bcd60e51b81526004016102fd906115d2565b33600090815260066020526040812080548282556001820192909255600354909190610a27906001600160a01b03168483610f29565b826001600160a01b0316336001600160a01b03167faaeda929aa102e867049528ec7cd2499e3a2f8846e736ae7935f234dfbf500d9836040516109929190611820565b610a72610f9f565b6001600160a01b0316610a83610ada565b6001600160a01b03161461016b5760405162461bcd60e51b81526004016102fd9061167f565b600080610ab583610fe9565b9050610ad1600a61055b83600554610dc790919063ffffffff16565b9150505b919050565b60015461010090046001600160a01b031690565b610af6610f9f565b6001600160a01b0316610b07610ada565b6001600160a01b031614610b2d5760405162461bcd60e51b81526004016102fd9061167f565b600480547fffffffffffffffffffffffff0000000000000000000000000000000000000000166001600160a01b0383169081179091556040517ffdd8f4378171881d7612b21a5d9673d49f25072ed487831bb7baf1bdee37bf0290600090a250565b6004546001600160a01b031681565b610ba6610f9f565b6001600160a01b0316610bb7610ada565b6001600160a01b031614610bdd5760405162461bcd60e51b81526004016102fd9061167f565b6001600160a01b038116610c035760405162461bcd60e51b81526004016102fd90611432565b6001546040516001600160a01b0380841692610100900416907f8be0079c531659141344cd1fd0a4f28419497f9722a3daafe3b4186f6b6457e090600090a3600180546001600160a01b03909216610100027fffffffffffffffffffffff0000000000000000000000000000000000000000ff909216919091179055565b6000610c8b611290565b506001600160a01b0382166000908152600660209081526040808320815160a0810183528154815260018201549381019390935260028101549183019190915260038101546060830181905260049091015460808301529091610ced85610aa9565b9050826080015142118015610d025750825115155b15610d76576000610d20846080015142610e7690919063ffffffff16565b90506000610d566301e1338061055b61271061055b8761055564e8d4a510006105558a8e60000151610dc790919063ffffffff16565b9050610d7185600001518281610d6857fe5b86919004610f7a565b935050505b610daf6103898460200151610da9610da464e8d4a5100061055b888a60000151610dc790919063ffffffff16565b6110c3565b90610e0a565b95945050505050565b6002546001600160a01b031681565b600082610dd657506000610e04565b82820282848281610de357fe5b0414610e015760405162461bcd60e51b81526004016102fd9061163e565b90505b92915050565b6000818303818312801590610e1f5750838113155b80610e345750600083128015610e3457508381135b610e015760405162461bcd60e51b81526004016102fd90611748565b600080821215610e725760405162461bcd60e51b81526004016102fd90611609565b5090565b600082821115610e985760405162461bcd60e51b81526004016102fd90611507565b50900390565b610f23846323b872dd60e01b858585604051602401610ebf939291906113b7565b60408051601f198184030181529190526020810180517bffffffffffffffffffffffffffffffffffffffffffffffffffffffff167fffffffff00000000000000000000000000000000000000000000000000000000909316929092179091526110e8565b50505050565b6105de8363a9059cbb60e01b8484604051602401610ebf9291906113db565b6000808211610f695760405162461bcd60e51b81526004016102fd9061159b565b818381610f7257fe5b049392505050565b600082820183811015610e015760405162461bcd60e51b81526004016102fd9061148f565b3390565b6000828201818312801590610fb85750838112155b80610fcd5750600083128015610fcd57508381125b610e015760405162461bcd60e51b81526004016102fd906114c6565b6000610ff3611290565b506001600160a01b038216600090815260066020908152604091829020825160a08101845281548082526001830154938201939093526002820154938101939093526003810154606084015260040154608083015269010f0cf064dd592000001115611063576000915050610ad5565b805169032d26d12e980b6000001115611080576005915050610ad5565b80516907695a92c20d6fe00000111561109d57600a915050610ad5565b805169152d02c7e14af680000011156110ba57600f915050610ad5565b50601492915050565b6000600160ff1b8210610e725760405162461bcd60e51b81526004016102fd906116eb565b606061113d826040518060400160405280602081526020017f5361666545524332303a206c6f772d6c6576656c2063616c6c206661696c6564815250856001600160a01b03166111779092919063ffffffff16565b8051909150156105de578080602001905181019061115b91906112f1565b6105de5760405162461bcd60e51b81526004016102fd9061178c565b60606111868484600085611190565b90505b9392505050565b6060824710156111b25760405162461bcd60e51b81526004016102fd9061153e565b6111bb85611251565b6111d75760405162461bcd60e51b81526004016102fd906116b4565b60006060866001600160a01b031685876040516111f4919061136d565b60006040518083038185875af1925050503d8060008114611231576040519150601f19603f3d011682016040523d82523d6000602084013e611236565b606091505b5091509150611246828286611257565b979650505050505050565b3b151590565b60608315611266575081611189565b8251156112765782518084602001fd5b8160405162461bcd60e51b81526004016102fd91906113ff565b6040518060a0016040528060008152602001600081526020016000815260200160008152602001600081525090565b80356001600160a01b0381168114610e0457600080fd5b6000602082840312156112e7578081fd5b61118983836112bf565b600060208284031215611302578081fd5b81518015158114610e01578182fd5b600060208284031215611322578081fd5b5035919050565b60006020828403121561133a578081fd5b5051919050565b60008060408385031215611353578081fd5b8235915061136484602085016112bf565b90509250929050565b6000825161137f818460208701611870565b9190910192915050565b6001600160a01b0391909116815260200190565b6001600160a01b0392831681529116602082015260400190565b6001600160a01b039384168152919092166020820152604081019190915260600190565b6001600160a01b03929092168252602082015260400190565b901515815260200190565b600060208252825180602084015261141e816040850160208701611870565b601f01601f19169190910160400192915050565b60208082526026908201527f4f776e61626c653a206e6577206f776e657220697320746865207a65726f206160408201527f6464726573730000000000000000000000000000000000000000000000000000606082015260800190565b6020808252601b908201527f536166654d6174683a206164646974696f6e206f766572666c6f770000000000604082015260600190565b60208082526021908201527f5369676e6564536166654d6174683a206164646974696f6e206f766572666c6f6040820152607760f81b606082015260800190565b6020808252601e908201527f536166654d6174683a207375627472616374696f6e206f766572666c6f770000604082015260600190565b60208082526026908201527f416464726573733a20696e73756666696369656e742062616c616e636520666f60408201527f722063616c6c0000000000000000000000000000000000000000000000000000606082015260800190565b6020808252601a908201527f536166654d6174683a206469766973696f6e206279207a65726f000000000000604082015260600190565b60208082526010908201527f5061757361626c653a2070617573656400000000000000000000000000000000604082015260600190565b6020808252818101527f53616665436173743a2076616c7565206d75737420626520706f736974697665604082015260600190565b60208082526021908201527f536166654d6174683a206d756c7469706c69636174696f6e206f766572666c6f6040820152607760f81b606082015260800190565b6020808252818101527f4f776e61626c653a2063616c6c6572206973206e6f7420746865206f776e6572604082015260600190565b6020808252601d908201527f416464726573733a2063616c6c20746f206e6f6e2d636f6e7472616374000000604082015260600190565b60208082526028908201527f53616665436173743a2076616c756520646f65736e27742066697420696e206160408201527f6e20696e74323536000000000000000000000000000000000000000000000000606082015260800190565b60208082526024908201527f5369676e6564536166654d6174683a207375627472616374696f6e206f766572604082015263666c6f7760e01b606082015260800190565b6020808252602a908201527f5361666545524332303a204552433230206f7065726174696f6e20646964206e60408201527f6f74207375636365656400000000000000000000000000000000000000000000606082015260800190565b6020808252601f908201527f5265656e7472616e637947756172643a207265656e7472616e742063616c6c00604082015260600190565b90815260200190565b948552602085019390935260408401919091526060830152608082015260a00190565b918252602082015260400190565b9283526020830191909152604082015260600190565b60005b8381101561188b578181015183820152602001611873565b83811115610f23575050600091015256fea2646970667358221220164b8c5bd651f1546e9c7328c4ca0cd35b8f01400c052ae89337bdc3fb20ced564736f6c634300060c0033",
  "devdoc": {
    "details": "All function calls are currently implemented without side effects",
    "kind": "dev",
    "methods": {
      "availableReward()": {
        "returns": {
          "rewardAllowedForThisPool": "allowed reward amount to be spent by this pool",
          "rewardInTreasury": "reward amount in treasury"
        }
      },
      "claim(address)": {
        "details": "Here comes the formula to calculate reward token amount",
        "params": {
          "to": "Receiver of rewards."
        }
      },
      "constructor": {
        "params": {
          "_baseAPY": "The APY of reward to be distributed per second.",
          "_lpToken": "The staking contract address.",
          "_rewardToken": "The reward token contract address.",
          "_rewardTreasury": "The reward treasury contract address."
        }
      },
      "deposit(uint256,address)": {
        "params": {
          "amount": "LP token amount to deposit.",
          "to": "The receiver of `amount` deposit benefit."
        }
      },
      "emergencyWithdraw(address)": {
        "params": {
          "to": "Receiver of the LP tokens."
        }
      },
      "owner()": {
        "details": "Returns the address of the current owner."
      },
      "paused()": {
        "details": "Returns true if the contract is paused, and false otherwise."
      },
      "pendingReward(address)": {
        "details": "It doens't update accRewardPerShare, it's just a view function.",
        "params": {
          "_user": "Address of user."
        },
        "returns": {
          "pending": "reward for a given user."
        }
      },
      "renounceOwnership()": {
        "details": "Leaves the contract without owner. It will not be possible to call `onlyOwner` functions anymore. Can only be called by the current owner. NOTE: Renouncing ownership will leave the contract without an owner, thereby removing any functionality that is only available to the owner."
      },
      "rewardAPY(address)": {
        "returns": {
          "_0": "APY"
        }
      },
      "setBaseAPY(uint256)": {
        "details": "Its decimals count is ACC_REWARD_PRECISION",
        "params": {
          "_baseAPY": "The amount of reward to be distributed per second."
        }
      },
      "setRewardTreasury(address)": {
        "params": {
          "_wallet": "address that contains the rewards"
        }
      },
      "transferOwnership(address)": {
        "details": "Transfers ownership of the contract to a new account (`newOwner`). Can only be called by the current owner."
      },
      "update(address)": {
        "details": "Updates accRewardPerShare and lastRewardTime."
      },
      "withdraw(uint256,address)": {
        "params": {
          "amount": "LP token amount to withdraw.",
          "to": "Receiver of the LP tokens and rewards."
        }
      }
    },
    "title": "Staking Contract",
    "version": 1
  },
  "userdoc": {
    "kind": "user",
    "methods": {
      "availableReward()": {
        "notice": "return available reward amount"
      },
      "baseAPY()": {
        "notice": "APY."
      },
      "claim(address)": {
        "notice": "Claim rewards and send to `to`."
      },
      "deposit(uint256,address)": {
        "notice": "Deposit LP tokens for reward allocation."
      },
      "emergencyWithdraw(address)": {
        "notice": "Withdraw without caring about rewards. EMERGENCY ONLY."
      },
      "lpToken()": {
        "notice": "Address of the LP token."
      },
      "pendingReward(address)": {
        "notice": "View function to see pending reward on frontend."
      },
      "rewardAPY(address)": {
        "notice": "Caclulates the reward apy of the user"
      },
      "rewardToken()": {
        "notice": "Address of reward contract."
      },
      "rewardTreasury()": {
        "notice": "Reward treasury"
      },
      "setBaseAPY(uint256)": {
        "notice": "Sets the reward per second to be distributed. Can only be called by the owner."
      },
      "setRewardTreasury(address)": {
        "notice": "set reward wallet"
      },
      "update(address)": {
        "notice": "Update reward variables."
      },
      "userInfo(address)": {
        "notice": "Info of each user that stakes LP tokens."
      },
      "withdraw(uint256,address)": {
        "notice": "Withdraw LP tokens and harvest rewards to `to`."
      }
    },
    "notice": "You can use this contract for staking tokens and distribute rewards",
    "version": 1
  },
  "storageLayout": {
    "storage": [
      {
        "astId": 3043,
        "contract": "contracts/staking/Staking.sol:Staking",
        "label": "_status",
        "offset": 0,
        "slot": "0",
        "type": "t_uint256"
      },
      {
        "astId": 2958,
        "contract": "contracts/staking/Staking.sol:Staking",
        "label": "_paused",
        "offset": 0,
        "slot": "1",
        "type": "t_bool"
      },
      {
        "astId": 10,
        "contract": "contracts/staking/Staking.sol:Staking",
        "label": "_owner",
        "offset": 1,
        "slot": "1",
        "type": "t_address"
      },
      {
        "astId": 8500,
        "contract": "contracts/staking/Staking.sol:Staking",
        "label": "rewardToken",
        "offset": 0,
        "slot": "2",
        "type": "t_contract(IERC20)1306"
      },
      {
        "astId": 8503,
        "contract": "contracts/staking/Staking.sol:Staking",
        "label": "lpToken",
        "offset": 0,
        "slot": "3",
        "type": "t_contract(IERC20)1306"
      },
      {
        "astId": 8506,
        "contract": "contracts/staking/Staking.sol:Staking",
        "label": "rewardTreasury",
        "offset": 0,
        "slot": "4",
        "type": "t_address"
      },
      {
        "astId": 8509,
        "contract": "contracts/staking/Staking.sol:Staking",
        "label": "baseAPY",
        "offset": 0,
        "slot": "5",
        "type": "t_uint256"
      },
      {
        "astId": 8514,
        "contract": "contracts/staking/Staking.sol:Staking",
        "label": "userInfo",
        "offset": 0,
        "slot": "6",
        "type": "t_mapping(t_address,t_struct(UserInfo)8491_storage)"
      }
    ],
    "types": {
      "t_address": {
        "encoding": "inplace",
        "label": "address",
        "numberOfBytes": "20"
      },
      "t_bool": {
        "encoding": "inplace",
        "label": "bool",
        "numberOfBytes": "1"
      },
      "t_contract(IERC20)1306": {
        "encoding": "inplace",
        "label": "contract IERC20",
        "numberOfBytes": "20"
      },
      "t_int256": {
        "encoding": "inplace",
        "label": "int256",
        "numberOfBytes": "32"
      },
      "t_mapping(t_address,t_struct(UserInfo)8491_storage)": {
        "encoding": "mapping",
        "key": "t_address",
        "label": "mapping(address => struct Staking.UserInfo)",
        "numberOfBytes": "32",
        "value": "t_struct(UserInfo)8491_storage"
      },
      "t_struct(UserInfo)8491_storage": {
        "encoding": "inplace",
        "label": "struct Staking.UserInfo",
        "members": [
          {
            "astId": 8482,
            "contract": "contracts/staking/Staking.sol:Staking",
            "label": "amount",
            "offset": 0,
            "slot": "0",
            "type": "t_uint256"
          },
          {
            "astId": 8484,
            "contract": "contracts/staking/Staking.sol:Staking",
            "label": "rewardDebt",
            "offset": 0,
            "slot": "1",
            "type": "t_int256"
          },
          {
            "astId": 8486,
            "contract": "contracts/staking/Staking.sol:Staking",
            "label": "lastDepositedAt",
            "offset": 0,
            "slot": "2",
            "type": "t_uint256"
          },
          {
            "astId": 8488,
            "contract": "contracts/staking/Staking.sol:Staking",
            "label": "accRewardPerShare",
            "offset": 0,
            "slot": "3",
            "type": "t_uint256"
          },
          {
            "astId": 8490,
            "contract": "contracts/staking/Staking.sol:Staking",
            "label": "lastRewardTime",
            "offset": 0,
            "slot": "4",
            "type": "t_uint256"
          }
        ],
        "numberOfBytes": "160"
      },
      "t_uint256": {
        "encoding": "inplace",
        "label": "uint256",
        "numberOfBytes": "32"
      }
    }
  }
}