{
  "address": "0x9a49AD00950F1E2d08a08F0a5A2ed8B7630108f8",
  "abi": [
    {
      "inputs": [
        {
          "internalType": "address",
          "name": "_controller",
          "type": "address"
        },
        {
          "internalType": "address",
          "name": "_pool",
          "type": "address"
        }
      ],
      "stateMutability": "nonpayable",
      "type": "constructor"
    },
    {
      "anonymous": false,
      "inputs": [
        {
          "indexed": false,
          "internalType": "address",
          "name": "account",
          "type": "address"
        }
      ],
      "name": "Open",
      "type": "event"
    },
    {
      "anonymous": false,
      "inputs": [
        {
          "indexed": false,
          "internalType": "address",
          "name": "account",
          "type": "address"
        }
      ],
      "name": "Paused",
      "type": "event"
    },
    {
      "anonymous": false,
      "inputs": [
        {
          "indexed": false,
          "internalType": "address",
          "name": "account",
          "type": "address"
        }
      ],
      "name": "Shutdown",
      "type": "event"
    },
    {
      "anonymous": false,
      "inputs": [
        {
          "indexed": false,
          "internalType": "address",
          "name": "account",
          "type": "address"
        }
      ],
      "name": "Unpaused",
      "type": "event"
    },
    {
      "anonymous": false,
      "inputs": [
        {
          "indexed": true,
          "internalType": "address",
          "name": "previousSwapManager",
          "type": "address"
        },
        {
          "indexed": true,
          "internalType": "address",
          "name": "newSwapManager",
          "type": "address"
        }
      ],
      "name": "UpdatedSwapManager",
      "type": "event"
    },
    {
      "inputs": [],
      "name": "NAME",
      "outputs": [
        {
          "internalType": "string",
          "name": "",
          "type": "string"
        }
      ],
      "stateMutability": "view",
      "type": "function"
    },
    {
      "inputs": [],
      "name": "VERSION",
      "outputs": [
        {
          "internalType": "string",
          "name": "",
          "type": "string"
        }
      ],
      "stateMutability": "view",
      "type": "function"
    },
    {
      "inputs": [],
      "name": "approveToken",
      "outputs": [],
      "stateMutability": "nonpayable",
      "type": "function"
    },
    {
      "inputs": [],
      "name": "beforeWithdraw",
      "outputs": [],
      "stateMutability": "nonpayable",
      "type": "function"
    },
    {
      "inputs": [],
      "name": "collateralToken",
      "outputs": [
        {
          "internalType": "contract IERC20",
          "name": "",
          "type": "address"
        }
      ],
      "stateMutability": "view",
      "type": "function"
    },
    {
      "inputs": [],
      "name": "controller",
      "outputs": [
        {
          "internalType": "contract IController",
          "name": "",
          "type": "address"
        }
      ],
      "stateMutability": "view",
      "type": "function"
    },
    {
      "inputs": [
        {
          "internalType": "uint256",
          "name": "amount",
          "type": "uint256"
        }
      ],
      "name": "convertFrom18",
      "outputs": [
        {
          "internalType": "uint256",
          "name": "",
          "type": "uint256"
        }
      ],
      "stateMutability": "pure",
      "type": "function"
    },
    {
      "inputs": [],
      "name": "createKeeperList",
      "outputs": [],
      "stateMutability": "nonpayable",
      "type": "function"
    },
    {
      "inputs": [
        {
          "internalType": "uint256",
          "name": "_amount",
          "type": "uint256"
        }
      ],
      "name": "deposit",
      "outputs": [],
      "stateMutability": "nonpayable",
      "type": "function"
    },
    {
      "inputs": [],
      "name": "depositAll",
      "outputs": [],
      "stateMutability": "nonpayable",
      "type": "function"
    },
    {
      "inputs": [],
      "name": "interestEarned",
      "outputs": [
        {
          "internalType": "uint256",
          "name": "collateralEarned",
          "type": "uint256"
        }
      ],
      "stateMutability": "view",
      "type": "function"
    },
    {
      "inputs": [
        {
          "internalType": "address",
          "name": "_token",
          "type": "address"
        }
      ],
      "name": "isReservedToken",
      "outputs": [
        {
          "internalType": "bool",
          "name": "",
          "type": "bool"
        }
      ],
      "stateMutability": "view",
      "type": "function"
    },
    {
      "inputs": [],
      "name": "isUpgradable",
      "outputs": [
        {
          "internalType": "bool",
          "name": "",
          "type": "bool"
        }
      ],
      "stateMutability": "view",
      "type": "function"
    },
    {
      "inputs": [],
      "name": "keepers",
      "outputs": [
        {
          "internalType": "contract IAddressListExt",
          "name": "",
          "type": "address"
        }
      ],
      "stateMutability": "view",
      "type": "function"
    },
    {
      "inputs": [],
      "name": "migrateIn",
      "outputs": [],
      "stateMutability": "nonpayable",
      "type": "function"
    },
    {
      "inputs": [],
      "name": "migrateOut",
      "outputs": [],
      "stateMutability": "nonpayable",
      "type": "function"
    },
    {
      "inputs": [],
      "name": "pause",
      "outputs": [],
      "stateMutability": "nonpayable",
      "type": "function"
    },
    {
      "inputs": [],
      "name": "paused",
      "outputs": [
        {
          "internalType": "bool",
          "name": "",
          "type": "bool"
        }
      ],
      "stateMutability": "view",
      "type": "function"
    },
    {
      "inputs": [],
      "name": "pendingFee",
      "outputs": [
        {
          "internalType": "uint256",
          "name": "",
          "type": "uint256"
        }
      ],
      "stateMutability": "view",
      "type": "function"
    },
    {
      "inputs": [],
      "name": "pool",
      "outputs": [
        {
          "internalType": "address",
          "name": "",
          "type": "address"
        }
      ],
      "stateMutability": "view",
      "type": "function"
    },
    {
      "inputs": [],
      "name": "rebalance",
      "outputs": [],
      "stateMutability": "nonpayable",
      "type": "function"
    },
    {
      "inputs": [],
      "name": "receiptToken",
      "outputs": [
        {
          "internalType": "address",
          "name": "",
          "type": "address"
        }
      ],
      "stateMutability": "view",
      "type": "function"
    },
    {
      "inputs": [],
      "name": "resetApproval",
      "outputs": [],
      "stateMutability": "nonpayable",
      "type": "function"
    },
    {
      "inputs": [],
      "name": "stopEverything",
      "outputs": [
        {
          "internalType": "bool",
          "name": "",
          "type": "bool"
        }
      ],
      "stateMutability": "view",
      "type": "function"
    },
    {
      "inputs": [],
      "name": "swapManager",
      "outputs": [
        {
          "internalType": "contract ISwapManager",
          "name": "",
          "type": "address"
        }
      ],
      "stateMutability": "view",
      "type": "function"
    },
    {
      "inputs": [
        {
          "internalType": "address",
          "name": "_fromToken",
          "type": "address"
        }
      ],
      "name": "sweepErc20",
      "outputs": [],
      "stateMutability": "nonpayable",
      "type": "function"
    },
    {
      "inputs": [],
      "name": "token",
      "outputs": [
        {
          "internalType": "address",
          "name": "",
          "type": "address"
        }
      ],
      "stateMutability": "view",
      "type": "function"
    },
    {
      "inputs": [],
      "name": "totalLocked",
      "outputs": [
        {
          "internalType": "uint256",
          "name": "",
          "type": "uint256"
        }
      ],
      "stateMutability": "view",
      "type": "function"
    },
    {
      "inputs": [],
      "name": "unpause",
      "outputs": [],
      "stateMutability": "nonpayable",
      "type": "function"
    },
    {
      "inputs": [
        {
          "internalType": "address",
          "name": "_swapManager",
          "type": "address"
        }
      ],
      "name": "updateSwapManager",
      "outputs": [],
      "stateMutability": "nonpayable",
      "type": "function"
    },
    {
      "inputs": [
        {
          "internalType": "uint256",
          "name": "_amount",
          "type": "uint256"
        }
      ],
      "name": "withdraw",
      "outputs": [],
      "stateMutability": "nonpayable",
      "type": "function"
    },
    {
      "inputs": [],
      "name": "withdrawAll",
      "outputs": [],
      "stateMutability": "nonpayable",
      "type": "function"
    }
  ],
  "transactionHash": "0x239999c9b399d3aadf9219888d5e41e5fb621bcf1c9384b23212ac4c3043e290",
  "args": [
    "0xcF6Bd0eAcCA6600fB14470DFFA3615182258f48B",
    "0xAaD7328bCC81AC7D8ae9187d7F10B503E3d38Eb8"
  ],
  "solcInputHash": "49587f97439b83e0577b8db069569caf",
  "bytecode": "0x6101606040526000805462010000600160b01b03191675e382d9f2394a359b01006faa8a1864b8a60d271000001790553480156200003c57600080fd5b506040516200430a3803806200430a833981810160405260408110156200006257600080fd5b50805160209091015181817339aa39c021dfbae8fac545936693ac917d5e756373c00e94cb662c3520282e6f5717214004a7f26888733d9819210a31b4961b30ef54be2aed79b9c9cd3b8484846001600160a01b0383166200010b576040805162461bcd60e51b815260206004820152601a60248201527f636f6e74726f6c6c65722d616464726573732d69732d7a65726f000000000000604482015290519081900360640190fd5b826001600160a01b0316635b16ebb7836040518263ffffffff1660e01b815260040180826001600160a01b0316815260200191505060206040518083038186803b1580156200015957600080fd5b505afa1580156200016e573d6000803e3d6000fd5b505050506040513d60208110156200018557600080fd5b5051620001cc576040805162461bcd60e51b815260206004820152601060248201526f1b9bdd0b584b5d985b1a590b5c1bdbdb60821b604482015290519081900360640190fd5b6001600160601b0319606084811b821660805283901b1660e05260408051637e062a3560e11b815290516001600160a01b0384169163fc0c546a916004808301926020929190829003018186803b1580156200022757600080fd5b505afa1580156200023c573d6000803e3d6000fd5b505050506040513d60208110156200025357600080fd5b50516001600160601b0319606091821b811660a05291901b1660c05250506001600160a01b038216620002cd576040805162461bcd60e51b815260206004820152601b60248201527f526577617264546f6b656e2061646472657373206973207a65726f0000000000604482015290519081900360640190fd5b6001600160601b0319606093841b81166101005291831b82166101205290911b16610140525050505060805160601c60a05160601c60c05160601c60e05160601c6101005160601c6101205160601c6101405160601c613e2a620004e0600039806105db5280613074525080610696528061093d5280611db2528061314352806131e75250806109025280610b475280610bec5280610cc5528061199b5280611a255280611c805280611f5a528061201352806121955280612271528061245852806125ed5280612a175280612ad85280612c505280612ccc528061302652806133d952508061044952806104af52806108735280610c9b5280610e8b5280611456528061150c52806116335280611b145280611c2c52806120dc528061243052806127495280612806528061290d52806129f55280612a465280612b315280612c2652806132e05280613372528061347652806134f652806135a552806136555250806118e15250806106be5280610e5c52806111875280611604528061192c5280611b355280611bd65280611c0a5280611c5e5280612365528061240e528061276a5280613208528061323152806133a552508061046d528061055152806107f052806109875280610f265280610fa9528061103b528061110452806111ab52806116c2528061190552806120ad52806127d752806128de5280612b02528061332252806135d65250613e2a6000f3fe608060405234801561001057600080fd5b50600436106101f05760003560e01c8063853828b61161010f578063d9fe3eae116100a2578063f77c479111610071578063f77c479114610412578063fb589de21461041a578063fc0c546a14610437578063ffa1ad741461043f576101f0565b8063d9fe3eae146103d4578063de5f6268146103fa578063ea7c850214610402578063ec78e8321461040a576101f0565b8063b000c328116100de578063b000c3281461039f578063b2016bd4146103a7578063b3fc176c146103af578063b6b55f25146103b7576101f0565b8063853828b61461030a578063951dc22c1461031257806399b71d5c1461031a578063a3f4df7e14610322576101f0565b80634c36fad711610187578063643090bc11610156578063643090bc146102ea578063709d039d146102f25780637d7c2a1c146102fa5780638456cb5914610302576101f0565b80634c36fad7146102ac5780635479d940146102d257806356891412146102da5780635c975abb146102e2576101f0565b80633f4ba83a116101c35780633f4ba83a1461025a578063419f775314610262578063440d72481461026a5780634938649a146102a4576101f0565b806316f0115b146101f55780632e1a7d4d14610219578063330b8b7114610238578063374261ab14610240575b600080fd5b6101fd610447565b604080516001600160a01b039092168252519081900360200190f35b6102366004803603602081101561022f57600080fd5b503561046b565b005b61023661054f565b6102486105d6565b60408051918252519081900360200190f35b6102366107ee565b610236610871565b6102906004803603602081101561028057600080fd5b50356001600160a01b03166108fe565b604080519115158252519081900360200190f35b610290610977565b610236600480360360208110156102c257600080fd5b50356001600160a01b0316610985565b610290610b43565b610248610be4565b610290610d62565b610248610d6b565b6101fd610d71565b610236610d86565b610236610f24565b610236610fa7565b6101fd61102a565b610236611039565b61032a6110c9565b6040805160208082528351818301528351919283929083019185019080838360005b8381101561036457818101518382015260200161034c565b50505050905090810190601f1680156103915780820380516001836020036101000a031916815260200191505b509250505060405180910390f35b610236611102565b6101fd611185565b6102366111a9565b610236600480360360208110156103cd57600080fd5b503561122c565b610236600480360360208110156103ea57600080fd5b50356001600160a01b0316611307565b610236611535565b6102366116c0565b6101fd6118df565b6101fd611903565b6102486004803603602081101561043057600080fd5b5035611927565b6101fd61192a565b61032a61194e565b7f000000000000000000000000000000000000000000000000000000000000000081565b7f00000000000000000000000000000000000000000000000000000000000000006001600160a01b031661049d611987565b6001600160a01b031614806104ea57507f00000000000000000000000000000000000000000000000000000000000000006001600160a01b03166104df611987565b6001600160a01b0316145b61053b576040805162461bcd60e51b815260206004820152601860248201527f63616c6c65722d69732d6e6f742d617574686f72697a65640000000000000000604482015290519081900360640190fd5b61054361198b565b61054c81611a23565b50565b7f00000000000000000000000000000000000000000000000000000000000000006001600160a01b0316610581611987565b6001600160a01b0316146105ca576040805162461bcd60e51b815260206004820152601c6024820152600080516020613d9f833981519152604482015290519081900360640190fd5b6105d46000611bfd565b565b6000807f00000000000000000000000000000000000000000000000000000000000000006001600160a01b031663cc7ebdc4306040518263ffffffff1660e01b815260040180826001600160a01b0316815260200191505060206040518083038186803b15801561064657600080fd5b505afa15801561065a573d6000803e3d6000fd5b505050506040513d602081101561067057600080fd5b5051905080156107ea576000805460408051631d1f307960e31b81526001600160a01b037f0000000000000000000000000000000000000000000000000000000000000000811660048301527f000000000000000000000000000000000000000000000000000000000000000081166024830152604482018690529151620100009093049091169263e8f983c892606480840193829003018186803b15801561071857600080fd5b505afa15801561072c573d6000803e3d6000fd5b505050506040513d6000823e601f3d908101601f19168201604052606081101561075557600080fd5b810190808051604051939291908464010000000082111561077557600080fd5b90830190602082018581111561078a57600080fd5b82518660208202830111640100000000821117156107a757600080fd5b82525081516020918201928201910280838360005b838110156107d45781810151838201526020016107bc565b5050505091909101604052506020015194505050505b5090565b7f00000000000000000000000000000000000000000000000000000000000000006001600160a01b0316610820611987565b6001600160a01b031614610869576040805162461bcd60e51b815260206004820152601c6024820152600080516020613d9f833981519152604482015290519081900360640190fd5b6105d4611de1565b7f00000000000000000000000000000000000000000000000000000000000000006001600160a01b03166108a3611987565b6001600160a01b0316146105d4576040805162461bcd60e51b815260206004820152601660248201527f63616c6c65722d69732d6e6f742d7468652d706f6f6c00000000000000000000604482015290519081900360640190fd5b60007f00000000000000000000000000000000000000000000000000000000000000006001600160a01b0316826001600160a01b0316148061097157507f00000000000000000000000000000000000000000000000000000000000000006001600160a01b0316826001600160a01b0316145b92915050565b600054610100900460ff1681565b7f00000000000000000000000000000000000000000000000000000000000000006001600160a01b03166109b7611987565b6001600160a01b031614610a00576040805162461bcd60e51b815260206004820152601c6024820152600080516020613d9f833981519152604482015290519081900360640190fd5b6001600160a01b038116610a5b576040805162461bcd60e51b815260206004820152601260248201527f736d2d616464726573732d69732d7a65726f0000000000000000000000000000604482015290519081900360640190fd5b6000546001600160a01b0382811662010000909204161415610ac4576040805162461bcd60e51b815260206004820152600a60248201527f736d2d69732d73616d6500000000000000000000000000000000000000000000604482015290519081900360640190fd5b600080546040516001600160a01b03808516936201000090930416917f2d19927e7cac08ceb98b38898a4fdff6da6a27295b9a2d62fe250408ebe044e191a3600080546001600160a01b0390921662010000027fffffffffffffffffffff0000000000000000000000000000000000000000ffff909216919091179055565b60007f00000000000000000000000000000000000000000000000000000000000000006001600160a01b03166370a08231306040518263ffffffff1660e01b815260040180826001600160a01b0316815260200191505060206040518083038186803b158015610bb257600080fd5b505afa158015610bc6573d6000803e3d6000fd5b505050506040513d6020811015610bdc57600080fd5b505115905090565b600080610d407f00000000000000000000000000000000000000000000000000000000000000006001600160a01b03166370a08231306040518263ffffffff1660e01b815260040180826001600160a01b0316815260200191505060206040518083038186803b158015610c5757600080fd5b505afa158015610c6b573d6000803e3d6000fd5b505050506040513d6020811015610c8157600080fd5b5051604080516370a0823160e01b81526001600160a01b037f00000000000000000000000000000000000000000000000000000000000000008116600483015291517f0000000000000000000000000000000000000000000000000000000000000000909216916370a0823191602480820192602092909190829003018186803b158015610d0e57600080fd5b505afa158015610d22573d6000803e3d6000fd5b505050506040513d6020811015610d3857600080fd5b505190611ee5565b9050610d5c610d4d611f46565b610d5683612182565b906121ec565b91505090565b60005460ff1681565b60025481565b6000546201000090046001600160a01b031681565b6001546001600160a01b0316635dbe47e8610d9f611987565b6040518263ffffffff1660e01b815260040180826001600160a01b0316815260200191505060206040518083038186803b158015610ddc57600080fd5b505afa158015610df0573d6000803e3d6000fd5b505050506040513d6020811015610e0657600080fd5b5051610e50576040805162461bcd60e51b815260206004820152601460248201527331b0b63632b916b4b996b737ba16b5b2b2b832b960611b604482015290519081900360640190fd5b610e58612249565b60007f00000000000000000000000000000000000000000000000000000000000000006001600160a01b03166370a082317f00000000000000000000000000000000000000000000000000000000000000006040518263ffffffff1660e01b815260040180826001600160a01b0316815260200191505060206040518083038186803b158015610ee757600080fd5b505afa158015610efb573d6000803e3d6000fd5b505050506040513d6020811015610f1157600080fd5b50519050801561054c5761054c81612401565b7f00000000000000000000000000000000000000000000000000000000000000006001600160a01b0316610f56611987565b6001600160a01b031614610f9f576040805162461bcd60e51b815260206004820152601c6024820152600080516020613d9f833981519152604482015290519081900360640190fd5b6105d461253a565b7f00000000000000000000000000000000000000000000000000000000000000006001600160a01b0316610fd9611987565b6001600160a01b031614611022576040805162461bcd60e51b815260206004820152601c6024820152600080516020613d9f833981519152604482015290519081900360640190fd5b6105d46125c8565b6001546001600160a01b031681565b7f00000000000000000000000000000000000000000000000000000000000000006001600160a01b031661106b611987565b6001600160a01b0316146110b4576040805162461bcd60e51b815260206004820152601c6024820152600080516020613d9f833981519152604482015290519081900360640190fd5b6110be6000611bfd565b6105d4600019611bfd565b6040518060400160405280601681526020017f53747261746567792d436f6d706f756e642d555344430000000000000000000081525081565b7f00000000000000000000000000000000000000000000000000000000000000006001600160a01b0316611134611987565b6001600160a01b03161461117d576040805162461bcd60e51b815260206004820152601c6024820152600080516020613d9f833981519152604482015290519081900360640190fd5b6105d46127d5565b7f000000000000000000000000000000000000000000000000000000000000000081565b7f00000000000000000000000000000000000000000000000000000000000000006001600160a01b03166111db611987565b6001600160a01b031614611224576040805162461bcd60e51b815260206004820152601c6024820152600080516020613d9f833981519152604482015290519081900360640190fd5b6105d4612b00565b6001546001600160a01b0316635dbe47e8611245611987565b6040518263ffffffff1660e01b815260040180826001600160a01b0316815260200191505060206040518083038186803b15801561128257600080fd5b505afa158015611296573d6000803e3d6000fd5b505050506040513d60208110156112ac57600080fd5b50516112f6576040805162461bcd60e51b815260206004820152601460248201527331b0b63632b916b4b996b737ba16b5b2b2b832b960611b604482015290519081900360640190fd5b6112fe61198b565b61054c81612401565b6001546001600160a01b0316635dbe47e8611320611987565b6040518263ffffffff1660e01b815260040180826001600160a01b0316815260200191505060206040518083038186803b15801561135d57600080fd5b505afa158015611371573d6000803e3d6000fd5b505050506040513d602081101561138757600080fd5b50516113d1576040805162461bcd60e51b815260206004820152601460248201527331b0b63632b916b4b996b737ba16b5b2b2b832b960611b604482015290519081900360640190fd5b6113da816108fe565b1561142c576040805162461bcd60e51b815260206004820152601460248201527f6e6f742d616c6c6f7765642d746f2d7377656570000000000000000000000000604482015290519081900360640190fd5b6001600160a01b03811673eeeeeeeeeeeeeeeeeeeeeeeeeeeeeeeeeeeeeeee14156114805761147b7f000000000000000000000000000000000000000000000000000000000000000047612cf3565b61054c565b6000816001600160a01b03166370a08231306040518263ffffffff1660e01b815260040180826001600160a01b0316815260200191505060206040518083038186803b1580156114cf57600080fd5b505afa1580156114e3573d6000803e3d6000fd5b505050506040513d60208110156114f957600080fd5b505190506115316001600160a01b0383167f000000000000000000000000000000000000000000000000000000000000000083612ddd565b5050565b6001546001600160a01b0316635dbe47e861154e611987565b6040518263ffffffff1660e01b815260040180826001600160a01b0316815260200191505060206040518083038186803b15801561158b57600080fd5b505afa15801561159f573d6000803e3d6000fd5b505050506040513d60208110156115b557600080fd5b50516115ff576040805162461bcd60e51b815260206004820152601460248201527331b0b63632b916b4b996b737ba16b5b2b2b832b960611b604482015290519081900360640190fd5b6105d47f00000000000000000000000000000000000000000000000000000000000000006001600160a01b03166370a082317f00000000000000000000000000000000000000000000000000000000000000006040518263ffffffff1660e01b815260040180826001600160a01b0316815260200191505060206040518083038186803b15801561168f57600080fd5b505afa1580156116a3573d6000803e3d6000fd5b505050506040513d60208110156116b957600080fd5b505161122c565b7f00000000000000000000000000000000000000000000000000000000000000006001600160a01b03166116f2611987565b6001600160a01b03161461173b576040805162461bcd60e51b815260206004820152601c6024820152600080516020613d9f833981519152604482015290519081900360640190fd5b6001546001600160a01b031615611799576040805162461bcd60e51b815260206004820152601b60248201527f6b65657065722d6c6973742d616c72656164792d637265617465640000000000604482015290519081900360640190fd5b600073d57b41649f822c51a73c44ba0b3da4a880af00299050806001600160a01b0316630fab4d256040518163ffffffff1660e01b8152600401602060405180830381600087803b1580156117ed57600080fd5b505af1158015611801573d6000803e3d6000fd5b505050506040513d602081101561181757600080fd5b5051600180547fffffffffffffffffffffffff0000000000000000000000000000000000000000166001600160a01b03928316179081905516632f2ff15d7f679f35d3aa86a98333c7fc7439a0bc12a13be742ae62a4c1cc3820782a2e11a661187e611987565b6040518363ffffffff1660e01b815260040180838152602001826001600160a01b0316815260200192505050600060405180830381600087803b1580156118c457600080fd5b505af11580156118d8573d6000803e3d6000fd5b5050505050565b7f000000000000000000000000000000000000000000000000000000000000000081565b7f000000000000000000000000000000000000000000000000000000000000000081565b90565b7f000000000000000000000000000000000000000000000000000000000000000090565b6040518060400160405280600581526020017f322e302e3200000000000000000000000000000000000000000000000000000081525081565b3390565b611993611f46565b6002819055507f00000000000000000000000000000000000000000000000000000000000000006001600160a01b031663182df0f56040518163ffffffff1660e01b815260040160206040518083038186803b1580156119f257600080fd5b505afa158015611a06573d6000803e3d6000fd5b505050506040513d6020811015611a1c57600080fd5b5051600355565b7f00000000000000000000000000000000000000000000000000000000000000006001600160a01b031663852a12e3826040518263ffffffff1660e01b815260040180828152602001915050602060405180830381600087803b158015611a8957600080fd5b505af1158015611a9d573d6000803e3d6000fd5b505050506040513d6020811015611ab357600080fd5b505115611b07576040805162461bcd60e51b815260206004820152600f60248201527f77697468647261772d6661696c65640000000000000000000000000000000000604482015290519081900360640190fd5b611b0f6105d4565b61054c7f00000000000000000000000000000000000000000000000000000000000000007f00000000000000000000000000000000000000000000000000000000000000006001600160a01b03166370a08231306040518263ffffffff1660e01b815260040180826001600160a01b0316815260200191505060206040518083038186803b158015611ba057600080fd5b505afa158015611bb4573d6000803e3d6000fd5b505050506040513d6020811015611bca57600080fd5b50516001600160a01b037f0000000000000000000000000000000000000000000000000000000000000000169190612ddd565b611c516001600160a01b037f0000000000000000000000000000000000000000000000000000000000000000167f000000000000000000000000000000000000000000000000000000000000000083612e2f565b611ca56001600160a01b037f0000000000000000000000000000000000000000000000000000000000000000167f000000000000000000000000000000000000000000000000000000000000000083612e2f565b60005b600060029054906101000a90046001600160a01b03166001600160a01b031663c2fba6676040518163ffffffff1660e01b815260040160206040518083038186803b158015611cf657600080fd5b505afa158015611d0a573d6000803e3d6000fd5b505050506040513d6020811015611d2057600080fd5b50518110156115315760005460408051636e74a6f760e01b8152600481018490529051611dd9926201000090046001600160a01b031691636e74a6f7916024808301926020929190829003018186803b158015611d7c57600080fd5b505afa158015611d90573d6000803e3d6000fd5b505050506040513d6020811015611da657600080fd5b50516001600160a01b037f0000000000000000000000000000000000000000000000000000000000000000169084612e2f565b600101611ca8565b60005460ff16611e38576040805162461bcd60e51b815260206004820152601460248201527f5061757361626c653a206e6f7420706175736564000000000000000000000000604482015290519081900360640190fd5b600054610100900460ff1615611e95576040805162461bcd60e51b815260206004820152601260248201527f5061757361626c653a2073687574646f776e0000000000000000000000000000604482015290519081900360640190fd5b6000805460ff191690557f5db9ee0a495bf2e6ff9c91a7834c1ba4fdd244a5e8aa4e537bd38aeae4b073aa611ec8611987565b604080516001600160a01b039092168252519081900360200190a1565b600082820183811015611f3f576040805162461bcd60e51b815260206004820152601b60248201527f536166654d6174683a206164646974696f6e206f766572666c6f770000000000604482015290519081900360640190fd5b9392505050565b600080612098670de0b6b3a76400006120927f00000000000000000000000000000000000000000000000000000000000000006001600160a01b03166370a08231306040518263ffffffff1660e01b815260040180826001600160a01b0316815260200191505060206040518083038186803b158015611fc557600080fd5b505afa158015611fd9573d6000803e3d6000fd5b505050506040513d6020811015611fef57600080fd5b50516003546040805163182df0f560e01b8152905161208c92916001600160a01b037f0000000000000000000000000000000000000000000000000000000000000000169163182df0f591600480820192602092909190829003018186803b15801561205a57600080fd5b505afa15801561206e573d6000803e3d6000fd5b505050506040513d602081101561208457600080fd5b5051906121ec565b90612f42565b90612f9b565b9050600061216b670de0b6b3a76400006120927f00000000000000000000000000000000000000000000000000000000000000006001600160a01b0316634564a6c87f00000000000000000000000000000000000000000000000000000000000000006040518263ffffffff1660e01b815260040180826001600160a01b0316815260200191505060206040518083038186803b15801561213857600080fd5b505afa15801561214c573d6000803e3d6000fd5b505050506040513d602081101561216257600080fd5b50518590612f42565b60025490915061217b9082611ee5565b9250505090565b6000610971670de0b6b3a76400006120927f00000000000000000000000000000000000000000000000000000000000000006001600160a01b031663182df0f56040518163ffffffff1660e01b815260040160206040518083038186803b15801561213857600080fd5b600082821115612243576040805162461bcd60e51b815260206004820152601e60248201527f536166654d6174683a207375627472616374696f6e206f766572666c6f770000604482015290519081900360640190fd5b50900390565b612251613002565b61225961198b565b6002546000612267826133d2565b90508015612360577f00000000000000000000000000000000000000000000000000000000000000006001600160a01b031663852a12e3836040518263ffffffff1660e01b815260040180828152602001915050602060405180830381600087803b1580156122d557600080fd5b505af11580156122e9573d6000803e3d6000fd5b505050506040513d60208110156122ff57600080fd5b505115612353576040805162461bcd60e51b815260206004820181905260248201527f726562616c616e63654561726e65643a3a77697468647261772d6661696c6564604482015290519081900360640190fd5b60006002556123606105d4565b6115317f00000000000000000000000000000000000000000000000000000000000000006001600160a01b03166370a08231306040518263ffffffff1660e01b815260040180826001600160a01b0316815260200191505060206040518083038186803b1580156123d057600080fd5b505afa1580156123e4573d6000803e3d6000fd5b505050506040513d60208110156123fa57600080fd5b505161346e565b6124566001600160a01b037f0000000000000000000000000000000000000000000000000000000000000000167f0000000000000000000000000000000000000000000000000000000000000000308461367c565b7f00000000000000000000000000000000000000000000000000000000000000006001600160a01b031663a0712d68826040518263ffffffff1660e01b815260040180828152602001915050602060405180830381600087803b1580156124bc57600080fd5b505af11580156124d0573d6000803e3d6000fd5b505050506040513d60208110156124e657600080fd5b50511561054c576040805162461bcd60e51b815260206004820152600e60248201527f6465706f7369742d6661696c6564000000000000000000000000000000000000604482015290519081900360640190fd5b60005460ff1615612592576040805162461bcd60e51b815260206004820152601060248201527f5061757361626c653a2070617573656400000000000000000000000000000000604482015290519081900360640190fd5b6000805460ff191660011790557f62e78cea01bee320cd4e420270b5ea74000d11b0c9f74754ebdbfc544b05a258611ec8611987565b6000600255604080516370a0823160e01b815230600482015290516001600160a01b037f0000000000000000000000000000000000000000000000000000000000000000169163db006a759183916370a08231916024808301926020929190829003018186803b15801561263b57600080fd5b505afa15801561264f573d6000803e3d6000fd5b505050506040513d602081101561266557600080fd5b5051604080517fffffffff0000000000000000000000000000000000000000000000000000000060e085901b16815260048101929092525160248083019260209291908290030181600087803b1580156126be57600080fd5b505af11580156126d2573d6000803e3d6000fd5b505050506040513d60208110156126e857600080fd5b50511561273c576040805162461bcd60e51b815260206004820152601360248201527f77697468647261772d616c6c2d6661696c656400000000000000000000000000604482015290519081900360640190fd5b6127446105d4565b6105d47f00000000000000000000000000000000000000000000000000000000000000007f00000000000000000000000000000000000000000000000000000000000000006001600160a01b03166370a08231306040518263ffffffff1660e01b815260040180826001600160a01b0316815260200191505060206040518083038186803b158015611ba057600080fd5b7f00000000000000000000000000000000000000000000000000000000000000006001600160a01b0316635b16ebb77f00000000000000000000000000000000000000000000000000000000000000006040518263ffffffff1660e01b815260040180826001600160a01b0316815260200191505060206040518083038186803b15801561286257600080fd5b505afa158015612876573d6000803e3d6000fd5b505050506040513d602081101561288c57600080fd5b50516128d2576040805162461bcd60e51b815260206004820152601060248201526f1b9bdd0b584b5d985b1a590b5c1bdbdb60821b604482015290519081900360640190fd5b306001600160a01b03167f00000000000000000000000000000000000000000000000000000000000000006001600160a01b031663228bfd9f7f00000000000000000000000000000000000000000000000000000000000000006040518263ffffffff1660e01b815260040180826001600160a01b0316815260200191505060206040518083038186803b15801561296957600080fd5b505afa15801561297d573d6000803e3d6000fd5b505050506040513d602081101561299357600080fd5b50516001600160a01b0316146129f0576040805162461bcd60e51b815260206004820152601460248201527f6e6f742d612d76616c69642d7374726174656779000000000000000000000000604482015290519081900360640190fd5b6105d47f0000000000000000000000000000000000000000000000000000000000000000307f00000000000000000000000000000000000000000000000000000000000000006001600160a01b03166370a082317f00000000000000000000000000000000000000000000000000000000000000006040518263ffffffff1660e01b815260040180826001600160a01b0316815260200191505060206040518083038186803b158015612aa257600080fd5b505afa158015612ab6573d6000803e3d6000fd5b505050506040513d6020811015612acc57600080fd5b50516001600160a01b037f00000000000000000000000000000000000000000000000000000000000000001692919061367c565b7f00000000000000000000000000000000000000000000000000000000000000006001600160a01b0316635b16ebb77f00000000000000000000000000000000000000000000000000000000000000006040518263ffffffff1660e01b815260040180826001600160a01b0316815260200191505060206040518083038186803b158015612b8d57600080fd5b505afa158015612ba1573d6000803e3d6000fd5b505050506040513d6020811015612bb757600080fd5b5051612bfd576040805162461bcd60e51b815260206004820152601060248201526f1b9bdd0b584b5d985b1a590b5c1bdbdb60821b604482015290519081900360640190fd5b612c0561253a565b6000600255604080516370a0823160e01b815230600482015290516105d4917f0000000000000000000000000000000000000000000000000000000000000000916001600160a01b037f000000000000000000000000000000000000000000000000000000000000000016916370a08231916024808301926020929190829003018186803b158015612c9657600080fd5b505afa158015612caa573d6000803e3d6000fd5b505050506040513d6020811015612cc057600080fd5b50516001600160a01b037f0000000000000000000000000000000000000000000000000000000000000000169190612ddd565b80471015612d48576040805162461bcd60e51b815260206004820152601d60248201527f416464726573733a20696e73756666696369656e742062616c616e6365000000604482015290519081900360640190fd5b6040516000906001600160a01b0384169083908381818185875af1925050503d8060008114612d93576040519150601f19603f3d011682016040523d82523d6000602084013e612d98565b606091505b5050905080612dd85760405162461bcd60e51b815260040180806020018281038252603a815260200180613cf4603a913960400191505060405180910390fd5b505050565b604080516001600160a01b038416602482015260448082018490528251808303909101815260649091019091526020810180516001600160e01b031663a9059cbb60e01b179052612dd89084906136d2565b801580612eb5575060408051636eb1769f60e11b81523060048201526001600160a01b03848116602483015291519185169163dd62ed3e91604480820192602092909190829003018186803b158015612e8757600080fd5b505afa158015612e9b573d6000803e3d6000fd5b505050506040513d6020811015612eb157600080fd5b5051155b612ef05760405162461bcd60e51b8152600401808060200182810382526036815260200180613dbf6036913960400191505060405180910390fd5b604080516001600160a01b038416602482015260448082018490528251808303909101815260649091019091526020810180516001600160e01b031663095ea7b360e01b179052612dd89084906136d2565b600082612f5157506000610971565b82820282848281612f5e57fe5b0414611f3f5760405162461bcd60e51b8152600401808060200182810382526021815260200180613d546021913960400191505060405180910390fd5b6000808211612ff1576040805162461bcd60e51b815260206004820152601a60248201527f536166654d6174683a206469766973696f6e206279207a65726f000000000000604482015290519081900360640190fd5b818381612ffa57fe5b049392505050565b604080516001808252818301909252606091602080830190803683370190505090507f00000000000000000000000000000000000000000000000000000000000000008160008151811061305257fe5b60200260200101906001600160a01b031690816001600160a01b0316815250507f00000000000000000000000000000000000000000000000000000000000000006001600160a01b0316631c3db2e030836040518363ffffffff1660e01b815260040180836001600160a01b0316815260200180602001828103825283818151815260200191508051906020019060200280838360005b838110156131015781810151838201526020016130e9565b505050509050019350505050600060405180830381600087803b15801561312757600080fd5b505af115801561313b573d6000803e3d6000fd5b5050505060007f00000000000000000000000000000000000000000000000000000000000000006001600160a01b03166370a08231306040518263ffffffff1660e01b815260040180826001600160a01b0316815260200191505060206040518083038186803b1580156131ae57600080fd5b505afa1580156131c2573d6000803e3d6000fd5b505050506040513d60208110156131d857600080fd5b5051905080156115315761322d7f00000000000000000000000000000000000000000000000000000000000000007f000000000000000000000000000000000000000000000000000000000000000083613783565b60007f00000000000000000000000000000000000000000000000000000000000000006001600160a01b03166370a08231306040518263ffffffff1660e01b815260040180826001600160a01b0316815260200191505060206040518083038186803b15801561329c57600080fd5b505afa1580156132b0573d6000803e3d6000fd5b505050506040513d60208110156132c657600080fd5b5051604080516308ac94d960e31b81526001600160a01b037f000000000000000000000000000000000000000000000000000000000000000081166004830152915192935060009261336b92670de0b6b3a764000092612092927f000000000000000000000000000000000000000000000000000000000000000090921691634564a6c891602480820192602092909190829003018186803b15801561213857600080fd5b90506133cc7f000000000000000000000000000000000000000000000000000000000000000061339b84846121ec565b6001600160a01b037f0000000000000000000000000000000000000000000000000000000000000000169190612ddd565b50505050565b60006109717f00000000000000000000000000000000000000000000000000000000000000006001600160a01b031663182df0f56040518163ffffffff1660e01b815260040160206040518083038186803b15801561343057600080fd5b505afa158015613444573d6000803e3d6000fd5b505050506040513d602081101561345a57600080fd5b505161209284670de0b6b3a7640000612f42565b801561054c577f00000000000000000000000000000000000000000000000000000000000000006001600160a01b031663b6b55f25826040518263ffffffff1660e01b815260040180828152602001915050600060405180830381600087803b1580156134da57600080fd5b505af11580156134ee573d6000803e3d6000fd5b5050505060007f00000000000000000000000000000000000000000000000000000000000000006001600160a01b03166370a08231306040518263ffffffff1660e01b815260040180826001600160a01b0316815260200191505060206040518083038186803b15801561356157600080fd5b505afa158015613575573d6000803e3d6000fd5b505050506040513d602081101561358b57600080fd5b50516040805163503700dd60e11b81526001600160a01b037f0000000000000000000000000000000000000000000000000000000000000000811660048301529151929350611531927f00000000000000000000000000000000000000000000000000000000000000009092169163a06e01ba91602480820192602092909190829003018186803b15801561361f57600080fd5b505afa158015613633573d6000803e3d6000fd5b505050506040513d602081101561364957600080fd5b50516001600160a01b037f0000000000000000000000000000000000000000000000000000000000000000169083612ddd565b604080516001600160a01b0380861660248301528416604482015260648082018490528251808303909101815260849091019091526020810180516001600160e01b03166323b872dd60e01b1790526133cc9085905b6060613727826040518060400160405280602081526020017f5361666545524332303a206c6f772d6c6576656c2063616c6c206661696c6564815250856001600160a01b0316613ad69092919063ffffffff16565b805190915015612dd85780806020019051602081101561374657600080fd5b5051612dd85760405162461bcd60e51b815260040180806020018281038252602a815260200180613d75602a913960400191505060405180910390fd5b6000805460408051631d1f307960e31b81526001600160a01b038781166004830152868116602483015260448201869052915160609493849362010000909104169163e8f983c89160648083019286929190829003018186803b1580156137e957600080fd5b505afa1580156137fd573d6000803e3d6000fd5b505050506040513d6000823e601f3d908101601f19168201604052606081101561382657600080fd5b810190808051604051939291908464010000000082111561384657600080fd5b90830190602082018581111561385b57600080fd5b825186602082028301116401000000008211171561387857600080fd5b82525081516020918201928201910280838360005b838110156138a557818101518382015260200161388d565b5050505091909101604090815260208301519201519497509095509293505083159150613ace905057600060029054906101000a90046001600160a01b03166001600160a01b0316636e74a6f7826040518263ffffffff1660e01b81526004018082815260200191505060206040518083038186803b15801561392757600080fd5b505afa15801561393b573d6000803e3d6000fd5b505050506040513d602081101561395157600080fd5b50516040516338ed173960e01b8152600481018681526001602483018190523060648401819052601e42016084850181905260a060448601908152895160a487015289516001600160a01b03909716966338ed1739968c968c9594939092909160c401906020878101910280838360005b838110156139da5781810151838201526020016139c2565b505050509050019650505050505050600060405180830381600087803b158015613a0357600080fd5b505af1158015613a17573d6000803e3d6000fd5b505050506040513d6000823e601f3d908101601f191682016040526020811015613a4057600080fd5b8101908080516040519392919084640100000000821115613a6057600080fd5b908301906020820185811115613a7557600080fd5b8251866020820283011164010000000082111715613a9257600080fd5b82525081516020918201928201910280838360005b83811015613abf578181015183820152602001613aa7565b50505050905001604052505050505b505050505050565b6060613ae58484600085613aed565b949350505050565b606082471015613b2e5760405162461bcd60e51b8152600401808060200182810382526026815260200180613d2e6026913960400191505060405180910390fd5b613b3785613c49565b613b88576040805162461bcd60e51b815260206004820152601d60248201527f416464726573733a2063616c6c20746f206e6f6e2d636f6e7472616374000000604482015290519081900360640190fd5b60006060866001600160a01b031685876040518082805190602001908083835b60208310613bc75780518252601f199092019160209182019101613ba8565b6001836020036101000a03801982511681845116808217855250505050505090500191505060006040518083038185875af1925050503d8060008114613c29576040519150601f19603f3d011682016040523d82523d6000602084013e613c2e565b606091505b5091509150613c3e828286613c4f565b979650505050505050565b3b151590565b60608315613c5e575081611f3f565b825115613c6e5782518084602001fd5b8160405162461bcd60e51b81526004018080602001828103825283818151815260200191508051906020019080838360005b83811015613cb8578181015183820152602001613ca0565b50505050905090810190601f168015613ce55780820380516001836020036101000a031916815260200191505b509250505060405180910390fdfe416464726573733a20756e61626c6520746f2073656e642076616c75652c20726563697069656e74206d61792068617665207265766572746564416464726573733a20696e73756666696369656e742062616c616e636520666f722063616c6c536166654d6174683a206d756c7469706c69636174696f6e206f766572666c6f775361666545524332303a204552433230206f7065726174696f6e20646964206e6f74207375636365656463616c6c65722d69732d6e6f742d7468652d636f6e74726f6c6c6572000000005361666545524332303a20617070726f76652066726f6d206e6f6e2d7a65726f20746f206e6f6e2d7a65726f20616c6c6f77616e6365a26469706673582212202de8310196ab8641678e44ba32e673d2a699f488f90503928b746cb28cf6662164736f6c634300060c0033",
  "devdoc": {
    "kind": "dev",
    "methods": {
      "approveToken()": {
        "details": "Approve all required tokens"
      },
      "convertFrom18(uint256)": {
        "details": "Convert from 18 decimals to token defined decimals. Default no conversion."
      },
      "createKeeperList()": {
        "details": "Create keeper list NOTE: Any function with onlyKeeper modifier will not work until this function is called. NOTE: Due to gas constraint this function cannot be called in constructor."
      },
      "deposit(uint256)": {
        "details": "Deposit collateral token into lending pool.",
        "params": {
          "_amount": "Amount of collateral token"
        }
      },
      "interestEarned()": {
        "details": "Make sure to return value in collateral token"
      },
      "isUpgradable()": {
        "details": "If there are no cTokens in strategy then it is upgradable"
      },
      "migrateIn()": {
        "details": "For moving between versions of similar strategies"
      },
      "migrateOut()": {
        "details": "For moving between versions of similar strategies"
      },
      "rebalance()": {
        "details": "Calculate interest fee on earning from Compound and transfer fee to fee collector. Deposit available collateral from pool into Compound. Anyone can call it except when paused."
      },
      "resetApproval()": {
        "details": "Reset approval of all required tokens"
      },
      "sweepErc20(address)": {
        "details": "sweep given token to vesper pool",
        "params": {
          "_fromToken": "token address to sweep"
        }
      },
      "token()": {
        "details": "Returns address of token correspond to collateral token"
      },
      "totalLocked()": {
        "details": "This value will be used in pool share calculation, so true totalLocked will be balance in Compound minus any pending fee to collect.",
        "returns": {
          "_0": "Return value will be in collateralToken defined decimal."
        }
      },
      "updateSwapManager(address)": {
        "params": {
          "_swapManager": "swap manager address"
        }
      },
      "withdraw(uint256)": {
        "details": "Withdraw collateral token from lending pool.",
        "params": {
          "_amount": "Amount of collateral token"
        }
      },
      "withdrawAll()": {
        "details": "Withdraw all collateral. No rebalance earning. Controller only function, called when migrating strategy."
      }
    },
    "version": 1
  },
  "userdoc": {
    "kind": "user",
    "methods": {
      "beforeWithdraw()": {
        "notice": "Vesper pools are using this function so it should exist in all strategies."
      },
      "createKeeperList()": {
        "notice": "Create keeper list"
      },
      "depositAll()": {
        "notice": "Deposit all collateral token from pool to other lending pool. Anyone can call it except when paused."
      },
      "interestEarned()": {
        "notice": "Returns interest earned in COMP since last rebalance."
      },
      "isReservedToken(address)": {
        "notice": "This method is deprecated and will be removed from Strategies in next release"
      },
      "isUpgradable()": {
        "notice": "Returns true if strategy can be upgraded."
      },
      "totalLocked()": {
        "notice": "Total collateral locked in Compound."
      },
      "updateSwapManager(address)": {
        "notice": "Update swap manager address"
      }
    },
    "version": 1
  },
  "storageLayout": {
    "storage": [
      {
        "astId": 3704,
        "contract": "contracts/strategies/CompoundStrategyUSDC.sol:CompoundStrategyUSDC",
        "label": "paused",
        "offset": 0,
        "slot": "0",
        "type": "t_bool"
      },
      {
        "astId": 3706,
        "contract": "contracts/strategies/CompoundStrategyUSDC.sol:CompoundStrategyUSDC",
        "label": "stopEverything",
        "offset": 1,
        "slot": "0",
        "type": "t_bool"
      },
      {
        "astId": 15619,
        "contract": "contracts/strategies/CompoundStrategyUSDC.sol:CompoundStrategyUSDC",
        "label": "swapManager",
        "offset": 2,
        "slot": "0",
        "type": "t_contract(ISwapManager)4424"
      },
      {
        "astId": 15630,
        "contract": "contracts/strategies/CompoundStrategyUSDC.sol:CompoundStrategyUSDC",
        "label": "keepers",
        "offset": 0,
        "slot": "1",
        "type": "t_contract(IAddressListExt)20436"
      },
      {
        "astId": 11292,
        "contract": "contracts/strategies/CompoundStrategyUSDC.sol:CompoundStrategyUSDC",
        "label": "pendingFee",
        "offset": 0,
        "slot": "2",
        "type": "t_uint256"
      },
      {
        "astId": 11300,
        "contract": "contracts/strategies/CompoundStrategyUSDC.sol:CompoundStrategyUSDC",
        "label": "exchangeRateStored",
        "offset": 0,
        "slot": "3",
        "type": "t_uint256"
      }
    ],
    "types": {
      "t_bool": {
        "encoding": "inplace",
        "label": "bool",
        "numberOfBytes": "1"
      },
      "t_contract(IAddressListExt)20436": {
        "encoding": "inplace",
        "label": "contract IAddressListExt",
        "numberOfBytes": "20"
      },
      "t_contract(ISwapManager)4424": {
        "encoding": "inplace",
        "label": "contract ISwapManager",
        "numberOfBytes": "20"
      },
      "t_uint256": {
        "encoding": "inplace",
        "label": "uint256",
        "numberOfBytes": "32"
      }
    }
  }
}