{
  "address": "0xAaD7328bCC81AC7D8ae9187d7F10B503E3d38Eb8",
  "abi": [
    {
      "inputs": [
        {
          "internalType": "address",
          "name": "_controller",
          "type": "address"
        }
      ],
      "stateMutability": "nonpayable",
      "type": "constructor"
    },
    {
      "anonymous": false,
      "inputs": [
        {
          "indexed": true,
          "internalType": "address",
          "name": "owner",
          "type": "address"
        },
        {
          "indexed": true,
          "internalType": "address",
          "name": "spender",
          "type": "address"
        },
        {
          "indexed": false,
          "internalType": "uint256",
          "name": "value",
          "type": "uint256"
        }
      ],
      "name": "Approval",
      "type": "event"
    },
    {
      "anonymous": false,
      "inputs": [
        {
          "indexed": true,
          "internalType": "address",
          "name": "owner",
          "type": "address"
        },
        {
          "indexed": false,
          "internalType": "uint256",
          "name": "shares",
          "type": "uint256"
        },
        {
          "indexed": false,
          "internalType": "uint256",
          "name": "amount",
          "type": "uint256"
        }
      ],
      "name": "Deposit",
      "type": "event"
    },
    {
      "anonymous": false,
      "inputs": [
        {
          "indexed": false,
          "internalType": "address",
          "name": "account",
          "type": "address"
        }
      ],
      "name": "Open",
      "type": "event"
    },
    {
      "anonymous": false,
      "inputs": [
        {
          "indexed": false,
          "internalType": "address",
          "name": "account",
          "type": "address"
        }
      ],
      "name": "Paused",
      "type": "event"
    },
    {
      "anonymous": false,
      "inputs": [
        {
          "indexed": false,
          "internalType": "address",
          "name": "account",
          "type": "address"
        }
      ],
      "name": "Shutdown",
      "type": "event"
    },
    {
      "anonymous": false,
      "inputs": [
        {
          "indexed": true,
          "internalType": "address",
          "name": "from",
          "type": "address"
        },
        {
          "indexed": true,
          "internalType": "address",
          "name": "to",
          "type": "address"
        },
        {
          "indexed": false,
          "internalType": "uint256",
          "name": "value",
          "type": "uint256"
        }
      ],
      "name": "Transfer",
      "type": "event"
    },
    {
      "anonymous": false,
      "inputs": [
        {
          "indexed": false,
          "internalType": "address",
          "name": "account",
          "type": "address"
        }
      ],
      "name": "Unpaused",
      "type": "event"
    },
    {
      "anonymous": false,
      "inputs": [
        {
          "indexed": true,
          "internalType": "address",
          "name": "owner",
          "type": "address"
        },
        {
          "indexed": false,
          "internalType": "uint256",
          "name": "shares",
          "type": "uint256"
        },
        {
          "indexed": false,
          "internalType": "uint256",
          "name": "amount",
          "type": "uint256"
        }
      ],
      "name": "Withdraw",
      "type": "event"
    },
    {
      "inputs": [],
      "name": "DOMAIN_TYPEHASH",
      "outputs": [
        {
          "internalType": "bytes32",
          "name": "",
          "type": "bytes32"
        }
      ],
      "stateMutability": "view",
      "type": "function"
    },
    {
      "inputs": [],
      "name": "PERMIT_TYPEHASH",
      "outputs": [
        {
          "internalType": "bytes32",
          "name": "",
          "type": "bytes32"
        }
      ],
      "stateMutability": "view",
      "type": "function"
    },
    {
      "inputs": [
        {
          "internalType": "address",
          "name": "owner",
          "type": "address"
        },
        {
          "internalType": "address",
          "name": "spender",
          "type": "address"
        }
      ],
      "name": "allowance",
      "outputs": [
        {
          "internalType": "uint256",
          "name": "",
          "type": "uint256"
        }
      ],
      "stateMutability": "view",
      "type": "function"
    },
    {
      "inputs": [
        {
          "internalType": "address",
          "name": "spender",
          "type": "address"
        },
        {
          "internalType": "uint256",
          "name": "amount",
          "type": "uint256"
        }
      ],
      "name": "approve",
      "outputs": [
        {
          "internalType": "bool",
          "name": "",
          "type": "bool"
        }
      ],
      "stateMutability": "nonpayable",
      "type": "function"
    },
    {
      "inputs": [],
      "name": "approveToken",
      "outputs": [],
      "stateMutability": "nonpayable",
      "type": "function"
    },
    {
      "inputs": [
        {
          "internalType": "address",
          "name": "account",
          "type": "address"
        }
      ],
      "name": "balanceOf",
      "outputs": [
        {
          "internalType": "uint256",
          "name": "",
          "type": "uint256"
        }
      ],
      "stateMutability": "view",
      "type": "function"
    },
    {
      "inputs": [],
      "name": "controller",
      "outputs": [
        {
          "internalType": "contract IController",
          "name": "",
          "type": "address"
        }
      ],
      "stateMutability": "view",
      "type": "function"
    },
    {
      "inputs": [
        {
          "internalType": "uint256",
          "name": "_value",
          "type": "uint256"
        }
      ],
      "name": "convertFrom18",
      "outputs": [
        {
          "internalType": "uint256",
          "name": "",
          "type": "uint256"
        }
      ],
      "stateMutability": "pure",
      "type": "function"
    },
    {
      "inputs": [
        {
          "internalType": "uint256",
          "name": "_value",
          "type": "uint256"
        }
      ],
      "name": "convertTo18",
      "outputs": [
        {
          "internalType": "uint256",
          "name": "",
          "type": "uint256"
        }
      ],
      "stateMutability": "pure",
      "type": "function"
    },
    {
      "inputs": [],
      "name": "decimals",
      "outputs": [
        {
          "internalType": "uint8",
          "name": "",
          "type": "uint8"
        }
      ],
      "stateMutability": "view",
      "type": "function"
    },
    {
      "inputs": [
        {
          "internalType": "address",
          "name": "spender",
          "type": "address"
        },
        {
          "internalType": "uint256",
          "name": "subtractedValue",
          "type": "uint256"
        }
      ],
      "name": "decreaseAllowance",
      "outputs": [
        {
          "internalType": "bool",
          "name": "",
          "type": "bool"
        }
      ],
      "stateMutability": "nonpayable",
      "type": "function"
    },
    {
      "inputs": [
        {
          "internalType": "uint256",
          "name": "amount",
          "type": "uint256"
        }
      ],
      "name": "deposit",
      "outputs": [],
      "stateMutability": "nonpayable",
      "type": "function"
    },
    {
      "inputs": [
        {
          "internalType": "uint256",
          "name": "amount",
          "type": "uint256"
        },
        {
          "internalType": "uint256",
          "name": "deadline",
          "type": "uint256"
        },
        {
          "internalType": "uint8",
          "name": "v",
          "type": "uint8"
        },
        {
          "internalType": "bytes32",
          "name": "r",
          "type": "bytes32"
        },
        {
          "internalType": "bytes32",
          "name": "s",
          "type": "bytes32"
        }
      ],
      "name": "depositWithPermit",
      "outputs": [],
      "stateMutability": "nonpayable",
      "type": "function"
    },
    {
      "inputs": [],
      "name": "domainSeparator",
      "outputs": [
        {
          "internalType": "bytes32",
          "name": "",
          "type": "bytes32"
        }
      ],
      "stateMutability": "view",
      "type": "function"
    },
    {
      "inputs": [],
      "name": "feeCollector",
      "outputs": [
        {
          "internalType": "address",
          "name": "",
          "type": "address"
        }
      ],
      "stateMutability": "view",
      "type": "function"
    },
    {
      "inputs": [],
      "name": "feeWhiteList",
      "outputs": [
        {
          "internalType": "contract IAddressListExt",
          "name": "",
          "type": "address"
        }
      ],
      "stateMutability": "view",
      "type": "function"
    },
    {
      "inputs": [],
      "name": "getPricePerShare",
      "outputs": [
        {
          "internalType": "uint256",
          "name": "",
          "type": "uint256"
        }
      ],
      "stateMutability": "view",
      "type": "function"
    },
    {
      "inputs": [
        {
          "internalType": "address",
          "name": "spender",
          "type": "address"
        },
        {
          "internalType": "uint256",
          "name": "addedValue",
          "type": "uint256"
        }
      ],
      "name": "increaseAllowance",
      "outputs": [
        {
          "internalType": "bool",
          "name": "",
          "type": "bool"
        }
      ],
      "stateMutability": "nonpayable",
      "type": "function"
    },
    {
      "inputs": [
        {
          "internalType": "uint256[]",
          "name": "bits",
          "type": "uint256[]"
        }
      ],
      "name": "multiTransfer",
      "outputs": [
        {
          "internalType": "bool",
          "name": "",
          "type": "bool"
        }
      ],
      "stateMutability": "nonpayable",
      "type": "function"
    },
    {
      "inputs": [],
      "name": "name",
      "outputs": [
        {
          "internalType": "string",
          "name": "",
          "type": "string"
        }
      ],
      "stateMutability": "view",
      "type": "function"
    },
    {
      "inputs": [
        {
          "internalType": "address",
          "name": "",
          "type": "address"
        }
      ],
      "name": "nonces",
      "outputs": [
        {
          "internalType": "uint256",
          "name": "",
          "type": "uint256"
        }
      ],
      "stateMutability": "view",
      "type": "function"
    },
    {
      "inputs": [],
      "name": "open",
      "outputs": [],
      "stateMutability": "nonpayable",
      "type": "function"
    },
    {
      "inputs": [],
      "name": "pause",
      "outputs": [],
      "stateMutability": "nonpayable",
      "type": "function"
    },
    {
      "inputs": [],
      "name": "paused",
      "outputs": [
        {
          "internalType": "bool",
          "name": "",
          "type": "bool"
        }
      ],
      "stateMutability": "view",
      "type": "function"
    },
    {
      "inputs": [
        {
          "internalType": "address",
          "name": "owner",
          "type": "address"
        },
        {
          "internalType": "address",
          "name": "spender",
          "type": "address"
        },
        {
          "internalType": "uint256",
          "name": "amount",
          "type": "uint256"
        },
        {
          "internalType": "uint256",
          "name": "deadline",
          "type": "uint256"
        },
        {
          "internalType": "uint8",
          "name": "v",
          "type": "uint8"
        },
        {
          "internalType": "bytes32",
          "name": "r",
          "type": "bytes32"
        },
        {
          "internalType": "bytes32",
          "name": "s",
          "type": "bytes32"
        }
      ],
      "name": "permit",
      "outputs": [],
      "stateMutability": "nonpayable",
      "type": "function"
    },
    {
      "inputs": [],
      "name": "rebalance",
      "outputs": [],
      "stateMutability": "nonpayable",
      "type": "function"
    },
    {
      "inputs": [],
      "name": "resetApproval",
      "outputs": [],
      "stateMutability": "nonpayable",
      "type": "function"
    },
    {
      "inputs": [],
      "name": "shutdown",
      "outputs": [],
      "stateMutability": "nonpayable",
      "type": "function"
    },
    {
      "inputs": [],
      "name": "stopEverything",
      "outputs": [
        {
          "internalType": "bool",
          "name": "",
          "type": "bool"
        }
      ],
      "stateMutability": "view",
      "type": "function"
    },
    {
      "inputs": [
        {
          "internalType": "address",
          "name": "_erc20",
          "type": "address"
        }
      ],
      "name": "sweepErc20",
      "outputs": [],
      "stateMutability": "nonpayable",
      "type": "function"
    },
    {
      "inputs": [],
      "name": "symbol",
      "outputs": [
        {
          "internalType": "string",
          "name": "",
          "type": "string"
        }
      ],
      "stateMutability": "view",
      "type": "function"
    },
    {
      "inputs": [],
      "name": "token",
      "outputs": [
        {
          "internalType": "contract IERC20",
          "name": "",
          "type": "address"
        }
      ],
      "stateMutability": "view",
      "type": "function"
    },
    {
      "inputs": [],
      "name": "tokenLocked",
      "outputs": [
        {
          "internalType": "uint256",
          "name": "",
          "type": "uint256"
        }
      ],
      "stateMutability": "view",
      "type": "function"
    },
    {
      "inputs": [],
      "name": "tokensHere",
      "outputs": [
        {
          "internalType": "uint256",
          "name": "",
          "type": "uint256"
        }
      ],
      "stateMutability": "view",
      "type": "function"
    },
    {
      "inputs": [],
      "name": "totalSupply",
      "outputs": [
        {
          "internalType": "uint256",
          "name": "",
          "type": "uint256"
        }
      ],
      "stateMutability": "view",
      "type": "function"
    },
    {
      "inputs": [],
      "name": "totalValue",
      "outputs": [
        {
          "internalType": "uint256",
          "name": "",
          "type": "uint256"
        }
      ],
      "stateMutability": "view",
      "type": "function"
    },
    {
      "inputs": [
        {
          "internalType": "address",
          "name": "recipient",
          "type": "address"
        },
        {
          "internalType": "uint256",
          "name": "amount",
          "type": "uint256"
        }
      ],
      "name": "transfer",
      "outputs": [
        {
          "internalType": "bool",
          "name": "",
          "type": "bool"
        }
      ],
      "stateMutability": "nonpayable",
      "type": "function"
    },
    {
      "inputs": [
        {
          "internalType": "address",
          "name": "sender",
          "type": "address"
        },
        {
          "internalType": "address",
          "name": "recipient",
          "type": "address"
        },
        {
          "internalType": "uint256",
          "name": "amount",
          "type": "uint256"
        }
      ],
      "name": "transferFrom",
      "outputs": [
        {
          "internalType": "bool",
          "name": "",
          "type": "bool"
        }
      ],
      "stateMutability": "nonpayable",
      "type": "function"
    },
    {
      "inputs": [],
      "name": "unpause",
      "outputs": [],
      "stateMutability": "nonpayable",
      "type": "function"
    },
    {
      "inputs": [
        {
          "internalType": "uint256",
          "name": "shares",
          "type": "uint256"
        }
      ],
      "name": "withdraw",
      "outputs": [],
      "stateMutability": "nonpayable",
      "type": "function"
    },
    {
      "inputs": [
        {
          "internalType": "uint256",
          "name": "shares",
          "type": "uint256"
        }
      ],
      "name": "withdrawByStrategy",
      "outputs": [],
      "stateMutability": "nonpayable",
      "type": "function"
    },
    {
      "inputs": [],
      "name": "withdrawFee",
      "outputs": [
        {
          "internalType": "uint256",
          "name": "",
          "type": "uint256"
        }
      ],
      "stateMutability": "view",
      "type": "function"
    }
  ],
  "transactionHash": "0xb7c1b2aa46fbf3d1faad52fc684cdba47473ce9537f588e9c02424b3e1ee3786",
  "args": [
    "0xcF6Bd0eAcCA6600fB14470DFFA3615182258f48B"
  ],
  "solcInputHash": "49587f97439b83e0577b8db069569caf",
  "bytecode": "0x6101006040523480156200001257600080fd5b5060405162003e2138038062003e21833981810160405260208110156200003857600080fd5b5051604080518082018252600a8152691c1554d110c8141bdbdb60b21b602082810191825283518085019094526005845264705553444360d81b90840152815191929173e22da380ee6b445bb8273c81944adeb6e8450422918591859185918591859185918591620000ad916003916200031f565b508051620000c39060049060208401906200031f565b50506005805460ff191660121790555060016006556001600160601b0319606083811b821660805282901b1660c05260408051630fab4d2560e01b815290514691732a62975b1dc4f6f8201e15c97e400f51724c8158916000918391630fab4d259160048082019260209290919082900301818787803b1580156200014757600080fd5b505af11580156200015c573d6000803e3d6000fd5b505050506040513d60208110156200017357600080fd5b505160408051632f2ff15d60e01b81527f679f35d3aa86a98333c7fc7439a0bc12a13be742ae62a4c1cc3820782a2e11a660048201526001600160a01b038781166024830152915192935090831691632f2ff15d9160448082019260009290919082900301818387803b158015620001ea57600080fd5b505af1158015620001ff573d6000803e3d6000fd5b50505050606090811b6001600160601b03191660a0908152875160209889012060408051808201825260018152603160f81b908b015280517f8b73c3c69bb8fe3d512ecc4cf759cc79239f7b179b0ffacaa9a75d522b39400f818c0152808201929092527fc89efdaa54c0f20c7adf612882df0950f5a951637e0307cdcb4c672f298b8bc693820193909352608081019490945230848201528151808503909101815260c0909301905250805194019390932060e0525050506001600160a01b03811662000314576040805162461bcd60e51b815260206004820152601a60248201527f436f6e74726f6c6c65722061646472657373206973207a65726f000000000000604482015290519081900360640190fd5b5050505050620003bb565b828054600181600116156101000203166002900490600052602060002090601f016020900481019282601f106200036257805160ff191683800117855562000392565b8280016001018555821562000392579182015b828111156200039257825182559160200191906001019062000375565b50620003a0929150620003a4565b5090565b5b80821115620003a05760008155600101620003a5565b60805160601c60a05160601c60c05160601c60e0516139966200048b600039806118b15280611a95525080610a255280610aa35280610c2b5280610e6b5280610f9b52806110b7528061135752806113d5528061172e5280611a285280611add5280611b475280611bdc5280612567528061271d5280612cbb5280612e5b528061340752508061124c5280611ab9525080610b495280610d6d528061147b528061168e5280611b125280612602528061284752806128da52806129be52806130ff528061328e52506139966000f3fe608060405234801561001057600080fd5b50600436106102de5760003560e01c806397a5af5511610186578063d505accf116100e3578063f6ecd3d511610097578063fc0c546a11610071578063fc0c546a146107a5578063fc0e74d1146107ad578063fcfff16f146107b5576102de565b8063f6ecd3d514610778578063f77c479114610780578063fb589de214610788576102de565b8063dd62ed3e116100c8578063dd62ed3e1461073a578063e941fa7814610768578063f698da2514610770576102de565b8063d505accf146106c3578063d9fe3eae14610714576102de565b8063b6b55f251161013a578063c415b95c1161011f578063c415b95c1461067a578063ce27b9031461069e578063d4c3eea0146106bb576102de565b8063b6b55f2514610655578063b8cb343d14610672576102de565b8063a457c2d71161016b578063a457c2d71461055a578063a9059cbb14610586578063b33fcc7a146105b2576102de565b806397a5af551461053557806399b71d5c14610552576102de565b80633d68175c1161023f5780636a630559116101f35780637ecebe00116101cd5780637ecebe00146104ff5780638456cb591461052557806395d89b411461052d576102de565b80636a630559146104c957806370a08231146104d15780637d7c2a1c146104f7576102de565b80634938649a116102245780634938649a146104815780634a970be7146104895780635c975abb146104c1576102de565b80633d68175c146104715780633f4ba83a14610479576102de565b80632e1a7d4d11610296578063313ce5671161027b578063313ce5671461041f578063330b8b711461043d5780633950935114610445576102de565b80632e1a7d4d146103f857806330adf81f14610417576102de565b806318160ddd116102c757806318160ddd146103a057806320606b70146103ba57806323b872dd146103c2576102de565b806306fdde03146102e3578063095ea7b314610360575b600080fd5b6102eb6107bd565b6040805160208082528351818301528351919283929083019185019080838360005b8381101561032557818101518382015260200161030d565b50505050905090810190601f1680156103525780820380516001836020036101000a031916815260200191505b509250505060405180910390f35b61038c6004803603604081101561037657600080fd5b506001600160a01b038135169060200135610854565b604080519115158252519081900360200190f35b6103a8610872565b60408051918252519081900360200190f35b6103a8610878565b61038c600480360360608110156103d857600080fd5b506001600160a01b0381358116916020810135909116906040013561089c565b6104156004803603602081101561040e57600080fd5b5035610924565b005b6103a86109e5565b610427610a09565b6040805160ff9092168252519081900360200190f35b610415610a12565b61038c6004803603604081101561045b57600080fd5b506001600160a01b038135169060200135610b74565b6103a8610bc2565b610415610c18565b61038c610caf565b610415600480360360a081101561049f57600080fd5b5080359060208101359060ff6040820135169060608101359060800135610cbe565b61038c610e58565b6103a8610e66565b6103a8600480360360208110156104e757600080fd5b50356001600160a01b0316610f78565b610415610f97565b6103a86004803603602081101561051557600080fd5b50356001600160a01b0316611092565b6104156110a4565b6102eb611139565b6104156004803603602081101561054b57600080fd5b503561119a565b610415611344565b61038c6004803603604081101561057057600080fd5b506001600160a01b0381351690602001356114a4565b61038c6004803603604081101561059c57600080fd5b506001600160a01b03813516906020013561150c565b61038c600480360360208110156105c857600080fd5b8101906020810181356401000000008111156105e357600080fd5b8201836020820111156105f557600080fd5b8035906020019184602083028401116401000000008311171561061757600080fd5b919080806020026020016040519081016040528093929190818152602001838360200280828437600092019190915250929550611520945050505050565b6104156004803603602081101561066b57600080fd5b50356115d4565b6103a861168a565b61068261172a565b604080516001600160a01b039092168252519081900360200190f35b6103a8600480360360208110156106b457600080fd5b5035611799565b6103a86117aa565b610415600480360360e08110156106d957600080fd5b506001600160a01b03813581169160208101359091169060408101359060608101359060ff6080820135169060a08101359060c001356117c5565b6104156004803603602081101561072a57600080fd5b50356001600160a01b03166119f0565b6103a86004803603604081101561075057600080fd5b506001600160a01b03813581169160200135166119f9565b6103a8611a24565b6103a8611a93565b610682611ab7565b610682611adb565b6103a86004803603602081101561079e57600080fd5b5035611aff565b610682611b10565b610415611b34565b610415611bc9565b60038054604080516020601f60026000196101006001881615020190951694909404938401819004810282018101909252828152606093909290918301828280156108495780601f1061081e57610100808354040283529160200191610849565b820191906000526020600020905b81548152906001019060200180831161082c57829003601f168201915b505050505090505b90565b6000610868610861611c5e565b8484611c62565b5060015b92915050565b60025490565b7f8b73c3c69bb8fe3d512ecc4cf759cc79239f7b179b0ffacaa9a75d522b39400f81565b60006108a9848484611d4e565b610919846108b5611c5e565b6109148560405180606001604052806028815260200161384a602891396001600160a01b038a166000908152600160205260408120906108f3611c5e565b6001600160a01b031681526020810191909152604001600020549190611ea9565b611c62565b5060015b9392505050565b6002600654141561097c576040805162461bcd60e51b815260206004820152601f60248201527f5265656e7472616e637947756172643a207265656e7472616e742063616c6c00604482015290519081900360640190fd5b600260065560055462010000900460ff16156109d4576040805162461bcd60e51b81526020600482015260126024820152712830bab9b0b136329d1039b43aba3237bbb760711b604482015290519081900360640190fd5b6109dd81611f40565b506001600655565b7f6e71edae12b1b97f4d1f60370fef10105fa2faae0126114a169c64845d6126c981565b60055460ff1690565b610a1a611c5e565b6001600160a01b03167f00000000000000000000000000000000000000000000000000000000000000006001600160a01b031614610a9f576040805162461bcd60e51b815260206004820152601c60248201527f43616c6c6572206973206e6f742074686520636f6e74726f6c6c657200000000604482015290519081900360640190fd5b60007f00000000000000000000000000000000000000000000000000000000000000006001600160a01b031663228bfd9f306040518263ffffffff1660e01b815260040180826001600160a01b0316815260200191505060206040518083038186803b158015610b0e57600080fd5b505afa158015610b22573d6000803e3d6000fd5b505050506040513d6020811015610b3857600080fd5b50519050610b716001600160a01b037f000000000000000000000000000000000000000000000000000000000000000016826000612048565b50565b6000610868610b81611c5e565b846109148560016000610b92611c5e565b6001600160a01b03908116825260208083019390935260409182016000908120918c168152925290205490612160565b6000610bcc610872565b610be857610be1670de0b6b3a7640000611aff565b9050610851565b610c13610bf3610872565b610c0d670de0b6b3a7640000610c076117aa565b906121ba565b90612213565b905090565b610c20611c5e565b6001600160a01b03167f00000000000000000000000000000000000000000000000000000000000000006001600160a01b031614610ca5576040805162461bcd60e51b815260206004820152601c60248201527f43616c6c6572206973206e6f742074686520636f6e74726f6c6c657200000000604482015290519081900360640190fd5b610cad61227a565b565b60055462010000900460ff1681565b60026006541415610d16576040805162461bcd60e51b815260206004820152601f60248201527f5265656e7472616e637947756172643a207265656e7472616e742063616c6c00604482015290519081900360640190fd5b6002600655600554610100900460ff1615610d6b576040805162461bcd60e51b815260206004820152601060248201526f14185d5cd8589b194e881c185d5cd95960821b604482015290519081900360640190fd5b7f00000000000000000000000000000000000000000000000000000000000000006001600160a01b031663d505accf610da2611c5e565b604080517fffffffff0000000000000000000000000000000000000000000000000000000060e085901b1681526001600160a01b039092166004830152306024830152604482018990526064820188905260ff8716608483015260a4820186905260c482018590525160e480830192600092919082900301818387803b158015610e2b57600080fd5b505af1158015610e3f573d6000803e3d6000fd5b50505050610e4c8561237a565b50506001600655505050565b600554610100900460ff1681565b6000807f00000000000000000000000000000000000000000000000000000000000000006001600160a01b031663228bfd9f306040518263ffffffff1660e01b815260040180826001600160a01b0316815260200191505060206040518083038186803b158015610ed657600080fd5b505afa158015610eea573d6000803e3d6000fd5b505050506040513d6020811015610f0057600080fd5b505160408051632b448a0960e11b815290519192506001600160a01b03831691635689141291600480820192602092909190829003018186803b158015610f4657600080fd5b505afa158015610f5a573d6000803e3d6000fd5b505050506040513d6020811015610f7057600080fd5b505191505090565b6001600160a01b0381166000908152602081905260409020545b919050565b60007f00000000000000000000000000000000000000000000000000000000000000006001600160a01b031663228bfd9f306040518263ffffffff1660e01b815260040180826001600160a01b0316815260200191505060206040518083038186803b15801561100657600080fd5b505afa15801561101a573d6000803e3d6000fd5b505050506040513d602081101561103057600080fd5b505160408051631f5f0a8760e21b815290519192506001600160a01b03831691637d7c2a1c9160048082019260009290919082900301818387803b15801561107757600080fd5b505af115801561108b573d6000803e3d6000fd5b5050505050565b60076020526000908152604090205481565b6110ac611c5e565b6001600160a01b03167f00000000000000000000000000000000000000000000000000000000000000006001600160a01b031614611131576040805162461bcd60e51b815260206004820152601c60248201527f43616c6c6572206973206e6f742074686520636f6e74726f6c6c657200000000604482015290519081900360640190fd5b610cad612406565b60048054604080516020601f60026000196101006001881615020190951694909404938401819004810282018101909252828152606093909290918301828280156108495780601f1061081e57610100808354040283529160200191610849565b600260065414156111f2576040805162461bcd60e51b815260206004820152601f60248201527f5265656e7472616e637947756172643a207265656e7472616e742063616c6c00604482015290519081900360640190fd5b600260065560055462010000900460ff161561124a576040805162461bcd60e51b81526020600482015260126024820152712830bab9b0b136329d1039b43aba3237bbb760711b604482015290519081900360640190fd5b7f00000000000000000000000000000000000000000000000000000000000000006001600160a01b031663c2bc2efc611281611c5e565b6040518263ffffffff1660e01b815260040180826001600160a01b0316815260200191505060206040518083038186803b1580156112be57600080fd5b505afa1580156112d2573d6000803e3d6000fd5b505050506040513d60208110156112e857600080fd5b505161133b576040805162461bcd60e51b815260206004820152601a60248201527f4e6f742061207768697465206c69737465642061646472657373000000000000604482015290519081900360640190fd5b6109dd8161248e565b61134c611c5e565b6001600160a01b03167f00000000000000000000000000000000000000000000000000000000000000006001600160a01b0316146113d1576040805162461bcd60e51b815260206004820152601c60248201527f43616c6c6572206973206e6f742074686520636f6e74726f6c6c657200000000604482015290519081900360640190fd5b60007f00000000000000000000000000000000000000000000000000000000000000006001600160a01b031663228bfd9f306040518263ffffffff1660e01b815260040180826001600160a01b0316815260200191505060206040518083038186803b15801561144057600080fd5b505afa158015611454573d6000803e3d6000fd5b505050506040513d602081101561146a57600080fd5b50519050610b716001600160a01b037f00000000000000000000000000000000000000000000000000000000000000001682600019612048565b60006108686114b1611c5e565b846109148560405180606001604052806025815260200161393c60259139600160006114db611c5e565b6001600160a01b03908116825260208083019390935260409182016000908120918d16815292529020549190611ea9565b6000610868611519611c5e565b8484611d4e565b6000805b8251811015610868576000606084838151811061153d57fe5b6020026020010151901c9050600084838151811061155757fe5b60200260200101516bffffffffffffffffffffffff169050611579828261150c565b6115ca576040805162461bcd60e51b815260206004820152600f60248201527f5472616e73666572206661696c65640000000000000000000000000000000000604482015290519081900360640190fd5b5050600101611524565b6002600654141561162c576040805162461bcd60e51b815260206004820152601f60248201527f5265656e7472616e637947756172643a207265656e7472616e742063616c6c00604482015290519081900360640190fd5b6002600655600554610100900460ff1615611681576040805162461bcd60e51b815260206004820152601060248201526f14185d5cd8589b194e881c185d5cd95960821b604482015290519081900360640190fd5b6109dd8161237a565b60007f00000000000000000000000000000000000000000000000000000000000000006001600160a01b03166370a08231306040518263ffffffff1660e01b815260040180826001600160a01b0316815260200191505060206040518083038186803b1580156116f957600080fd5b505afa15801561170d573d6000803e3d6000fd5b505050506040513d602081101561172357600080fd5b5051905090565b60007f00000000000000000000000000000000000000000000000000000000000000006001600160a01b031663a06e01ba306040518263ffffffff1660e01b815260040180826001600160a01b0316815260200191505060206040518083038186803b1580156116f957600080fd5b600061086c8264e8d4a510006121ba565b6000610c136117b761168a565b6117bf610e66565b90612160565b4284101561181a576040805162461bcd60e51b815260206004820152600760248201527f4578706972656400000000000000000000000000000000000000000000000000604482015290519081900360640190fd5b6001600160a01b0380881660008181526007602090815260408083208054600180820190925582517f6e71edae12b1b97f4d1f60370fef10105fa2faae0126114a169c64845d6126c98186015280840196909652958c166060860152608085018b905260a085019590955260c08085018a90528151808603909101815260e08501825280519083012061190160f01b6101008601527f00000000000000000000000000000000000000000000000000000000000000006101028601526101228086019190915281518086039091018152610142850180835281519184019190912090849052610162850180835281905260ff89166101828601526101a285018890526101c285018790529051909492936101e28082019392601f1981019281900390910190855afa158015611953573d6000803e3d6000fd5b5050604051601f1901519150506001600160a01b038116158015906119895750886001600160a01b0316816001600160a01b0316145b6119da576040805162461bcd60e51b815260206004820152601160248201527f496e76616c6964207369676e6174757265000000000000000000000000000000604482015290519081900360640190fd5b6119e5898989611c62565b505050505050505050565b610b7181612563565b6001600160a01b03918216600090815260016020908152604080832093909416825291909152205490565b60007f00000000000000000000000000000000000000000000000000000000000000006001600160a01b0316631ac3ddeb306040518263ffffffff1660e01b815260040180826001600160a01b0316815260200191505060206040518083038186803b1580156116f957600080fd5b7f000000000000000000000000000000000000000000000000000000000000000081565b7f000000000000000000000000000000000000000000000000000000000000000081565b7f000000000000000000000000000000000000000000000000000000000000000081565b600061086c8264e8d4a51000612213565b7f000000000000000000000000000000000000000000000000000000000000000081565b611b3c611c5e565b6001600160a01b03167f00000000000000000000000000000000000000000000000000000000000000006001600160a01b031614611bc1576040805162461bcd60e51b815260206004820152601c60248201527f43616c6c6572206973206e6f742074686520636f6e74726f6c6c657200000000604482015290519081900360640190fd5b610cad612b8d565b611bd1611c5e565b6001600160a01b03167f00000000000000000000000000000000000000000000000000000000000000006001600160a01b031614611c56576040805162461bcd60e51b815260206004820152601c60248201527f43616c6c6572206973206e6f742074686520636f6e74726f6c6c657200000000604482015290519081900360640190fd5b610cad612c25565b3390565b6001600160a01b038316611ca75760405162461bcd60e51b81526004018080602001828103825260248152602001806138b86024913960400191505060405180910390fd5b6001600160a01b038216611cec5760405162461bcd60e51b81526004018080602001828103825260228152602001806137bb6022913960400191505060405180910390fd5b6001600160a01b03808416600081815260016020908152604080832094871680845294825291829020859055815185815291517f8c5be1e5ebec7d5bd14f71427d1e84f3dd0314c0f7b2291e5b200ac8c7c3b9259281900390910190a3505050565b6001600160a01b038316611d935760405162461bcd60e51b81526004018080602001828103825260258152602001806138936025913960400191505060405180910390fd5b6001600160a01b038216611dd85760405162461bcd60e51b81526004018080602001828103825260238152602001806137766023913960400191505060405180910390fd5b611de3838383612cb7565b611e20816040518060600160405280602681526020016137dd602691396001600160a01b0386166000908152602081905260409020549190611ea9565b6001600160a01b038085166000908152602081905260408082209390935590841681522054611e4f9082612160565b6001600160a01b038084166000818152602081815260409182902094909455805185815290519193928716927fddf252ad1be2c89b69c2b068fc378daa952ba7f163c4a11628f55a4df523b3ef92918290030190a3505050565b60008184841115611f385760405162461bcd60e51b81526004018080602001828103825283818151815260200191508051906020019080838360005b83811015611efd578181015183820152602001611ee5565b50505050905090810190601f168015611f2a5780820380516001836020036101000a031916815260200191505b509250505060405180910390fd5b505050900390565b80611f92576040805162461bcd60e51b815260206004820152600a60248201527f7368617265206973203000000000000000000000000000000000000000000000604482015290519081900360640190fd5b611f9b81612e57565b6000611fa682612f53565b90506000611fd7611fd2611fb8610872565b610c0d611fcb611fc66117aa565b611799565b86906121ba565b611aff565b9050611fea611fe4611c5e565b83612fac565b611ff3816130a8565b611ffb611c5e565b6001600160a01b03167ff279e6a1f5e320cca91135676d9cb6e44ca8a08c0b88342bcdb1144f6511b5688483604051808381526020018281526020019250505060405180910390a2505050565b8015806120ce575060408051636eb1769f60e11b81523060048201526001600160a01b03848116602483015291519185169163dd62ed3e91604480820192602092909190829003018186803b1580156120a057600080fd5b505afa1580156120b4573d6000803e3d6000fd5b505050506040513d60208110156120ca57600080fd5b5051155b6121095760405162461bcd60e51b81526004018080602001828103825260368152602001806139066036913960400191505060405180910390fd5b604080516001600160a01b038416602482015260448082018490528251808303909101815260649091019091526020810180516001600160e01b031663095ea7b360e01b17905261215b90849061312a565b505050565b60008282018381101561091d576040805162461bcd60e51b815260206004820152601b60248201527f536166654d6174683a206164646974696f6e206f766572666c6f770000000000604482015290519081900360640190fd5b6000826121c95750600061086c565b828202828482816121d657fe5b041461091d5760405162461bcd60e51b81526004018080602001828103825260218152602001806138296021913960400191505060405180910390fd5b6000808211612269576040805162461bcd60e51b815260206004820152601a60248201527f536166654d6174683a206469766973696f6e206279207a65726f000000000000604482015290519081900360640190fd5b81838161227257fe5b049392505050565b600554610100900460ff166122d6576040805162461bcd60e51b815260206004820152601460248201527f5061757361626c653a206e6f7420706175736564000000000000000000000000604482015290519081900360640190fd5b60055462010000900460ff1615612329576040805162461bcd60e51b81526020600482015260126024820152712830bab9b0b136329d1039b43aba3237bbb760711b604482015290519081900360640190fd5b6005805461ff00191690557f5db9ee0a495bf2e6ff9c91a7834c1ba4fdd244a5e8aa4e537bd38aeae4b073aa61235d611c5e565b604080516001600160a01b039092168252519081900360200190a1565b600061238d61238883611799565b6131db565b905061239882613279565b6123a96123a3611c5e565b826132b6565b6123b282610b71565b6123ba611c5e565b6001600160a01b03167f90890809c654f11d6e72a28fa60149770a0d11ec6c92319d6ceb2bb0a4ea1a158284604051808381526020018281526020019250505060405180910390a25050565b600554610100900460ff1615612456576040805162461bcd60e51b815260206004820152601060248201526f14185d5cd8589b194e881c185d5cd95960821b604482015290519081900360640190fd5b6005805461ff0019166101001790557f62e78cea01bee320cd4e420270b5ea74000d11b0c9f74754ebdbfc544b05a25861235d611c5e565b806124e0576040805162461bcd60e51b815260206004820152601f60248201527f5769746864726177206d7573742062652067726561746572207468616e203000604482015290519081900360640190fd5b6124e981612e57565b60006124f9611fd2611fb8610872565b9050612506611fe4611c5e565b61250f816130a8565b612517611c5e565b6001600160a01b03167ff279e6a1f5e320cca91135676d9cb6e44ca8a08c0b88342bcdb1144f6511b5688383604051808381526020018281526020019250505060405180910390a25050565b60007f00000000000000000000000000000000000000000000000000000000000000006001600160a01b031663228bfd9f306040518263ffffffff1660e01b815260040180826001600160a01b0316815260200191505060206040518083038186803b1580156125d257600080fd5b505afa1580156125e6573d6000803e3d6000fd5b505050506040513d60208110156125fc57600080fd5b505190507f00000000000000000000000000000000000000000000000000000000000000006001600160a01b039081169083161480159061264657506001600160a01b0382163014155b80156126c85750806001600160a01b031663440d7248836040518263ffffffff1660e01b815260040180826001600160a01b0316815260200191505060206040518083038186803b15801561269a57600080fd5b505afa1580156126ae573d6000803e3d6000fd5b505050506040513d60208110156126c457600080fd5b5051155b612719576040805162461bcd60e51b815260206004820152601460248201527f4e6f7420616c6c6f77656420746f207377656570000000000000000000000000604482015290519081900360640190fd5b60007f00000000000000000000000000000000000000000000000000000000000000006001600160a01b031663735de9f76040518163ffffffff1660e01b815260040160206040518083038186803b15801561277457600080fd5b505afa158015612788573d6000803e3d6000fd5b505050506040513d602081101561279e57600080fd5b5051604080516370a0823160e01b815230600482015290519192506000916001600160a01b038616916370a08231916024808301926020929190829003018186803b1580156127ec57600080fd5b505afa158015612800573d6000803e3d6000fd5b505050506040513d602081101561281657600080fd5b5051905061282f6001600160a01b038516836000612048565b6128436001600160a01b0385168383612048565b60607f00000000000000000000000000000000000000000000000000000000000000006001600160a01b031673c02aaa39b223fe8d0a0e5c4f27ead9083c756cc2141561292b57604080516002808252606082018352909160208301908036833701905050905084816000815181106128b857fe5b60200260200101906001600160a01b031690816001600160a01b0316815250507f00000000000000000000000000000000000000000000000000000000000000008160018151811061290657fe5b60200260200101906001600160a01b031690816001600160a01b031681525050612a0b565b604080516003808252608082019092529060208201606080368337019050509050848160008151811061295a57fe5b60200260200101906001600160a01b031690816001600160a01b03168152505073c02aaa39b223fe8d0a0e5c4f27ead9083c756cc28160018151811061299c57fe5b60200260200101906001600160a01b031690816001600160a01b0316815250507f0000000000000000000000000000000000000000000000000000000000000000816002815181106129ea57fe5b60200260200101906001600160a01b031690816001600160a01b0316815250505b826001600160a01b03166338ed1739836001843042601e016040518663ffffffff1660e01b81526004018086815260200185815260200180602001846001600160a01b03168152602001838152602001828103825285818151815260200191508051906020019060200280838360005b83811015612a93578181015183820152602001612a7b565b505050509050019650505050505050600060405180830381600087803b158015612abc57600080fd5b505af1158015612ad0573d6000803e3d6000fd5b505050506040513d6000823e601f3d908101601f191682016040526020811015612af957600080fd5b8101908080516040519392919084640100000000821115612b1957600080fd5b908301906020820185811115612b2e57600080fd5b8251866020820283011164010000000082111715612b4b57600080fd5b82525081516020918201928201910280838360005b83811015612b78578181015183820152602001612b60565b50505050905001604052505050505050505050565b60055462010000900460ff1615612be0576040805162461bcd60e51b81526020600482015260126024820152712830bab9b0b136329d1039b43aba3237bbb760711b604482015290519081900360640190fd5b6005805461ff001962ff0000199091166201000017166101001790557f28b4c24cb1012c094cd2f59f98e89d791973295f8fda6eaa118022d6d318960a61235d611c5e565b60055462010000900460ff16612c82576040805162461bcd60e51b815260206004820152601660248201527f5061757361626c653a206e6f742073687574646f776e00000000000000000000604482015290519081900360640190fd5b6005805462ff0000191690557fece7583a70a505ef0e36d4dec768f5ae597713e09c26011022599ee01abdabfc61235d611c5e565b60007f00000000000000000000000000000000000000000000000000000000000000006001600160a01b031663dd5aba4b306040518263ffffffff1660e01b815260040180826001600160a01b0316815260200191505060206040518083038186803b158015612d2657600080fd5b505afa158015612d3a573d6000803e3d6000fd5b505050506040513d6020811015612d5057600080fd5b505190506001600160a01b03811615612e51576001600160a01b03841615612dda57806001600160a01b031663632447c9856040518263ffffffff1660e01b815260040180826001600160a01b03168152602001915050600060405180830381600087803b158015612dc157600080fd5b505af1158015612dd5573d6000803e3d6000fd5b505050505b6001600160a01b03831615612e5157806001600160a01b031663632447c9846040518263ffffffff1660e01b815260040180826001600160a01b03168152602001915050600060405180830381600087803b158015612e3857600080fd5b505af1158015612e4c573d6000803e3d6000fd5b505050505b50505050565b60007f00000000000000000000000000000000000000000000000000000000000000006001600160a01b031663228bfd9f306040518263ffffffff1660e01b815260040180826001600160a01b0316815260200191505060206040518083038186803b158015612ec657600080fd5b505afa158015612eda573d6000803e3d6000fd5b505050506040513d6020811015612ef057600080fd5b50516040805163419f775360e01b815290519192506001600160a01b0383169163419f77539160048082019260009290919082900301818387803b158015612f3757600080fd5b505af1158015612f4b573d6000803e3d6000fd5b505050505050565b6000612f5d611a24565b15612fa8576000612f7b670de0b6b3a7640000610c0d611fcb611a24565b9050612f8783826133a6565b9150612fa2612f94611c5e565b612f9c61172a565b83611d4e565b50610f92565b5090565b6001600160a01b038216612ff15760405162461bcd60e51b81526004018080602001828103825260218152602001806138726021913960400191505060405180910390fd5b612ffd82600083612cb7565b61303a81604051806060016040528060228152602001613799602291396001600160a01b0385166000908152602081905260409020549190611ea9565b6001600160a01b03831660009081526020819052604090205560025461306090826133a6565b6002556040805182815290516000916001600160a01b038516917fddf252ad1be2c89b69c2b068fc378daa952ba7f163c4a11628f55a4df523b3ef9181900360200190a35050565b60006130b261168a565b9050818110156130ea576130ce6130c983836133a6565b613403565b6130d661168a565b90508181106130e557816130e7565b805b91505b6131266130f5611c5e565b6001600160a01b037f00000000000000000000000000000000000000000000000000000000000000001690846134ea565b5050565b606061317f826040518060400160405280602081526020017f5361666545524332303a206c6f772d6c6576656c2063616c6c206661696c6564815250856001600160a01b031661353c9092919063ffffffff16565b80519091501561215b5780806020019051602081101561319e57600080fd5b505161215b5760405162461bcd60e51b815260040180806020018281038252602a8152602001806138dc602a913960400191505060405180910390fd5b60008161322f576040805162461bcd60e51b815260206004820152600b60248201527f616d6f756e742069732030000000000000000000000000000000000000000000604482015290519081900360640190fd5b6000613239610872565b90506000613248611fc66117aa565b90506000821580613257575081155b61326e5761326982610c0d87866121ba565b613270565b845b95945050505050565b610b71613284611c5e565b6001600160a01b037f000000000000000000000000000000000000000000000000000000000000000016903084613553565b6001600160a01b038216613311576040805162461bcd60e51b815260206004820152601f60248201527f45524332303a206d696e7420746f20746865207a65726f206164647265737300604482015290519081900360640190fd5b61331d60008383612cb7565b60025461332a9082612160565b6002556001600160a01b0382166000908152602081905260409020546133509082612160565b6001600160a01b0383166000818152602081815260408083209490945583518581529351929391927fddf252ad1be2c89b69c2b068fc378daa952ba7f163c4a11628f55a4df523b3ef9281900390910190a35050565b6000828211156133fd576040805162461bcd60e51b815260206004820152601e60248201527f536166654d6174683a207375627472616374696f6e206f766572666c6f770000604482015290519081900360640190fd5b50900390565b60007f00000000000000000000000000000000000000000000000000000000000000006001600160a01b031663228bfd9f306040518263ffffffff1660e01b815260040180826001600160a01b0316815260200191505060206040518083038186803b15801561347257600080fd5b505afa158015613486573d6000803e3d6000fd5b505050506040513d602081101561349c57600080fd5b505160408051632e1a7d4d60e01b81526004810185905290519192506001600160a01b03831691632e1a7d4d9160248082019260009290919082900301818387803b158015612f3757600080fd5b604080516001600160a01b038416602482015260448082018490528251808303909101815260649091019091526020810180516001600160e01b031663a9059cbb60e01b17905261215b90849061312a565b606061354b84846000856135ad565b949350505050565b604080516001600160a01b0380861660248301528416604482015260648082018490528251808303909101815260849091019091526020810180516001600160e01b03166323b872dd60e01b179052612e5190859061312a565b6060824710156135ee5760405162461bcd60e51b81526004018080602001828103825260268152602001806138036026913960400191505060405180910390fd5b6135f785613709565b613648576040805162461bcd60e51b815260206004820152601d60248201527f416464726573733a2063616c6c20746f206e6f6e2d636f6e7472616374000000604482015290519081900360640190fd5b60006060866001600160a01b031685876040518082805190602001908083835b602083106136875780518252601f199092019160209182019101613668565b6001836020036101000a03801982511681845116808217855250505050505090500191505060006040518083038185875af1925050503d80600081146136e9576040519150601f19603f3d011682016040523d82523d6000602084013e6136ee565b606091505b50915091506136fe82828661370f565b979650505050505050565b3b151590565b6060831561371e57508161091d565b82511561372e5782518084602001fd5b60405162461bcd60e51b8152602060048201818152845160248401528451859391928392604401919085019080838360008315611efd578181015183820152602001611ee556fe45524332303a207472616e7366657220746f20746865207a65726f206164647265737345524332303a206275726e20616d6f756e7420657863656564732062616c616e636545524332303a20617070726f766520746f20746865207a65726f206164647265737345524332303a207472616e7366657220616d6f756e7420657863656564732062616c616e6365416464726573733a20696e73756666696369656e742062616c616e636520666f722063616c6c536166654d6174683a206d756c7469706c69636174696f6e206f766572666c6f7745524332303a207472616e7366657220616d6f756e74206578636565647320616c6c6f77616e636545524332303a206275726e2066726f6d20746865207a65726f206164647265737345524332303a207472616e736665722066726f6d20746865207a65726f206164647265737345524332303a20617070726f76652066726f6d20746865207a65726f20616464726573735361666545524332303a204552433230206f7065726174696f6e20646964206e6f7420737563636565645361666545524332303a20617070726f76652066726f6d206e6f6e2d7a65726f20746f206e6f6e2d7a65726f20616c6c6f77616e636545524332303a2064656372656173656420616c6c6f77616e63652062656c6f77207a65726fa2646970667358221220c843ac527a297a26c704a6ff51bac83c3603e01733ca909c8d002af12491aa9f64736f6c634300060c0033",
  "devdoc": {
    "kind": "dev",
    "methods": {
      "allowance(address,address)": {
        "details": "See {IERC20-allowance}."
      },
      "approve(address,uint256)": {
        "details": "See {IERC20-approve}. Requirements: - `spender` cannot be the zero address."
      },
      "approveToken()": {
        "details": "Approve strategy to spend collateral token and strategy token of pool."
      },
      "balanceOf(address)": {
        "details": "See {IERC20-balanceOf}."
      },
      "convertFrom18(uint256)": {
        "details": "Convert from 18 decimals to token defined decimals."
      },
      "convertTo18(uint256)": {
        "details": "Convert to 18 decimals from token defined decimals."
      },
      "decimals()": {
        "details": "Returns the number of decimals used to get its user representation. For example, if `decimals` equals `2`, a balance of `505` tokens should be displayed to a user as `5,05` (`505 / 10 ** 2`). Tokens usually opt for a value of 18, imitating the relationship between Ether and Wei. This is the value {ERC20} uses, unless {_setupDecimals} is called. NOTE: This information is only used for _display_ purposes: it in no way affects any of the arithmetic of the contract, including {IERC20-balanceOf} and {IERC20-transfer}."
      },
      "decreaseAllowance(address,uint256)": {
        "details": "Atomically decreases the allowance granted to `spender` by the caller. This is an alternative to {approve} that can be used as a mitigation for problems described in {IERC20-approve}. Emits an {Approval} event indicating the updated allowance. Requirements: - `spender` cannot be the zero address. - `spender` must have allowance for the caller of at least `subtractedValue`."
      },
      "deposit(uint256)": {
        "params": {
          "amount": "ERC20 token amount."
        }
      },
      "depositWithPermit(uint256,uint256,uint8,bytes32,bytes32)": {
        "params": {
          "amount": "ERC20 token amount.",
          "deadline": "The time at which signature will expire",
          "r": "Half of the ECDSA signature pair",
          "s": "Half of the ECDSA signature pair",
          "v": "The recovery byte of the signature"
        }
      },
      "feeCollector()": {
        "details": "Get fee collector address"
      },
      "getPricePerShare()": {
        "details": "Return value will be in token defined decimals."
      },
      "increaseAllowance(address,uint256)": {
        "details": "Atomically increases the allowance granted to `spender` by the caller. This is an alternative to {approve} that can be used as a mitigation for problems described in {IERC20-approve}. Emits an {Approval} event indicating the updated allowance. Requirements: - `spender` cannot be the zero address."
      },
      "multiTransfer(uint256[])": {
        "details": "Left 160 bits are the recipient address and the right 96 bits are the token amount.",
        "params": {
          "bits": "array of uint"
        },
        "returns": {
          "_0": "true/false"
        }
      },
      "name()": {
        "details": "Returns the name of the token."
      },
      "permit(address,address,uint256,uint256,uint8,bytes32,bytes32)": {
        "params": {
          "amount": "The number of tokens that are approved (2^256-1 means infinite)",
          "deadline": "The time at which to expire the signature",
          "owner": "The address to approve from",
          "r": "Half of the ECDSA signature pair",
          "s": "Half of the ECDSA signature pair",
          "spender": "The address to be approved",
          "v": "The recovery byte of the signature"
        }
      },
      "rebalance()": {
        "details": "Rebalance invested collateral to mitigate liquidation risk, if any. Behavior of rebalance is driven by risk parameters defined in strategy."
      },
      "resetApproval()": {
        "details": "Reset token approval of strategy. Called when updating strategy."
      },
      "sweepErc20(address)": {
        "details": "Convert given ERC20 token into collateral token via Uniswap",
        "params": {
          "_erc20": "Token address"
        }
      },
      "symbol()": {
        "details": "Returns the symbol of the token, usually a shorter version of the name."
      },
      "tokenLocked()": {
        "details": "Returns collateral token locked in strategy"
      },
      "tokensHere()": {
        "details": "Returns the token stored in the pool. It will be in token defined decimals."
      },
      "totalSupply()": {
        "details": "See {IERC20-totalSupply}."
      },
      "totalValue()": {
        "details": "Returns total value of vesper pool, in terms of collateral token"
      },
      "transfer(address,uint256)": {
        "details": "See {IERC20-transfer}. Requirements: - `recipient` cannot be the zero address. - the caller must have a balance of at least `amount`."
      },
      "transferFrom(address,address,uint256)": {
        "details": "See {IERC20-transferFrom}. Emits an {Approval} event indicating the updated allowance. This is not required by the EIP. See the note at the beginning of {ERC20}. Requirements: - `sender` and `recipient` cannot be the zero address. - `sender` must have a balance of at least `amount`. - the caller must have allowance for ``sender``'s tokens of at least `amount`."
      },
      "withdraw(uint256)": {
        "params": {
          "shares": "Pool shares. It will be in 18 decimals."
        }
      },
      "withdrawByStrategy(uint256)": {
        "details": "No withdraw fee will be assessed when this function is called. Only some white listed address can call this function.",
        "params": {
          "shares": "Pool shares. It will be in 18 decimals."
        }
      },
      "withdrawFee()": {
        "details": "Format: 1e16 = 1% fee"
      }
    },
    "version": 1
  },
  "userdoc": {
    "kind": "user",
    "methods": {
      "deposit(uint256)": {
        "notice": "Deposit ERC20 tokens and receive pool shares depending on the current share price."
      },
      "depositWithPermit(uint256,uint256,uint8,bytes32,bytes32)": {
        "notice": "Deposit ERC20 tokens with permit aka gasless approval."
      },
      "getPricePerShare()": {
        "notice": "Get price per share"
      },
      "multiTransfer(uint256[])": {
        "notice": "Transfer tokens to multiple recipient"
      },
      "permit(address,address,uint256,uint256,uint8,bytes32,bytes32)": {
        "notice": "Triggers an approval from owner to spends"
      },
      "withdraw(uint256)": {
        "notice": "Withdraw collateral based on given shares and the current share price. Transfer earned rewards to caller. Withdraw fee, if any, will be deduced from given shares and transferred to feeCollector. Burn remaining shares and return collateral."
      },
      "withdrawByStrategy(uint256)": {
        "notice": "Withdraw collateral based on given shares and the current share price. Transfer earned rewards to caller. Burn shares and return collateral."
      },
      "withdrawFee()": {
        "notice": "Get withdraw fee for this pool"
      }
    },
    "version": 1
  },
  "storageLayout": {
    "storage": [
      {
        "astId": 484,
        "contract": "contracts/pools/PUSDC.sol:PUSDC",
        "label": "_balances",
        "offset": 0,
        "slot": "0",
        "type": "t_mapping(t_address,t_uint256)"
      },
      {
        "astId": 490,
        "contract": "contracts/pools/PUSDC.sol:PUSDC",
        "label": "_allowances",
        "offset": 0,
        "slot": "1",
        "type": "t_mapping(t_address,t_mapping(t_address,t_uint256))"
      },
      {
        "astId": 492,
        "contract": "contracts/pools/PUSDC.sol:PUSDC",
        "label": "_totalSupply",
        "offset": 0,
        "slot": "2",
        "type": "t_uint256"
      },
      {
        "astId": 494,
        "contract": "contracts/pools/PUSDC.sol:PUSDC",
        "label": "_name",
        "offset": 0,
        "slot": "3",
        "type": "t_string_storage"
      },
      {
        "astId": 496,
        "contract": "contracts/pools/PUSDC.sol:PUSDC",
        "label": "_symbol",
        "offset": 0,
        "slot": "4",
        "type": "t_string_storage"
      },
      {
        "astId": 498,
        "contract": "contracts/pools/PUSDC.sol:PUSDC",
        "label": "_decimals",
        "offset": 0,
        "slot": "5",
        "type": "t_uint8"
      },
      {
        "astId": 3704,
        "contract": "contracts/pools/PUSDC.sol:PUSDC",
        "label": "paused",
        "offset": 1,
        "slot": "5",
        "type": "t_bool"
      },
      {
        "astId": 3706,
        "contract": "contracts/pools/PUSDC.sol:PUSDC",
        "label": "stopEverything",
        "offset": 2,
        "slot": "5",
        "type": "t_bool"
      },
      {
        "astId": 2772,
        "contract": "contracts/pools/PUSDC.sol:PUSDC",
        "label": "_status",
        "offset": 0,
        "slot": "6",
        "type": "t_uint256"
      },
      {
        "astId": 7093,
        "contract": "contracts/pools/PUSDC.sol:PUSDC",
        "label": "nonces",
        "offset": 0,
        "slot": "7",
        "type": "t_mapping(t_address,t_uint256)"
      }
    ],
    "types": {
      "t_address": {
        "encoding": "inplace",
        "label": "address",
        "numberOfBytes": "20"
      },
      "t_bool": {
        "encoding": "inplace",
        "label": "bool",
        "numberOfBytes": "1"
      },
      "t_mapping(t_address,t_mapping(t_address,t_uint256))": {
        "encoding": "mapping",
        "key": "t_address",
        "label": "mapping(address => mapping(address => uint256))",
        "numberOfBytes": "32",
        "value": "t_mapping(t_address,t_uint256)"
      },
      "t_mapping(t_address,t_uint256)": {
        "encoding": "mapping",
        "key": "t_address",
        "label": "mapping(address => uint256)",
        "numberOfBytes": "32",
        "value": "t_uint256"
      },
      "t_string_storage": {
        "encoding": "bytes",
        "label": "string",
        "numberOfBytes": "32"
      },
      "t_uint256": {
        "encoding": "inplace",
        "label": "uint256",
        "numberOfBytes": "32"
      },
      "t_uint8": {
        "encoding": "inplace",
        "label": "uint8",
        "numberOfBytes": "1"
      }
    }
  }
}